:020000040800F2
:10000000F00C0024BD020008252D0008C1030008E3
:10001000C10300085707000851380008000000001D
:100020000000000000000000000000002D3000086B
:1000300079090008000000000F0300082F300008B5
:10004000D7020008D7020008D7020008D70200082C
:10005000D7020008D70200087B090008CD09000874
:10006000E1090008F5090008090A0008D70200089C
:10007000D7020008D7020008D7020008D7020008FC
:10008000D7020008D7020008D7020008D7020008EC
:10009000D7020008D7020008D70200081D0A00088E
:1000A000D7020008D7020008D7020008D7020008CC
:1000B000D7020008D7020008D7020008D7020008BC
:1000C000D7020008D7020008D7020008D7020008AC
:1000D000D7020008D7020008D7020008D70200089C
:1000E0008F090008D702000800000000D7020008AE
:1000F000D7020008D7020008D7020008D70200087C
:10010000D7020008D7020008D7020008D70200086B
:10011000F5310008D7020008D7020008D70200080E
:10012000D7020008D7020008D7020008D70200084B
:10013000D7020008D7020008D7020008D70200083B
:1001400000000000000000000000000000000000AF
:10015000D7020008D7020008D7020008D70200081B
:10016000D7020008D7020008D7020008D70200080B
:10017000D7020008D7020008D702000800000000DC
:10018000D7020008D7020008D7020008D7020008EB
:10019000D7020008D7020008D7020008D7020008DB
:1001A000D7020008D7020008D7020008D7020008CB
:1001B000D7020008D7020008D7020008D7020008BB
:1001C000D7020008D7020008D7020008D7020008AB
:1001D000D7020008D7020008D7020008D70200089B
:1001E000D7020008D7020008D7020008D70200088B
:1001F000D7020008D7020008D7020008D70200087B
:10020000D7020008D7020008D7020008D70200086A
:10021000D7020008D7020008D7020008D70200085A
:10022000D7020008D7020008D7020008000000002B
:10023000D7020008D702000800000000D70200081B
:10024000D7020008D7020008D7020008D70200082A
:10025000D7020008D7020008D7020008D70200081A
:10026000D7020008D7020008D7020008D70200080A
:10027000D7020008D70200080D2D0008000000007A
:10028000D7020008D7020008D702000800000000CB
:1002900000000000D7020008DFF80CD000F0B8F929
:1002A000004800474D070008F00C0024002804D047
:1002B00090FAA0F0B0FA80F0401C704706488047E2
:1002C00006480047FEE7FEE7FEE7FEE7FEE7FEE73B
:1002D000FEE7FEE7FEE7FEE711310008990200089D
:1002E000EFF3108072B6704780F310887047424A6F
:1002F0001368012B04D04FF0010313603F4A1060D4
:100300003F4A11603F484FF0805101607047EFF362
:10031000108272B63848016851B34FF00001016095
:100320003648016891B1EFF309811EF0100F08BF44
:1003300021ED108B21E9F00F4FF000041EF0100F9B
:1003400008BF012441F8044D006801602C49096888
:10035000096808C9B1E8F00F002B18BFB1EC108B89
:1003600081F309884EF0100E002B18BF2EF0100EEE
:1003700082F310884EF0040E704721490860EFF3B5
:10038000148222F0040282F314881C494FF000000A
:10039000086019494FF0010008601B481B49D0F85C
:1003A000002041EA0201016016484FF080510160CF
:1003B00017480068006880F3088861B662B6704725
:1003C0001EF0040F0CBFEFF30880EFF3098020E963
:1003D000F00F40F804ED40F804ED1EF0040F0CBFE0
:1003E00080F3088880F3098800B506F0CFF95DF83E
:1003F00004EB4EF0040E7047380100243001002455
:100400003401002404ED00E020ED00E00000FFFFD7
:1004100008ED00E02DE9F05F0546002092469B467E
:1004200088460646814640241BE02846414647460A
:10043000224600F0A4F853465A46C01A914110D300
:1004400011461846224600F08BF82D1A67EB01087A
:100450004F4622460120002100F082F817EB0009E8
:100460004E41201EA4F10104DFDC484631462A46F5
:100470004346BDE8F09F40EA01039B0703D009E033
:1004800008C9121F08C0042AFAD203E011F8013B80
:1004900000F8013B521EF9D27047D2B201E000F8D9
:1004A000012B491EFBD270470022F6E710B5134618
:1004B0000A4604461946FFF7F0FF204610BD421ECB
:1004C00012F8013F002BFBD111F8013B02F8013B70
:1004D000002BF9D1704710B5044604E00B7800F802
:1004E000013B03B1491C521EF8D2204610BD421CEC
:1004F00010F8011B0029FBD1801A704730B5044663
:100500000020034600E05B1C934203D2E05CCD5C1C
:10051000401BF8D030BD034611F8012B00F8012B29
:10052000002AF9D11846704730B505460020034629
:1005300000E05B1C934205D2EC5CC85C201A01D140
:10054000002CF6D130BD70B5064603F093F904686F
:1005500005460A220021304600F021F82C6070BDCB
:10056000202A04DB203A00FA02F100207047914073
:10057000C2F1200320FA03F3194390407047202A68
:1005800004DB203A21FA02F00021704721FA02F33D
:10059000D040C2F1200291400843194670472DE92E
:1005A000F04791460F4680460446002614F8015B4A
:1005B0002DB100F03FF80068405DC007F6D12B2D4B
:1005C00002D02D2D18D0641E4A463946204600F030
:1005D00035F827B13968A14201D1C7F8008071050B
:1005E0004FF002040BD54042002803DD03F042F92E
:1005F0000460A007BDE8F08746F48066E4E70028C1
:10060000F8DA03F037F904606FF00040F2E7000019
:10061000064C074D06E0E06840F0010394E807004F
:1006200098471034AC42F6D3FFF73AFE98AE000874
:10063000B8AE00080048704774A300082DE9F05FC9
:1006400082460078002715468B460AF10104B94618
:10065000302801D09DB113E014F8010B0127782850
:1006600003D0582801D045B10AE00DB1102D07D1B3
:100670000027102514F8010B02E0082500E00A25E8
:100680000026B0460EE005FB080005FB06F1012739
:1006900001EB10461FFA80F8B6F5803F00D3B9464B
:1006A00014F8010B294600F018F80028EBDABBF12A
:1006B000000F05D00FB1641E00E05446CBF8004097
:1006C000B9F1000F06D003F0D5F802210160C81E71
:1006D000BDE8F09F48EA0640FAE73A2800D23038F1
:1006E00020F02002412A01D3A2F13700884201D331
:1006F0004FF0FF30704770B58C1810F8015B15F0A3
:10070000070301D110F8013B2A1106D110F8012B83
:1007100003E010F8016B01F8016B5B1EF9D12B07A8
:1007200005D40023521E0DD401F8013BFAE710F85E
:10073000013BCB1A921C03E013F8015B01F8015B4B
:10074000521EF9D5A142D8D3002070BD10B508F0D3
:1007500023FC002010BDFEE72DE9F04F804E804FB6
:10076000DFF8FC911836DFF8F8A148370468856D8A
:100770000AF1300ADFF8ECB14C45DFF8ECC1DFF8E4
:10078000ECE16DD0B4426BD0544569D0BC4267D027
:10079000DFF8D081A8F11808444561D05C455FD0EE
:1007A00064455DD074455BD0DFF8C481444557D0C3
:1007B000DFF8BC8108F11808444551D0DFF8B0815A
:1007C00008F1300844454BD0DFF8A48108F148080F
:1007D000444545D0DFF8988108F1600844453FD092
:1007E000DFF88C8108F17808444539D0DFF8808142
:1007F00008F19008444533D0DFF8748108F1A80867
:1008000044452DD0DFF86C81444529D0DFF8648160
:1008100008F11408444523D0DFF8588108F128086E
:1008200044451DD0DFF84C8108F13C08444517D001
:10083000DFF8408108F15008444511D0DFF83481D9
:1008400008F1640844450BD0DFF8288108F17808E6
:10085000444505D0DFF81C8108F18C08444509D1D6
:10086000D0E91948C4F80480C46E1CB1D0E91C4812
:10087000C4F8048004684C452ED0B4422CD05445B2
:100880002AD0BC4228D0374E183EB44224D05C4512
:1008900022D0644520D074451ED0354EB4421BD0C2
:1008A000334E1836B44217D0314E3036B44213D0DE
:1008B0002F4E4836B4420FD02D4E6036B4420BD086
:1008C0002B4E7836B44207D0294E9036B44203D02E
:1008D000274EA836B44215D190F85C603F2406F04C
:1008E0001F06B440AC600468256825F480252560A7
:1008F0002EE09A600068C160BDE8F08F99600068E2
:10090000C260F9E71B4EB4421BD01A4E1436B442F3
:1009100017D0184E2836B44213D0164E3C36B44287
:100920000FD0144E5036B4420BD0124E6436B4423F
:1009300007D0104E7836B44203D00E4E8C36B442F7
:10094000DAD190F85C60012406F01F06B4406C60B8
:10095000046863608368402B0368CFD1C9E7000057
:100960001000024088000240A0000240B80002408F
:100970001004024008540258704710B506F034FACB
:10098000012000F07BFABDE8104006F04BBA10B52C
:1009900006F02AFA4FF4806000F070FA4FF400601D
:1009A00000F06CFA4FF4805000F068FA4FF40050F9
:1009B00000F064FA4FF4804000F060FA4FF4004019
:1009C00000F05CFABDE8104006F02CBA10B506F055
:1009D0000BFA022000F052FABDE8104006F022BAED
:1009E00010B506F001FA042000F048FABDE8104006
:1009F00006F018BA10B506F0F7F9082000F03EFA34
:100A0000BDE8104006F00EBA10B506F0EDF9102062
:100A100000F034FABDE8104006F004BA10B506F054
:100A2000E3F9202000F02AFA402000F027FA802085
:100A300000F024FA4FF4807000F020FA4FF40070B8
:100A400000F01CFABDE8104006F0ECB92DE9F84FB3
:100A500004008C464FF00000009013D094F834004E
:100A6000012811D094F835500120002184F8340079
:100A7000012D0BD084F83410C202009062650098FA
:100A8000BDE8F88F0120FBE70220F9E78C4D022634
:100A9000206884F83560A8428A4D61658A4E8B4F84
:100AA000DFF82C82DFF82C92DFF82CA2DFF82CB2D2
:100AB00026D0A84224D0B04222D0B84220D040450F
:100AC0001ED048451CD050451AD0584518D08449EE
:100AD000884215D082491831884211D0804930317E
:100AE00088420DD07E494831884209D07C49603126
:100AF000884205D07A497831884201D078499031CE
:100B0000016821F00101016061462046FFF724FEE3
:100B10006B49206888422CD0A8422AD0B04228D005
:100B2000B84226D0404524D0484522D0504520D058
:100B300058451ED06A4A90421BD0694A18329042EA
:100B400017D0674A3032904213D0654A48329042FB
:100B50000FD0634A603290420BD0614A78329042A3
:100B600007D05F4A9032904203D05D4AA83290424B
:100B70000CD1026822F01E0242F016020260206CC4
:100B800088B12068026842F008020BE0026822F097
:100B90000E0242F00A020260206C20B12068026856
:100BA00042F004020260206888424BD0A84249D03B
:100BB000B04247D0B84245D0404543D0484541D0E7
:100BC00050453FD058453DD0454A90423AD0444ADE
:100BD0001832904236D0424A3032904232D0404AA7
:100BE000483290422ED03E4A603290422AD03C4A4F
:100BF0007832904226D03A4A9032904222D0384AF7
:100C0000A83290421ED0374A90421BD0354A143247
:100C1000904217D0334A2832904213D0314A3C32A6
:100C200090420FD02F4A503290420BD02D4A64325E
:100C3000904207D02B4A7832904203D0294A8C3216
:100C400090420DD1206E0268D20303D5026842F4AF
:100C500080720260E06E18B1026842F48072026035
:100C60002068884226D0A84224D0B04222D0B84280
:100C700020D040451ED048451CD050451AD058457C
:100C800018D01749884215D015491831884211D01B
:100C90001349303188420DD011494831884209D07A
:100CA0000F496031884205D00D497831884201D022
:100CB0000B499031016841F001010160DFE600005D
:100CC000100002402800024040000240580002404C
:100CD0007000024088000240A0000240B8000240BC
:100CE00010040240085402582DE9F04F4F4D0022E5
:100CF0004FF0010A4FF00F0B92E000BF0AFA02F921
:100D000019EA01037ED022F0030606F1B0469407EB
:100D1000D6F808C4270FDFF818810BFA07FE404504
:100D20000EEA0C0402D14FF0000C40E0DFF804C1E1
:100D3000604502D14FF0010C39E0DFF8FCC060459E
:100D400002D14FF0020C32E0DFF8F0C0604502D172
:100D50004FF0030C2BE0DFF8E8C0604502D14FF004
:100D6000040C24E0DFF8DCC0604502D14FF0050C34
:100D70001DE0DFF8D4C0604502D14FF0060C16E04C
:100D8000DFF8C8C0604502D14FF0070C0FE0DFF874
:100D9000C0C0604502D14FF0080C08E0DFF8B4C0D5
:100DA000604502D14FF0090C01E04FF00A0C0CFA3B
:100DB00007FCA44513D12C689C432C606F684FF04E
:100DC000B0449F436F6027689F43276067689F43D5
:100DD0006760D6F8084424EA0E04C6F80844076899
:100DE0000323D4084FEA42084FEA427C03FA08F38F
:100DF0004FEADC6C1F4307600BFA0CF600EB84042F
:100E0000276A00E00BE0B7432762C4689C43C460D4
:100E1000446824EA0904446084689C438460521C4A
:100E200031FA02F37FF46AAFBDE8F08F800000581A
:100E3000000002580004025800080258000C025832
:100E4000001002580014025800180258001C0258E2
:100E5000002002580024025810B502F0CFFF00EB2A
:100E60004001054800EB81004168002903D08068FB
:100E7000BDE81040084710BD5C0100244FF0B041B0
:100E800010B5D1F88820024203D0C1F88800FFF7DE
:100E9000E3FF10BD2DE9FC4F01257E4C00234FF0F0
:100EA000030A4FF0B04E4FF00F0BEBE005FA03F6DC
:100EB00037403A0077D04F68012F05D0022F03D07A
:100EC000112F01D0122F1AD187684FEA4308D1F8A9
:100ED0000CC00AFA08F927EA09070CFA08FC4CEAE0
:100EE000070CC0F808C0476891F804C0B743CCF3BA
:100EF000001C0CFA03FC4CEA070CC0F804C0C668DE
:100F00004FEA430CD1F80880E1460AFA0CF7BE43D9
:100F1000019708FA09F848EA0608C0F80C804E68FC
:100F2000022E01D0122E12D1DE084FEA437C00EBD4
:100F3000860600960F69366A4FEADC6C0BFA0CF8ED
:100F400007FA0CF726EA08063743009E37620E7947
:100F50000768DDF804C006F0030606FA09F627EA7A
:100F60000C073E4306604E68F6001CD54A4E3768B3
:100F700047F00207376036689F0706F002060096C2
:100F800023F0030606F1B046B1463F0FD6F80864D9
:100F9000DFF808810BFA07FC404526EA0C0603D16E
:100FA0004FF0000C41E06CE0DFF8F4C0604502D186
:100FB0004FF0010C39E0DFF8ECC0604502D14FF092
:100FC000020C32E0DFF8E0C0604502D14FF0030CC4
:100FD0002BE0DFF8D8C0604502D14FF0040C24E0CC
:100FE000DFF8CCC0604502D14FF0050C1DE0DFF802
:100FF000C4C0604502D14FF0060C16E0DFF8B8C05F
:10100000604502D14FF0070C0FE0DFF8B0C060453B
:1010100002D14FF0080C08E0DFF8A4C0604502D10F
:101020004FF0090C01E04FF00A0C0CFA07FC4CEAF7
:10103000060CC9F808C426684F6826EA0206FF03B2
:1010400000D51643266066684F6826EA0206BF038D
:1010500000D516436660D1F804C07646DEF800700D
:101060005FEACC2C27EA020700D517433760D1F896
:1010700004C077685FEA8C2C27EA020700D5174383
:1010800077605B1C0A681746DA407FF40FAFBDE853
:10109000FC8F000080000058F44402580000025801
:1010A0000004025800080258000C025800100258B0
:1010B0000014025800180258001C02580020025860
:1010C000002402580069084000D0012070470AB18E
:1010D000816170470904FBE701480068000C704714
:1010E0000010005C10B507F0A5FB4FF47A72504376
:1010F000B0FBF2F010BD0000024881680278114494
:101100008160704708000024032010B500F078F8D3
:1011100001F004F80F4A104914681368C4F303225D
:1011200003F00F038A5CC95C02F01F0201F01F018B
:10113000D0400A4A20FA01F11160094908600020F4
:1011400000F010F808B1012010BD00F00DF80020EB
:1011500010BD0000184402589E99000804000024A5
:101160000000002400207047054808B5016841F0E0
:1011700002010160006800F00200009008BD00005C
:10118000F444025800280DDB410900F01F028900D9
:10119000012001F1E0219040C1F88001BFF34F8FA1
:1011A000BFF36F8F7047002809DB410900F01F0271
:1011B0008900012001F1E0219040C1F80001704751
:1011C0000E4BF0B41B680D46C3F30223C3F10706B0
:1011D000042E00D90426191D072901D2002300E09E
:1011E000DB1E012404FA06F19C40491E2940641EBE
:1011F000994014402143F0BC02F02BBB0CED00E001
:10120000064900F0070210B54FF6FF040868044BCA
:10121000204040EA02201843086010BD0CED00E0B9
:101220000000FA05134970B50A68D243520705D584
:10123000096801F00701814213D118E00A6822F021
:10124000070202430A60FFF74DFF0A4D4FF47A761A
:101250000446083D07E000BFFFF744FF001BB04213
:1012600001D9012070BD2868C0438004F4D4002057
:1012700070BD00000C4802580248016841F48071BA
:10128000016070470048025810B500F047FF0B4A54
:101290000B4914681368C4F3032203F00F038A5C3C
:1012A000C95C02F01F0201F01F01D040054A20FA7C
:1012B00001F111600449086010BD00001844025893
:1012C0009E990008040000240000002410B500F0DE
:1012D000DFFE05490968054AC1F30211515C01F0BE
:1012E0001F01C84010BD0000204402589E9900080C
:1012F000494930B5484C0B1D0A68143409681D680B
:10130000246802F00303C5F30012C1F30531C4F3EE
:10131000CC04002914FB02F200EE102AF8EE400A79
:1013200075D03F4A9FED3D1AB7EE000A6BB1DFED75
:101330003D1A012B01D0022B64D002EE101A116865
:10134000F8EE422A81EEA22A21E0334C283C2368A1
:101350009B0612D5344B246801EE901A1168C4F331
:10136000C104F8EE612AE34001EE903AC1F30801AE
:10137000F8EE611A81EEA22A0BE001EE901ADFED81
:101380002B2A00BFF8EE611A116882EEA12AC1F380
:10139000080101EE901A1168F8EE611A40EE811A08
:1013A00071EE800A62EE200AC1F3462101EE101AA6
:1013B000B8EE411A31EE001AC0EE811ABCEEE11A05
:1013C00080ED001A1168C1F3064101EE101AB8EE63
:1013D000411A31EE001AC0EE811ABCEEE11A80ED1E
:1013E000011A1168C1F3066101EE101AB8EE411A34
:1013F00031EE000A80EE801ABCEEC10A80ED020ACE
:1014000030BD04E001EE901ADFED092ABAE70021B1
:10141000016041608160F3E7284402580000003910
:10142000384402580024744A0090D0030024744CBD
:1014300020BCBE4B494930B5484C0B1D0A681C34D2
:1014400009681D68246802F00303C5F30022C1F394
:101450000551C4F3CC04002914FB02F200EE102A5B
:10146000F8EE400A75D03F4A9FED3D1AB7EE000AEC
:101470006BB1DFED3D1A012B01D0022B64D002EEDF
:10148000101A1168F8EE422A81EEA22A21E0334CAC
:10149000283C23689B0612D5344B246801EE901A31
:1014A0001168C4F3C104F8EE612AE34001EE903AFA
:1014B000C1F30801F8EE611A81EEA22A0BE001EEF9
:1014C000901ADFED2B2A00BFF8EE611A116882EE48
:1014D000A12AC1F3080101EE901A1168F8EE611A11
:1014E00040EE811A71EE800A62EE200AC1F34621B5
:1014F00001EE101AB8EE411A31EE001AC0EE811A50
:10150000BCEEE11A80ED001A1168C1F3064101EE4C
:10151000101AB8EE411A31EE001AC0EE811ABCEE74
:10152000E11A80ED011A1168C1F3066101EE101A8B
:10153000B8EE411A31EE000A80EE801ABCEEC10A04
:1015400080ED020A30BD04E001EE901ADFED092AB9
:10155000BAE70021016041608160F3E72844025846
:1015600000000039404402580024744A0090D0031F
:101570000024744C20BCBE4B2DE9FC5F044650F89F
:10158000241B002500902E460801FE4FDFF8F8834B
:101590001DD5606E50B1B0F5801F0CD0B0F5001FA6
:1015A0000ED0B0F5401F1DD001250FE0386840F483
:1015B0000030386016E00221201D01F0B5FB03E089
:1015C0000098022101F040FC05000BD02E46208837
:1015D000C00523D5606D05281ED2DFE800F00C1190
:1015E000161B1B00626ED8F8001021F44011114345
:1015F000C8F80010EBE7386840F40030386009E0C4
:101600000021201D01F090FB03E00098002101F073
:101610001BFC05466DB100E001252E4620888005A3
:1016200028D5A06D80281ED00CDC90B140280ED1AA
:1016300014E0626DD8F8001021F007011143C8F8DA
:101640000010EBE7C02813D0B0F5807F10D0012543
:101650000FE0386840F40030386009E00021201DB8
:1016600001F062FB03E00098002101F0EDFB05466C
:1016700095B12E462088DFF81093400509F108093E
:101680002CD5D4F8A400B0F5800F20D00DDCA0B18B
:10169000B0F5001F0FD115E0A26DD8F8001021F4AD
:1016A000E0711143C8F80010E4E7B0F5C00F13D0A3
:1016B000B0F5000F10D001250FE0386840F400307D
:1016C000386009E00021201D01F02EFB03E00098A6
:1016D000002101F0B9FB054675B12E4620880005B2
:1016E0002DD5D4F8A800B0F1007F21D00EDCA8B130
:1016F000B0F1807F10D116E0D4F8A420D9F8001002
:1017000021F460011143C9F80010E7E7B0F1407F10
:1017100013D0B0F1806F10D001250FE0386840F48D
:101720000030386009E00021201D01F0FDFA03E0DF
:101730000098002101F088FB05466DB12E46206817
:1017400080011FD5A06CD8B110280FD0202812D04E
:10175000302815D0012514E0D4F8A820D9F80010BD
:1017600021F0E0611143C9F80010E8E7386840F45F
:101770000030386004E00221201D01F0D5FA054652
:101780006DB12E462088C0042BD5E06DB0F5005F0A
:1017900020D00DDCA0B1B0F5805F0FD115E07A4804
:1017A000A26C001F016821F0300111430160E9E7DC
:1017B000B0F5405F13D0B0F5804F10D001250FE099
:1017C000386840F40030386009E00021201D01F045
:1017D000ABFA03E00098002101F036FB054685B125
:1017E0002E462088800429D5206EB0F5403F23D0B6
:1017F00010DC08B3B0F5803F14D0B0F5003F0FD136
:1018000015E0E26DD8F8001021F4E0411143C8F86A
:101810000010E6E7B0F5802F0ED0B0F5A02F0BD06A
:1018200001250AE00121201D01F07EFA03E0009865
:10183000012101F009FB05468DB12E4620884004A8
:101840002AD5D4F8AC00B0F1405F23D010DC08B347
:10185000B0F1805F14D0B0F1005F0FD115E0226EBF
:10186000D8F8001021F4E0211143C8F80010E5E792
:10187000B0F1804F0ED0B0F1A04F0BD001250AE09F
:101880000121201D01F050FA03E00098012101F030
:10189000DBFA05466DB12E46208800041FD5E06EA8
:1018A000D8B1B0F1805F0ED0B0F1005F10D001254B
:1018B00014E0D4F8AC20D9F8001021F0E041114335
:1018C000C9F80010E8E7386840F40030386004E0F8
:1018D0000121201D01F028FA05466DB12E46206831
:1018E000C0011ED5606CD0B101280ED0022811D0E5
:1018F000032814D0012513E0E26ED8F8001021F07F
:1019000040511143C8F80010E9E7386840F400304E
:10191000386004E00221201D01F006FA054685B179
:101920002E462068DFF85CB04002ABF11C0B57D5A7
:101930001648016841F480710160FFF7D3FB8246CD
:101940000EE01148626C001F016821F00301114391
:101950000160E6E7FFF7C6FBA0EB0A0064283DD86C
:101960000A480068C005F5D57DBBDFF81CA0B4F8B7
:10197000B0100AF1200ADAF8000001F4407100F416
:10198000407005E02C440258504402580048025868
:10199000884211D0DAF80010DAF8002021F4407102
:1019A00042F48032CAF80020DAF8002022F48032B3
:1019B000CAF80020CAF80010D4F8B000B0F5807F53
:1019C00021D1FFF78FFB019019E008E0FFF78AFBB8
:1019D0000199411A41F28830814210D903252E46DF
:1019E0002078DFF830A4C0073DD0A06F182838D089
:1019F00026DC80B3082829D0102825D12CE0DAF87D
:101A000000008007E2D5D4F8B010C1F3012003280C
:101A100058460DD0016821F47C510160B4F8B02023
:101A2000DAF80010C2F30B021143CAF80010D7E72E
:101A3000F94A036802EA111223F47C511143ECE7DE
:101A400020280ED028280CD001250BE00121201DD4
:101A500001F06AF904E004E00098012101F0F4F9D2
:101A600005465DB12E46207880071ED5606F06289A
:101A700019D2DFE800F0160C11161616A26FDAF86C
:101A8000001021F038011143CAF80010EBE70121E2
:101A9000201D01F049F903E00098012101F0D4F97B
:101AA000054675B100E001252E46207840071FD578
:101AB000D4F89000062819D2DFE800F0160C1116B1
:101AC0001616626FDAF8001021F007011143CAF808
:101AD0000010EAE70121201D01F026F903E000983B
:101AE000012101F0B1F905469DB100E001252E4626
:101AF000207880062BD5D4F88C00B0F1405F24D03C
:101B000011DC10B3B0F1805F15D0B0F1005F10D1DF
:101B100016E0D4F89020D9F8001021F00701114305
:101B2000C9F80010E4E7B0F1804F0ED0B0F1A04F3B
:101B30000BD001250AE00021201D01F0F5F803E09B
:101B40000098022101F080F905468DB12E462078DB
:101B500040062BD5D4F89800B0F5406F24D011DCA6
:101B600010B3B0F5806F15D0B0F5006F10D116E04E
:101B7000D4F88C20DAF8001021F0E0411143CAF8C3
:101B80000010E4E7B0F5805F0ED0B0F5A05F0BD099
:101B900001250AE00021201D01F0C6F803E00098AD
:101BA000022101F051F905468DB12E46207800063C
:101BB0002BD5D4F89C00B0F5C04F24D011DC10B365
:101BC000B0F5005F15D0B0F5804F10D116E0D4F815
:101BD0009820D9F8001021F4E0511143C9F8001001
:101BE000E4E7B0F5004F0ED0B0F5204F0BD0012543
:101BF0000AE00021201D01F097F803E0009802217F
:101C000001F022F905464DB12E46207800071ED579
:101C1000D4F88000B0F5805F0AD00FE0D4F89C20A3
:101C2000D9F8001021F460411143C9F80010ECE725
:101C30000098022101F008F900B10126D4F88020B3
:101C4000DAF8001021F440511143CAF8001020784E
:101C5000C00613D5D4F89400B0F5807F05D1009864
:101C6000022101F0F1F800B10126D4F89420D9F84E
:101C7000001021F440711143C9F8001020680003DE
:101C800016D5D4F8A00038B1B0F5803F09D0B0F532
:101C9000003F0BD001250AE00021201D01F044F88F
:101CA00003E00098022101F0CFF8054685B12E46E9
:101CB0002068400322D5D4F88400B0F5801F11D0ED
:101CC000B0F5001F13D0B0F5401F15D0012514E06A
:101CD000D4F8A020D9F8001021F440311143C9F8FC
:101CE0000010E5E7386840F40030386004E0009800
:101CF000012101F0A9F8054655B12E462068C00320
:101D00001CD5E06C70B1B0F5803F10D0012514E017
:101D1000D4F88420DAF8001021F440111143CAF8F5
:101D20000010EBE7386840F40030386004E002212E
:101D3000201D00F0F9FF0546CDB12E462068800039
:101D400005D50098022101F07FF800B10126206836
:101D500080031BD5E06FB8B1B0F5807F10D0B0F52F
:101D6000007F11D0B0F5407F0ED001250DE029484D
:101D7000E26C0838016821F4803111430160DDE72D
:101D8000386840F400303860F5B32E462068C00251
:101D900007D5226FD8F8001021F000411143C8F890
:101DA00000102068C00008D5D4F8B420DBF800107B
:101DB00021F480411143CBF800102068800207D540
:101DC000A26ED8F8001021F080711143C8F80010FD
:101DD000206840000CD5DBF8001021F40041CBF85E
:101DE0000010DBF80010D4F8B8201143CBF8001035
:101DF0002068002807DA0748226D0838016821F0BA
:101E000040511143016000E008E086B10120BDE8C7
:101E1000FC9F000054440258CFFFFF00E26FDAF845
:101E2000001021F440711143CAF80010AEE7002001
:101E3000EDE700002DE9F05F04000F467ED0DFF8EB
:101E40003882D8F8000000F00F00B8420CD2D8F861
:101E5000001021F00F013943C8F80010D8F8000035
:101E600000F00F00B84269D12078844D40070AD5B0
:101E70002069296801F07001884204D9296821F09D
:101E800070010143296020787C4E361D00070AD579
:101E90006069316801F07001884204D9316821F02D
:101EA0007001014331602078C0060AD5A06931680D
:101EB00001F4E061884204D9316821F4E061014312
:101EC00031602078DFF8B4B180060BF1080B0CD537
:101ED000E1695846DBF8002002F07002914204D913
:101EE000026822F070020A430260207880070AD557
:101EF000E068296801F00F01884204D9296821F0BF
:101F00000F01014329602078C0073ED05B49A268D9
:101F10002868183920F4706010432860606802282F
:101F200018D0032819D00968012819D049070029B9
:101F30004ADADFF848A1AAF1080A00E044E0DAF83A
:101F4000002022F007020243CAF80020FFF7CAF877
:101F5000814612E009688903E9E709688901E6E733
:101F6000C905E4E7FFF7BEF8A0EB090141F28830AC
:101F7000814202D90320BDE8F09F6168DAF80000D1
:101F800000F03800B0EBC10FECD1207880070AD503
:101F9000E068296801F00F01884204D2296821F025
:101FA0000F0101432960D8F80010404601F00F01ED
:101FB000B9420BD9016821F00F0139430160006873
:101FC00000F00F00B84201D00120D4E7207840078C
:101FD0000AD52069296801F07001884204D2296875
:101FE00021F0700101432960207800070AD560695B
:101FF000316801F07001884204D2316821F070012B
:10200000014331602078C0060AD5A069316801F427
:10201000E061884204D2316821F4E061014331601B
:10202000207880060CD5E1695846DBF8002002F0E4
:102030007002914204D2026822F070020A430260E8
:1020400000F06CF80E492A682B68C2F3032203F0F3
:102050000F038A5CC95C02F01F0201F01F01D0402F
:10206000084A20FA01F11160074908600748006832
:10207000BDE8F05FFFF776B8002000521844025820
:102080009E99000804000024000000240C00002495
:1020900030B500F043F80B4A0B490C4B1568146837
:1020A000C5F3032204F00F048A5C095D02F01F02ED
:1020B00001F01F01D040064A20FA01F119601060BA
:1020C000084630BD184402589E99000804000024B8
:1020D0000000002400B5FFF7DBFF05490968054A49
:1020E000C1F30211515C01F01F01C84000BD0000A6
:1020F0001C4402589E99000800B5FFF7C9FF054926
:102100000968054AC1F30221515C01F01F01C84072
:1021100000BD00001C4402589E990008454970B556
:1021200045480968434B103B11F0380208D00111B3
:10213000082A03D0102A0BD0182A0BD0084670BDED
:1021400019688906FBD51968C1F3C101C84070BD83
:102150003A4870BD3749374D18310C1D24350A688F
:10216000096826682D6802F0030406F00102C1F335
:102170000511C5F3CC0515FB02F200EE102AB8EEEE
:10218000400AE9B32F4ADFED2E0AB7EE001A6CB110
:10219000DFED2D1A012C01D0022C43D002EE101AD3
:1021A0001068F8EE422A81EEA22A1EE01C68A406FE
:1021B00011D51B6801EE901A1168C3F3C103F8EE44
:1021C000612AD84001EE900AC1F30800F8EE611AC6
:1021D00081EEA22A0BE001EE901ADFED1C2A00BF6F
:1021E000F8EE611A106882EEA12AC0F3080001EE31
:1021F000900AF8EE611A40EE201A31EE810A00E0F2
:1022000015E022EE000A1068C0F34620401C00EEE4
:10221000900AF8EE600A80EE201ABCEEC10A10EEB9
:10222000100A70BD01EE901ADFED092AD8E70020F0
:1022300070BD0000104402580090D00340787D012A
:1022400000000039304402580024744A0024744CC1
:1022500020BCBE4B2DE9F05F04007CD0FF4F2078FE
:10226000FE4D1837DFF8F493103DC00748D0D9F879
:102270000000396800F03800102815D0182803D164
:1022800001F0030002280FD06068B0F5803F12D043
:1022900010B1B0F5A02F18D0286820F48030286045
:1022A000286820F4802009E02868800328D5606829
:1022B0000028D2D024E0286840F48030286060688C
:1022C00088B1FEF70FFF064609E0286840F4802039
:1022D0002860F0E7FEF706FF801B64287ED8286898
:1022E0008003F7D50CE0FEF7FDFE064605E000BFD3
:1022F000FEF7F8FE801B6428F0D828688003F7D426
:10230000207841F20308D54E0C3E800753D5D9F80A
:102310000000396810F038000ED0182801D1880765
:102320000AD0E068A8B3296821F0190101432960A7
:10233000FEF7D8FE82461BE02868400702D5E06819
:1023400000288AD0FEF7C8FE40451BD820694028E7
:1023500012D0316800E0CCE021F47C3141EA003059
:10236000306028E0FEF7BEFEA0EB0A000228B5D8D8
:1023700028684007F6D5E5E7306820F47C3040F463
:102380000030EDE7207C316821F0FE4141EA006039
:10239000E6E7FFE7286820F001002860FEF7A2FECC
:1023A000824605E0FEF79EFEA0EB0A00022895D8C3
:1023B00028684007F6D42078C0065FD5D9F8000019
:1023C000DFF898B2396800F03800ABF1040B082848
:1023D00012D0182805D101F0030000E0EAE001283E
:1023E0000AD0E0690028286838D040F080002860D2
:1023F000FEF778FE824623E02868C00523D5E06911
:10240000802876D11FE0206A202821D0316821F071
:10241000F84141EA8060306030E000BF94F820105D
:10242000DBF8002022F07C5242EA0161CBF8001078
:1024300024E000BFFEF756FEA0EB0A00022896D863
:102440002868C005F6D5FEF747FE4045E6D8DAE72E
:10245000306820F0F84040F08040DCE720F0800059
:102460002860FEF73FFE064605E000BFFEF73AFE95
:10247000801B02289BD82868C005F7D42078000765
:1024800029D576486169643000298046016811D0F9
:1024900041F001010160FEF725FE064605E000BFA0
:1024A000FEF720FE801B0228C9D8D8F8000080075C
:1024B000F6D510E021F001010160FEF713FE06469B
:1024C00005E000BFFEF70EFE801B022872D8D8F888
:1024D00000008007F6D42078800623D5A069002864
:1024E000286810D040F480502860FEF7FBFD0646B7
:1024F00005E02CE1FEF7F6FD801B02285AD828687B
:102500008004F7D50EE020F480502860FEF7EAFD45
:10251000064604E0FEF7E6FD801B02284AD828683C
:102520008004F7D4207840074FD5DFF83481D8F8FD
:10253000001041F48071C8F80010FEF7D3FD064684
:1025400005E000BFFEF7CEFD801B642832D8D8F826
:102550000000C005F6D5414EA068603601280AD0BB
:1025600008B1052813D0306820F0010030603068D1
:1025700020F0040002E0306840F001003060A06804
:1025800041F2883A90B1FEF7ADFD80460AE030682E
:1025900040F004003060EEE7FEF7A4FDA0EB080178
:1025A000514507D830688007F6D50EE0FEF79AFD52
:1025B000804607E084E000BFFEF794FDA0EB080131
:1025C00051457DD830688007F6D4606AF0B3DFF8F3
:1025D0008C80D9F8001008F12008C1F3C20103294A
:1025E0006FD00228286820F08070286003D0FEF7A2
:1025F00079FD044680E0FEF775FD064605E000BF64
:10260000FEF770FD801B022873D828688001F7D47C
:10261000E26A40F2F331386854F8283F884340EAD0
:10262000021018433860217B4FF4FE0C22894FF0D2
:10263000FE47208A4902267D521E401EA1F50071E8
:1026400089B20CEA0040C2F3080200E081E01143C5
:10265000761E0143014807EA066203E0104402586F
:10266000004802581C3011433B4AC8F8001001686A
:1026700021F00101016011684FF6F876236AB14339
:1026800041EAC30111600168A26921F00C01114304
:1026900001600168E26921F00201114301600168F3
:1026A00041F480310160016841F40031016001684A
:1026B00041F480210160016841F00101016001E005
:1026C00017E01DE0286840F080702860FEF70AFDE2
:1026D000044604E0FEF706FD001B022809D828681E
:1026E0008001F7D535E000BFFEF7FCFC001B022897
:1026F00002D90320BDE8F09F28688001F4D428E0C7
:1027000039680128D8F8000021D0A26A01F003033B
:1027100093421CD1E26AC1F305118A4217D1216BA1
:10272000C0F30802491E8A4211D1616BC0F34622F0
:10273000491E91420BD1A16BC0F30642491E914242
:1027400005D1E16BC0F30660491E814201D0012032
:10275000D0E70020CEE70000344402580068503033
:1027600050F8210070470068503040F82120704731
:1027700010B50B4601680F48002A496801EA0001BC
:1027800001F03F044FEA1140D870C1F304225A709F
:102790009C70C1F3423119700AD100F0E5FBD8708A
:1027A000587800F0E1FB5870987800F0DDFB9870E5
:1027B000002010BD3FFFFF0010B50B460168134C11
:1027C000002A896A596001680969C1F30E0199609C
:1027D0000068016801EA040101F07F04C1F30540CB
:1027E0001870C1F306225A709C704FEA9151D9704B
:1027F0000AD100F0B9FB1870587800F0B5FB58709A
:10280000987800F0B1FB9870002010BD7F7F7F00AA
:1028100070B504004FF0010041D094F8210028B9B0
:10282000002084F82000204600F03CF8022184F8C3
:102830002110CA202268532150622068416220463C
:1028400000F0A8FB18BB2068154A81681140816020
:10285000D4E90013A569226988682A431843104304
:10286000886022682189E06840EA014010612046C2
:1028700000F0B2FB58B92168CA6C22F00302CA64A6
:1028800022686369E169D56C19432943D1642268E0
:10289000FF215162002802D1012184F8211070BD6E
:1028A000BFFF8FFF7047000070B5044690F820000E
:1028B0000B4601281BD0012684F82060022084F8F2
:1028C00021005878AAB1DA78000299781B7841EA99
:1028D000024540EA433005432268CA215320516231
:1028E00021684862204600F055FBC8B11FE0022075
:1028F00070BDC10603D500F0EF000A305870D878DB
:1029000000F03BFB0204587800F037FB42EA00225B
:10291000987800F032FB1978024342EA4135DBE750
:102920002168084805404D60204600F055FB2268AC
:10293000FF21516208B984F82160002184F8201039
:1029400070BD00003FFFFF002DE9F041044690F804
:10295000200090460D46012812D0012784F82070EF
:10296000022184F82110CA20226853215062206875
:102970004162204600F00EFB4FF0000618B12AE03D
:102980000220BDE8F0812068B8F1000F80684FEAAE
:10299000406025D0002800DBEE7068782A78A9789E
:1029A000EB784FEA002C41EA02404CEA835108439D
:1029B00022681849084010602068816821F480214D
:1029C00081602168D5E903028B6810431843886051
:1029D000204600F001FB2268FF215162A0B115E002
:1029E000002800DBEE70287800F0C7FA020468784F
:1029F00000F0C3FA42EA0022A87800F0BEFAE978B3
:102A0000024342EA8150D3E784F8217084F82060C1
:102A1000B7E700007F7F7F0070B504460068C1689B
:102A200021F0A001C160FEF75DFB4FF47A76054608
:102A300007E000BFFEF756FB401BB04201D9032060
:102A400070BD2068C0688006F4D5002070BD0428E1
:102A50004FF0E020016903D021F0040101617047CB
:102A600041F00401FAE7401EB0F1807F10B501D3B8
:102A7000012010BD4FF0E02460610F21601700F0CD
:102A8000E8FE0020A0610721216110BD70B504009F
:102A90001BD02420C4F8800000252068016821F0A4
:102AA000010101602068056020684560206885603C
:102AB000204600F043F8C4F88850C4F88050C4F8A9
:102AC0008450002084F87C5070BD012070BD704798
:102AD00010B5040003D0D4F8800010B107E0012045
:102AE00010BD002084F87C00204600F053F824201C
:102AF000C4F880002068016821F0010101602046CF
:102B000000F07CFC0128EBD0A06A10B1204600F058
:102B10007DFB2068416821F4904141602068816814
:102B200021F02A0181602068016841F00101016003
:102B30002046BDE8104000F0CDBB000010B5104AA3
:102B400001681048914206D10F490A6822F0080234
:102B50000A60C0210EE00D4A91420FD10A490C399A
:102B60000A6822F400220A604FF48071FEF7BCF874
:102B700007480121BDE81040FEF7B6B810BD0000BF
:102B8000000C005800040258F4440258004C004065
:102B9000000002582DE9F04186B004461421684631
:102BA000FDF782FC206802262C4A01252A490324CD
:102BB000DFF8AC8090421AD127481430026842F006
:102BC00008020260006800F008000590086840F004
:102BD0000100086008686946CDE9025400F0010070
:102BE000059060020494CDE9000640462EE01D4A9F
:102BF00090422DD118480830026842F40022026049
:102C0000006800F400200590086840F480700860B7
:102C1000086800F480700590086840F001000860C2
:102C200008680827CDE9025400F001000590B801BA
:102C30006946CDE900060C480497FEF72BF9CDE96B
:102C40000056CDE90254694640460497FEF722F942
:102C500006B0BDE8F0810000E0440258000C0058C6
:102C600000000258004C00400020025870B5044695
:102C7000D0F8800020283FD181B37AB394F87C004B
:102C8000012839D0A4F85420A4F856200025606FFC
:102C900001232165212184F87C30C4F88850C4F8D0
:102CA0008010E8B115491346C163616F1448086488
:102CB000616F1448C864606F05652068666F00F135
:102CC0002802216D3046FDF7C1FE48B11021C4F83D
:102CD0008810202084F87C50C4F88000012070BD4A
:102CE00021684020086284F87C502068816841F0A7
:102CF00080018160002070BD022070BD813300081A
:102D0000AF330008333300087047704710B504F044
:102D10006BF8034806F078FDBDE8104004F082B877
:102D200024080024704700002DE9F047454D044673
:102D300089464FF0000A2868C04380070AD0414EF8
:102D4000283E306820F080603060FEF7CBF90746FF
:102D5000B04608E00120BDE8F08700BFFEF7C2F9E9
:102D6000C01B022867D8D8F800000001F6D42068FC
:102D700029684FF4FE0721F47C313E0241EA00301D
:102D80002860207AA389B4F804C040022D4D2D4953
:102D90005B1E227CACF1010C1035091DA0F5007002
:102DA00080B2521ECCF3080C07EA034340EA0C0041
:102DB000184306EA0262104328600868626920F03E
:102DC000C000104308600A68A06922F02002024394
:102DD0000A60281D0A6822F010020A6002684FF695
:102DE000F873E4699A4342EAC40202600868B9F1E0
:102DF000000F40F010020A6011D00868B9F1010F0D
:102E000011D040F400100860D8F80000444640F0AB
:102E10008060C8F80000FEF765F905460DE0086817
:102E200040F40020EFE740F48010ECE7FEF75AF999
:102E3000401B022801D903208DE720680001F5D549
:102E4000504688E7284402582DE9F047454D04468E
:102E500089464FF0000A2868C04380070AD0414ED7
:102E6000283E306820F080503060FEF73BF907467E
:102E7000B04608E00120BDE8F08700BFFEF732F958
:102E8000C01B022867D8D8F800008000F6D420883C
:102E900029684FF4FE0721F07C713E0241EA0050A0
:102EA0002860207AA389B4F804C040022D4D2D4932
:102EB0005B1E227CACF1010C1835091DA0F50070D9
:102EC00080B2521ECCF3080C07EA034340EA0C0020
:102ED000184306EA0262104328600868626920F419
:102EE0004060104308600A68A06922F4007202433F
:102EF0000A60281D0A6822F480720A6002684FF690
:102F0000F873E4699A4342EAC40202600868B9F1BE
:102F1000000F40F480720A6011D00868B9F1010F07
:102F200011D040F080700860D8F80000444640F0AE
:102F30008050C8F80000FEF7D5F805460DE0086897
:102F400040F48000EFE740F40000ECE7FEF7CAF839
:102F5000401B022801D903208DE720688000F5D5A9
:102F6000504688E728440258020900F00F0102EB9E
:102F7000820001EB4000C0B270470146002002E031
:102F80000A39401CC9B20A29FAD2000741EA106086
:102F9000704700002DE9F041044600680025C16833
:102FA000490615D4691EC160FEF79CF80327064642
:102FB0004FF47A7808E000BFFEF794F8801B404594
:102FC00002D9032584F821702068C0684006F3D533
:102FD0002846BDE8F08100002DE9F041124C03279E
:102FE00006460025E06820F04000E060A06880060A
:102FF00007D43046FFF710FD90B1032586F8217005
:103000000EE0A06820F02000A0603046FFF704FD2D
:1030100010B1032586F82170A06840F02000A06060
:103020002846BDE8F081000000400058704710B508
:1030300003F0DAFEFEF760F805F002FCBDE8104090
:1030400003F0F0BEF0B5CBB04C212FA8FDF72CFA61
:10305000202142A8FDF728FABC216846FDF724FA92
:103060000220FEF7DFF8264800242649026842F4D1
:103070004042026002680A6842F001020A60096880
:1030800001F001014A9101688904FCD5FEF7F4F8CA
:10309000FEF722F81C4A0521022013680825C60302
:1030A00023F018071760012331933890C022CDE92F
:1030B0002F1639AE86E807003C903D903E902FA831
:1030C000CDE93F544194FFF7C5F840203F2103016B
:1030D000CDE945500322CDE9470342AB499042A8D0
:1030E00083E816000421FEF7A5FE08486901139441
:1030F00024942C9100906846FEF73EFA4BB0F0BD48
:10310000184802582C04005870440258040041002A
:103110002E48F0B52E4A016841F470010160106834
:1031200000F00F00072804D2106820F00F00C01D27
:10313000106028490020274C10340B68264D43F0BE
:1031400001030B6020600B682B400B60136803F0D9
:103150000F03072B04D9136823F00F03DB1D136043
:103160001C4C1E4A18341E4B261D371D2060194C5E
:103170001C4D28343060261D3860371D23603B1DF0
:1031800035601C1D3A60251D2E1D1860331D226000
:103190002860326018600A680E4B134C22F48022BB
:1031A00060330A60186020686FF30F00B0F1005FB1
:1031B00003D20E490120C1F8080143F2D2000C49A4
:1031C000024B4A03803B08601A60F0BD88ED00E0C6
:1031D00000200052004402587FEDF6EA800201010F
:1031E000000202020000FF010010005C008000519C
:1031F0000040005210B503F0F7FD034806F004FB51
:10320000BDE8104003F00EBE3C07002490F82810E3
:10321000C90706D00168C36A4A6822F400321A431B
:103220004A6090F82810890706D50168036B4A6840
:1032300022F480321A434A6090F82810490706D5D4
:103240000168436B4A6822F480221A434A6090F86E
:103250002810090706D50168836B4A6822F40042EA
:103260001A434A6090F82810C90606D50168C36B56
:103270008A6822F480521A438A6090F828108906DE
:1032800006D50168036C8A6822F400521A438A60EA
:1032900090F82810490611D50168436C4A6822F459
:1032A00080121A434A60416CB1F5801F06D1016853
:1032B000836C4A6822F4C0021A434A6090F82810CE
:1032C000090606D50168C26C486820F40020104346
:1032D00048607047F8B500260446C0F88860FDF7DE
:1032E00001FF054620686FF07E470068000708D59B
:1032F00000222B464FF400112046009700F056FAAA
:1033000060B92068006840070AD500222B464FF4B8
:1033100080012046009700F049FA08B10320F8BD6B
:103320002020C4F8800084F87C60C4F88400002069
:10333000F8BD70B5846B00252168D4F88000D4F8FE
:1033400084608968090606D5212804D1A4F856505E
:10335000204600F045F820688068400606D5222EF9
:1033600004D1A4F85E50204600F026F8D4F8880076
:1033700040F01000C4F888002046FFF7A8FB70BD9D
:1033800010B5C169806BB1F5807F0DD00021A0F828
:10339000561001688A6822F080028A60006801681D
:1033A00041F04001016010BDFFF7AEFC10BD10B54B
:1033B000806BFFF7AAFC10BD30B501682023074DD4
:1033C00000240A6822F490720A6001688A682A4020
:1033D0008A60C0F88430C46630BD0000FEFFFFEF95
:1033E000016820220B6823F0C0030B6001688B6822
:1033F00023F400038B60C0F8802070472DE9F04370
:1034000004468068D94F87B02268D4E90465E3692F
:10341000616E304316681D432843D54B0025014398
:103420003E400E4316602068E268416821F4405136
:10343000114341602268A1699A4201D0206A014388
:103440009668DFF830C3CC4FCC4806EA0C060E4332
:1034500096602168666ACA6A22F00F023243CA6225
:103460002268BA420ED1006800F03800182873D0E4
:1034700047DCB8B3082879D010286FD178E0282825
:103480007ED17BE0BE498A4209D1006800F0070086
:10349000062875D2DFE800F0546A6C6E7072B94984
:1034A0008A4209D1006800F00700062868D2DFE8E8
:1034B00000F0475D5F616365B3498A4209D10068E6
:1034C00000F0070006285BD2DFE800F03A505254C3
:1034D0005658AE498A420BD1006800F00700062812
:1034E0004ED200E010E0DFE800F02B4143454749B1
:1034F000A7498A420AD1006800F03800182839D05C
:10350000B7DD2028BBD13CE001203AE0A1498A4246
:1035100009D1006800F00700062831D2DFE800F08A
:103520001026282A2C2E9C498A420BD1006800F0D4
:103530000700062824D2DFE800F003191B1D1F2115
:1035400000201EE09A421BD18C48001D006800F04C
:103550000700062814D202E00CE007E010E0DFE8E4
:1035600000F0030507090B0D02200AE0042008E023
:10357000082006E0102004E0202002E0402000E0C7
:1035800080208649DFF818829A42864A4FF4004329
:103590004FEA21174FF000064ED110281AD006DC52
:1035A000022809D004280BD008287DD10DE020285E
:1035B0003ED0402878D13DE0FDF788FE014610E07E
:1035C0006846FDF795FE01990BE003A8FDF732FF71
:1035D000049906E01068800604D51068C0F3C100A5
:1035E000C140C1B3606A676838F8102007EB470331
:1035F000B1FBF2F0834257D8B0EB073F54D8002319
:1036000008461946FCF706FF0902020241EA10616A
:1036100070084FEA370010183A4671410023FCF752
:10362000F9FE614AA0F5407191423DD821684CE015
:103630003946D7E71946D5E7D4F81CC04FF6EF79DD
:103640009C4552D108281AD006DC60B101280DD063
:10365000042829D10EE039E0102815D0202840D0C8
:1036600040287CD13FE0FEF735FD01E0FEF744FD48
:10367000014610E06846FDF73BFE01990BE003A808
:10368000FDF7D8FE049906E01068800604D510689E
:10369000C0F3C100C140C9B1636A606838F8133033
:1036A000B1FBF3F1490000E059E001EB5001B1FB3F
:1036B000F0F080B2A0F11001494550D84FF6F073F8
:1036C0002168C0F3420218401043C8600120A4F8EA
:1036D0006A00A4F868002846E666266707B0BDE8D9
:1036E000F0833946D8E71946D6E7082819D005DC13
:1036F00058B101280CD0042831D10DE0102815D084
:1037000020282ED040282AD12DE0FEF7E3FC01E04E
:10371000FEF7F2FC014610E06846FDF7E9FD01996D
:103720000BE003A8FDF786FE049906E0106880060A
:1037300005D51068C0F3C100C1400029C6D0636A36
:10374000606838F81330B1FBF3F101EB5001B1FBC5
:10375000F0F080B2A0F1100149457FF667AF012576
:10376000B4E73946EBE71946E9E70000F369FFCF14
:10377000000C0058FFF4FF1100100140544402589F
:103780000044004000480040004C00400050004011
:103790000014014000780040007C00400090D003FD
:1037A000AE99000800440258FFFC0F002DE9F047D5
:1037B0009A4617460E460446089D4FF000094FF002
:1037C000200839E0681C37D0FDF78CFCA0EB0A001C
:1037D000A84222D80DB32068016849072CD5C069DA
:1037E000C043000528D423684FF4006119622168A2
:1037F0000B6823F4D0730B6021688B6823F00103FE
:103800008B60C4F88080C4F88480C4F8888000BFCE
:10381000032084F87C90BDE8F08721680B6823F4CE
:10382000D0730B6021688B6823F001038B60C4F8B0
:103830008080C4F88480EBE72068C06936EA000025
:1038400004D00020B842BDD00020E4E70120F9E711
:10385000FEE7090700284FEA116104DB00F1E020D0
:1038600080F80014704700F00F0000F1E02080F8AD
:10387000141D7047004870474802002481070CD18E
:10388000642190FBF1F201FB120141B94FF4C871C0
:1038900090FBF1F201FB120008B1002070470120FB
:1038A000704702E008C8121F08C1002AFAD1704709
:1038B0007047002001E001C1121F002AFBD17047B0
:1038C00010B5044605484068FCF7F0FC0449401E6A
:1038D00051F830102060A1F1140010BDF400002454
:1038E0007C04002403480168814201D00120704714
:1038F00000207047040100242DE9F04F0600174610
:103900008BB08B464FF0000405D1264926A04FF41A
:103910009B7202F0ADF93FB9224924A040F2371260
:1039200002F0A6F900E0641C305D202803D00928CD
:1039300001D05C45F7D34FF0FF3984B31E4804F142
:10394000060ADFF87080056811E0286806221BA1CE
:10395000FCF7EAFD50B9286822463146801DFCF785
:10396000E3FD18B9296811F80A0028B10C35D8F818
:1039700000008542E9D313E0AC6884B12821684691
:10398000FCF792FD6A465946304601F0B7FF30B168
:103990006946A047386000200BB0BDE8F08FFFE714
:1039A0004846F9E7649F0008636D640072657470AF
:1039B00000000000400100243C0100245F5F636DB3
:1039C000645F000070B50500144604D10849372231
:1039D00008A002F04DF93CB1286C62882188036888
:1039E00028469847002070BD4FF0FF3070BD0000A2
:1039F000D2A0000870696E20213D2052545F4E55C0
:103A00004C4C000070B504001E46154604D109490F
:103A1000182209A002F02CF90DB1042E01D00020CB
:103A200070BD206C298882682046904768803046A7
:103A300070BD0000BDA0000870696E20213D2052BD
:103A4000545F4E554C4C000070B504001E461546A0
:103A500004D10949272209A002F00AF90DB1042E68
:103A600001D0002070BD206C6A88298843682046F8
:103A70009847304670BD0000C7A0000870696E20EE
:103A8000213D2052545F4E554C4C000010B50400AF
:103A900004D112494F2212A002F0EAF8A06A01787C
:103AA000232906D1E169814203D9E26A02448A42AC
:103AB0000AD210A0214603F0F9F901F0A9FBFCF7A6
:103AC0000FFC0028FDD110BD20308142FBD82146DB
:103AD000BDE810400EA003F0E9B90000939D000876
:103AE00074687265616420213D2052545F4E554CCC
:103AF0004C0000007468726561643A257320737429
:103B000061636B206F766572666C6F770A000000E8
:103B10007761726E696E673A2025732073746163F2
:103B20006B20697320636C6F736520746F20656E02
:103B300064206F6620737461636B206164647265D6
:103B400073732E0A000000002DE9FC411F46044655
:103B50001430DDE90831DDE90A654060006018468F
:103B6000C4E90827C4E90A310A46232103F011FBFE
:103B700004F120000FC81A44144B121F03F0B6F8CA
:103B8000202EE06104D31249952212A002F070F8B1
:103B900084F83660002084F8356023466564194651
:103BA000A063A564206384F83400A067E067124A2C
:103BB0000090019004F14C0004F07AFF0F488168F6
:103BC00009B1204688470020BDE8FC8199820008A1
:103BD000E19D00087072696F72697479203C20520F
:103BE000545F5448524541445F5052494F524954E2
:103BF000595F4D41580000004D8700080C0100241A
:103C000030B50025039C24F0010444721C3080E888
:103C10002E0008384060006030BDD0E905124A60CF
:103C2000F0E9051211604060006070472DE9F0472F
:103C3000060015460F4605D11E494FF484721E48F2
:103C400002F016F8F46CA8464FF0000A64BB19495C
:103C50004FF4867219A002F00BF825E0FCF740FB48
:103C6000A2880146E088904201D1A26882B123680F
:103C7000421C92B213F80090E280B06CC0F38F2027
:103C8000824201D3A4F806A0A068012804D005E070
:103C90000846FCF729FB09E0C4F808A00846FCF731
:103CA00023FB6D1E07F8019B002DD7D1A8EB050063
:103CB000BDE8F08719A00008087F000872785F66E9
:103CC00069666F20213D2052545F4E554C4C0000D8
:103CD0002DE9F047050014460E4605D11A494FF468
:103CE0009C721A4801F0C4FFD5F8508027464FF067
:103CF000FF395FEA08001CD113494FF49E7214A0EB
:103D000001F0B6FF15E030780A2809D1287E400678
:103D100006D5286C0D21826828469047401C0DD09E
:103D2000286C3178826828469047401C06D0641E73
:103D3000761C002CE7D13846BDE8F087494640465E
:103D400002F02CF8F5E7000028A00008087F000822
:103D5000747820213D2052545F4E554C4C00000099
:103D6000014900F003B80000D00800242DE9F0411B
:103D70000C4621490546806951F820001D3120601C
:103D8000286951F82000606004F10800E96801F03A
:103D90001DFE207A2026302800D1267204F10B0067
:103DA000A672A96801F012FE3A276773696804F1E8
:103DB0000E0001F00BFE277404F11100296801F0D8
:103DC00005FEE6746426686900F26C7090FBF6F1FB
:103DD00004F1140001F0FAFD686900F26C7090FBC8
:103DE000F6F106FB110104F1160001F0EFFD0A20C7
:103DF00020762046BDE8F08198A200080122014605
:103E00005FF0000002FA00F38B4204D0401C20282F
:103E1000F8DB4FF0FF3070471BA010B503F046F8F9
:103E20001C4C21781CA003F041F82078C00702D078
:103E30001FA003F03BF82078800702D51FA003F0F5
:103E400035F82078400702D51FA003F02FF820781E
:103E5000000702D520A003F029F82078C00602D57B
:103E600020A003F023F82078000607D509480F307A
:103E700001681EA0BDE8104003F018B8BDE810406E
:103E80001EA003F013B80000627573206661756CA4
:103E9000743A0A0029ED00E05343425F434653520F
:103EA0005F424653523A30782530325820000000A5
:103EB000494255534552522000000000505245439C
:103EC0004953455252200000494D505245434953F1
:103ED0004552522000000000554E53544B4552525B
:103EE0002000000053544B45525220005343422DB2
:103EF0003E424641523A253038580A000A00000036
:103F000002A010B502F0D2FF002010BD1B5B324AA8
:103F10001B5B480010B500F0FFFE002010BD10B57F
:103F200001F076F9002010BD10B501F0EFFABDE800
:103F30001040FFF715BF00002DE9F84301280C469B
:103F400021D0072852D36068FCF7FDFA1FFA80F9E8
:103F5000A068FCF7F8FAC6B2E068FCF7F4FAC5B25C
:103F60002069FCF7F0FA00F0FF086069FCF7EBFA53
:103F7000C7B2A069FCF7E7FAA9F5FA616429C2B2F1
:103F80000FD31DA024E0002005F01CFC0090684623
:103F9000FFF7CAFF1921024620A002F087FFBDE803
:103FA000F8830EB10C2E01D91EA011E00DB11F2D0A
:103FB00001D924A00CE0B8F1170F404601D928A080
:103FC00006E03B2F01D92EA002E03B2A04D934A001
:103FD000BDE8F84302F06ABF394605F065F82A46A5
:103FE00031464846BDE8F84304F0ECBF34A002F087
:103FF0005DFF42A0ECE700007965617220697320E3
:104000006F7574206F662072616E6765205B323059
:1040100030302D323039395D0A000000252E2A73E8
:10402000000000006D6F6E7468206973206F7574F6
:10403000206F662072616E6765205B312D31325DC5
:104040000A000000646179206973206F7574206F25
:10405000662072616E6765205B312D33315D0A0029
:10406000686F7572206973206F7574206F66207297
:10407000616E6765205B302D32335D0A0000000001
:104080006D696E757465206973206F7574206F6635
:104090002072616E6765205B302D35395D0A000046
:1040A0007365636F6E64206973206F7574206F662B
:1040B0002072616E6765205B302D35395D0A000026
:1040C000706C6561736520696E7075743A20646107
:1040D0007465205B79656172206D6F6E7468206411
:1040E000617920686F7572206D696E207365635DFC
:1040F000206F7220646174650A000000652E673AC3
:104100002064617465203230313820303120303104
:10411000203233203539203539206F7220646174A4
:10412000650A0000104810B5416991F8211089070F
:1041300003D40E490020087013E0016921B10B4837
:104140008022FCF7C8F90CE001F0D6FB08B108A109
:1041500000E009A10548FCF7DEF9044808A1FCF7D6
:10416000AEF9024810BD00003C0100247C0500248B
:104170006D7368200000000066696E73682000009F
:104180003E00000010B5064C606920B90549BE220A
:1041900005A001F06DFD606903F0F8FB002010BD83
:1041A0003C010024AC9F00087368656C6C20213DC5
:1041B0002052545F4E554C4C0000000070B5244C0A
:1041C0000646606920B92349D12223A001F050FDA1
:1041D000304601F059FF050033D0606900F580508A
:1041E000D0F8AC00A84232D040F24311284601F08A
:1041F00089FF00282BD1606900F58050D0F8AC0011
:1042000048B101F0A1FE6069002100F58050D0F8AE
:10421000AC0002F0ABF8626941F226008121104443
:10422000FCF742F960690021A0F6587000F50050D3
:104230000180418045602846BDE870400B4902F08E
:1042400095B83146BDE8704009A002F02FBE70BDA0
:104250003C010024B99F00087368656C6C20213D07
:104260002052545F4E554C4C000000008541000820
:1042700066696E73683A2063616E206E6F742066A3
:10428000696E64206465766963653A2025730A0067
:1042900070B5084C0546606920B90749A32207A0FC
:1042A00001F0E6FC606990F8211065F3410180F8A7
:1042B000211070BD3C010024889F00087368656C64
:1042C0006C20213D2052545F4E554C4C00000000A4
:1042D000014AC2E9000170473C0100247CB516493F
:1042E0001648FFF7F5FF012041F2B00101F0F6FC9E
:1042F000134C6061D0B10A2114200022CDE90001E5
:1043000010494FF4004310A003F0A1FF002305461D
:1043100060690FA11A4603F003FB0120FFF7B8FF05
:1043200015B1284604F04EF900207CBD0AA002F029
:10433000BDFD4FF0FF307CBD98AE0008D0AC00084A
:104340003C01002471430008747368656C6C0000C4
:1043500073687278000000006E6F206D656D6F727B
:104360007920666F72207368656C6C0A000000002B
:10437000E24C41F2AC0108B5606990F8212042F0AE
:10438000010280F82120085820B901F0BFFD08B1D2
:10439000FFF714FFFFF7C6FE02F088FD5FF000068E
:1043A0004FF0FF3941F2270B41F2260A8DF80060E9
:1043B000606920B9D249AF22D2A001F059FC4D4624
:1043C000606901236A4600F580502946D0F8AC00A8
:1043D00001F05AFF012804D06069294603F020FB50
:1043E000EEE79DF80050002DE0DB1B2D08D0606942
:1043F000274690F82010012907D002290ED017E097
:104400006169012081F82000D0E75B2D02D080F89F
:1044100020600DE0022180F82010C7E7412D80F8D0
:10442000206046D0422D4CD0442D72D0432D6DD00B
:10443000002DBBD0FF2DB9D0092D68D07F2D67D0BE
:10444000082D65D00D2D76D00A2DFCD000F58051B9
:10445000B1F8A820802A01D3A1F8A860B1F8AA3049
:10446000B1F8A8108B4267D200EB0B0CD046CA1AE9
:104470004044191803EB0C0002F072FE786900F555
:1044800080524044B2F8AA100D54786990F8211077
:10449000C90707D041F2AA02125A404411189EA03F
:1044A00002F004FD7869B84600F58050B0F8AA50D3
:1044B000F9E0418C19B1491E89B241840EE046846D
:1044C00074E7818C428C0B46491E8A4202DA521CE8
:1044D000428402E0002B97D04184418C55468022D3
:1044E00000EBC11126312844FBF7C5FF7869284449
:1044F000FBF7FDFF0246786900F58051A1F8A8207E
:10450000A1F8AA2004F0FCFD50E702E015E02AE043
:1045100057E000F58050B0F8AA000028D0D07FA066
:1045200002F0C4FC7969A1F6567101F500510888C2
:10453000401E08803AE78BE0BEE000F58052B2F8FA
:10454000AA10B2F8A8209142BAD25044095C74A0D3
:1045500002F0ACFC7869A0F6567000F500500188B6
:10456000491C018022E7002503E06CA002F09EFCBC
:104570006D1C786900F58050B0F8AA00A842F4DC00
:10458000786900EB0A0567A002F090FC01F0B4F92D
:10459000012802D1284601F0EBF8FFF7C3FD2A46B7
:1045A000014661A002F082FC796901EB0A00FBF789
:1045B0009EFF7969A1F6587101F500510880488085
:1045C000F4E600F58051B1F8AA20002A9CD031F819
:1045D000A85F521E93B26D1E4B80AAB20A809A4207
:1045E0002BD900EB0B0155462844D21A1944184424
:1045F00002F0B6FD786900F580512844B1F8A810A2
:104600000E547869411900F58050B0F8AA000144B1
:1046100047A002F04BFC786900F58050B0F8AA5032
:1046200003E03EA002F042FC6D1C786900F580506A
:10463000B0F8A800A84295DBF3E73FA002F036FCF3
:10464000786900F580525044B2F8A8100E54ADE6D7
:1046500004F06CFD01F050F901280ED1786990F852
:104660002100C00702D02FA002F020FC786941F29F
:10467000A801095A504401F0D1F8FFF753FD02F0A8
:1046800015FC7A69812102EB0A00FBF70DFF7869BE
:10469000A0F6587000F500500680468086E61FA000
:1046A00002F004FC6D1CD8F8140000F58050B0F83E
:1046B000A800A842F3DC0AE050440D54786990F851
:1046C0002100C00703D016A0294602F0EFFB78694D
:1046D000A0F6587000F500500188491C89B201808D
:1046E0008029418801F101014180A0F1A800AED3E9
:1046F000A0F8A860A0F8AA6058E600003C010024D9
:104700009E9F00087368656C6C20213D2052545FA9
:104710004E554C4C000000002573000008000000BE
:10472000256300000A0000002573257300000000C7
:104730000825732020080000082008002DE9F04318
:104740002B4E0B46016805463C2040F2B274B1FB8B
:10475000F6F207274FF4B77840F26D1906FB1212F4
:10476000B2FBF0FCB2FBF0F100FB1C22B1FBF0FC51
:104770001A6000FB1C1CB1FBF0F0C3E901C0286803
:10478000B0FBF6F5281DB0FBF7F107FB11009861AF
:104790002046FFF773F808B1404600E048468542DE
:1047A00002D32D1A641CF3E7DD610121A4F26C70C1
:1047B000D96058612046FFF761F80E4930B13A2DB3
:1047C00004D93B2D01D10220D8606D1E0B2001E0E1
:1047D000401E03D031F91020AA42F9D8186131F9EE
:1047E0001000DA68281A1044D8601846BDE8F08333
:1047F000805101007EA2000810B5124C206880078D
:1048000002D511A002F052FB2068400011D50D48DE
:10481000C01E007808B1FFF7FFFA0A48001F0078B1
:1048200008B100F095FE0748801E008808B105F029
:1048300049F82068002804DABDE8104008A002F01A
:1048400035BB10BD2CED00E06661696C65642076B7
:104850006563746F722066657463680A0000000007
:104860006465627567206576656E740A00000000F5
:1048700002A010B502F01AFB002010BD48656C6C58
:104880006F2052542D546872656164210A00000043
:1048900070B50CA002F00AFB10480F4D04680BE045
:1048A000206802220EA1FBF73FFE20B1D4E90012DE
:1048B0000CA002F0FBFA0C3428688442F0D30020EC
:1048C00070BD00002D2D46756E6374696F6E204CAF
:1048D0006973743A0A000000400100243C0100247E
:1048E0005F5F0000252D313673202D2D2025730AA2
:1048F00000000000002008B504F064FF0090684646
:10490000FFF712FB1921024601A002F0CFFA08BD01
:10491000252E2A730A0000002DE9F04194B00026EC
:104920000823092122A40BAA04A800F00FF90820EB
:1049300022468046014620A002F0B8FA404601F027
:1049400053F827A002F0B2FA2E4F04A9304600F027
:104950000FF90025064622E00BA850F825400C3C34
:10496000FBF7BEFC227A9DF8181022F080028A42E2
:1049700002D0FBF7B9FC11E0FBF7B6FC207D234623
:10498000A17E152802D857F8200000E0786D082293
:10499000CDE900011CA0414602F088FA6D1C089880
:1049A000A842D9DC002ED0D114B00020BDE8F0819F
:1049B0006465766963650000252D2A2E732020200A
:1049C00020202020202074797065202020202020A5
:1049D00020202072656620636F756E740A000000E7
:1049E000202D2D2D2D2D2D2D2D2D2D2D2D2D2D2D04
:1049F0002D2D2D2D2D202D2D2D2D2D2D2D2D2D2DF4
:104A00000A0000000C9F0008252D2A2E2A7320255D
:104A10002D32307320252D38640A00002DE9F04135
:104A200094B00026082304212AA40BAA04A800F0AD
:104A30008DF8082022468046014628A002F036FA6A
:104A4000404600F0D1FF2EA002F030FA04A9304613
:104A500000F08EF80025064632E00BA850F82540FD
:104A60000C3CFBF73DFC227A9DF8181022F08002E6
:104A70008A4202D0FBF738FC21E0FBF735FC606985
:104A800004F11407B84212D0384602F04FFAE16937
:104A90000822CDE9001022A02346414602F006FA82
:104AA000384604F097FB15A002F000FA07E0E06931
:104AB00008222346414600901FA002F0F7F96D1C22
:104AC0000898A842C9DC002EC0D114B00020BDE86F
:104AD000F08100006576656E74000000252D2A2E99
:104AE00073202020202020736574202020207375DF
:104AF0007370656E64207468726561640A000000FA
:104B000020202D2D2D2D2D2D2D2D2D2D202D2D2DFC
:104B10002D2D2D2D2D2D2D2D2D2D2D0A000000009C
:104B2000252D2A2E2A73202030782530387820250C
:104B30003033643A00000000252D2A2E2A732020ED
:104B400030782530387820300A0000002DE9F04117
:104B50001E46174604460D46084602F01FFC00217B
:104B6000001D206025726760C4E90361BDE8F08123
:104B70002DE9F0410D46CA680021296192B1297AD8
:104B800081B12E6888B10446FBF7AAFB01462A7A58
:104B9000A4F10C00007A20F08000904209D0084671
:104BA000FBF7A2FB0020BDE8F0813446FBF798FB41
:104BB0000146686800272468B44201D1002404E05B
:104BC00010C0EA687F1CBA42F5D10846FBF78CFB9F
:104BD00020462F61E7E700002DE9F04196B000265E
:104BE000082305212DA40CAA05A8FFF7AFFF082074
:104BF0002246804601462BA002F058F9404600F0BC
:104C0000F3FE31A002F052F905A93046FFF7B0FFDC
:104C10000025064639E00CA850F825400C3CFBF76F
:104C20005FFB217A9DF81C2021F08001914202D087
:104C3000FBF75AFB28E0FBF757FB606904F1140708
:104C4000B842384613D002F071F9218C2346628CA9
:104C5000029024A0CDE900210822414602F026F965
:104C6000384604F0B7FA25A002F020F90CE002F073
:104C70005DF9218C2346628C029021A0CDE90021B0
:104C80000822414602F012F96D1C0998A842C2DCC4
:104C9000002EB9D116B00020BDE8F0816D61696CBD
:104CA000626F7800252D2A2E7320656E747279202C
:104CB00073697A652073757370656E6420746872A9
:104CC0006561640A00000000202D2D2D2D20202D6F
:104CD0002D2D2D202D2D2D2D2D2D2D2D2D2D2D2D11
:104CE0002D2D0A00252D2A2E2A73202530346420EC
:104CF00020253034642025643A0000000A000000BA
:104D0000252D2A2E2A732025303464202025303486
:104D1000642025640A00000010B5074C07A06169F3
:104D200002F0C4F8A1690AA002F0C0F8E1690DA080
:104D3000BDE8104002F0BAB830000024746F74610E
:104D40006C206D656D6F72793A2025640A00000051
:104D500075736564206D656D6F7279203A202564E6
:104D60000A0000006D6178696D756D20616C6C6F73
:104D70006361746564206D656D6F72793A20256496
:104D80000A000000F0B597B00823002619462EA4AB
:104D90000EAA07A8FFF7DAFE082722462CA03946FC
:104DA00002F084F8384600F01FFE33A002F07EF8CF
:104DB00007A93046FFF7DCFE002506463BE00EA8BB
:104DC00050F825400C3CFBF78BFA227A9DF8241012
:104DD00022F080028A4202D0FBF786FA2AE0FBF733
:104DE00083FA234600202C34D96A01E00968401C6C
:104DF000A142FBD1002812DDD3E9091CDA69CDE913
:104E000002C026A0CDE900210822394602F04EF862
:104E1000204604F0DFF920A002F048F80AE0D3E9C8
:104E20000924D969039024A08DE816000822394688
:104E300002F03CF86D1C0B98A842C0DC002EB7D1E4
:104E400017B00020F0BD00006D656D706F6F6C00D5
:104E5000252D2A2E7320626C6F636B20746F746132
:104E60006C20667265652073757370656E6420745E
:104E700068726561640A0000202D2D2D2D20202DE3
:104E80002D2D2D20202D2D2D2D202D2D2D2D2D2D79
:104E90002D2D2D2D2D2D2D2D0A000000252D2A2EF6
:104EA0002A732025303464202025303464202025C6
:104EB0003034642025643A00252D2A2E2A732025BB
:104EC00030346420202530346420202530346420A0
:104ED00025640A002DE9F04194B00026082306213C
:104EE0002BA40BAA04A8FFF731FE08202246804617
:104EF00001462AA001F0DAFF404600F075FD2EA021
:104F000001F0D4FF04A93046FFF732FE0025064623
:104F100035E00BA850F825400C3CFBF7E1F9227A6C
:104F20009DF8181022F080028A4202D0FBF7DCF9CB
:104F300024E0FBF7D9F9606904F11407B842384658
:104F400011D001F0F3FFA18C0822CDE9001020A0C0
:104F50002346414601F0AAFF384604F03BF921A060
:104F600001F0A4FF0AE001F0E1FFA18C0822CDE9E5
:104F700000101DA02346414601F098FF6D1C0898C3
:104F8000A842C6DC002EBDD114B00020BDE8F081DF
:104F90006D7367717565756500000000252D2A2EFB
:104FA0007320656E7472792073757370656E6420FA
:104FB0007468726561640A00202D2D2D2D20202D2E
:104FC0002D2D2D2D2D2D2D2D2D2D2D2D2D0A00008E
:104FD000252D2A2E2A732025303464202025643A7A
:104FE000000000000A000000252D2A2E2A7320252B
:104FF000303464202025640A00000000F0B595B02C
:1050000000260823032122A40DAA06A8FFF79EFD6F
:105010000827224620A0394601F048FF384600F014
:10502000E3FC26A001F042FF06A93046FFF7A0FDF1
:105030000025064623E00DA850F825400C3CFBF760
:105040004FF9227A9DF8201022F080028A4202D085
:10505000FBF74AF912E0FBF747F904F1140001F0FD
:1050600065FFE17F0823226ACDE902101BA03946C3
:10507000CDE900320822234601F018FF6D1C0A9882
:10508000A842D8DC002ECFD115B00020F0BD000022
:105090006D75746578000000252D2A2E7320202060
:1050A0006F776E65722020686F6C64207375737003
:1050B000656E64207468726561640A00202D2D2D70
:1050C0002D2D2D2D2D202D2D2D2D202D2D2D2D2D2A
:1050D0002D2D2D2D2D2D2D2D2D0A0000252D2A2E87
:1050E0002A7320252D382E2A73202530346420255C
:1050F000640A00002DE9F04194B000260823022143
:105100002BA40BAA04A8FFF721FD08202246804605
:1051100001462AA001F0CAFE404600F065FC2EA020
:1051200001F0C4FE04A93046FFF722FD0025064623
:1051300035E00BA850F825400C3CFBF7D1F8227A5B
:105140009DF8181022F080028A4202D0FBF7CCF8BA
:1051500024E0FBF7C9F8606904F11407B842384647
:1051600011D001F0E3FEA18B0822CDE9001020A0B0
:105170002346414601F09AFE384604F02BF815A06C
:1051800001F094FE0AE001F0D1FEA18B0822CDE9E6
:1051900000101BA02346414601F088FE6D1C0898B4
:1051A000A842C6DC002EBDD114B00020BDE8F081BD
:1051B00073656D6170686F7265000000252D2A2E81
:1051C00073207620202073757370656E6420746878
:1051D000726561640A000000202D2D2D202D2D2DDB
:1051E0002D2D2D2D2D2D2D2D2D2D2D0A00000000C6
:1051F000252D2A2E2A7320253033642025643A0079
:10520000252D2A2E2A7320253033642025640A0098
:105210002DE9F041B6B00026082301213CA42DAAB7
:1052200027A8FFF793FC08202246804601463A480B
:1052300001F03CFE404600F0D7FB38A001F036FEFE
:1052400027A93046FFF794FC0025064657E02DA815
:1052500050F825400C3CFBF743F8217A07469DF8AF
:10526000A40021F08001814203D03846FBF73CF8CE
:1052700044E08022214605A8FBF7FDF83846FBF7FD
:1052800033F894F83500082223464146009033A0B5
:1052900001F00CFE94F8340000F00700012807D05C
:1052A000022807D040B1042808D0032808D00AE01B
:1052B0002DA006E02FA004E031A002E033A000E022
:1052C00035A001F0F3FDA06A014600E0401C027821
:1052D000232AFBD0D4E90B27401A4FF0640C101A94
:1052E000A36C00FB0CF0CDE90037B0FBF2F0E369F2
:1052F000C91A114403462BA001F0D8FD6D1C2B9850
:10530000A842A4DC002E9BD136B00020BDE8F0817D
:105310007468726561640000F0A40008202D2D2DD2
:1053200020202D2D2D2D2D2D2D202D2D2D2D2D2DD4
:105330002D2D2D2D202D2D2D2D2D2D2D2D2D2D20B7
:10534000202D2D2D2D2D2D20202D2D2D2D2D2D2DB4
:105350002D2D2D202D2D2D0A00000000252D2A2E6B
:105360002A7320253364200020726561647920202F
:10537000000000002073757370656E64000000000B
:1053800020696E69742020200000000020636C6F8B
:1053900073652020000000002072756E6E696E67D4
:1053A0000000000020307825303878203078253013
:1053B00038782020202025303264252520202030F8
:1053C000782530387820253033640A00F0B593B062
:1053D000002608230A2125A40BAA04A8FFF7B6FB80
:1053E0000827224623A0394601F060FD384600F028
:1053F000FBFA2AA001F05AFD04A93046FFF7B8FBDA
:105400000025064624E00BA850F825400C3CFAF78E
:1054100067FF227A9DF8181022F080028A4202D09B
:10542000FAF762FF13E0FAF75FFFD4E909010822F7
:105430002346CDE9000122A0394601F037FD607A0C
:10544000C00701D024A000E026A001F02FFD6D1CB4
:105450000898A842D7DC002ECED103F0EBF9014624
:1054600024A001F023FD13B00020F0BD74696D6528
:1054700072000000252D2A2E732020706572696F3E
:1054800064696320202074696D656F757420202025
:1054900020202020666C61670A000000202D2D2D41
:1054A0002D2D2D2D2D2D2D202D2D2D2D2D2D2D2D39
:1054B0002D2D202D2D2D2D2D2D2D2D2D2D2D0A0079
:1054C000252D2A2E2A732030782530387820307800
:1054D0002530387820000000616374697661746556
:1054E000640A000064656163746976617465640AC6
:1054F0000000000063757272656E74207469636BDE
:105500003A3078253038780A000000000149FFF76A
:1055100015B90000A40800240021882002F014F826
:105520004FF4FA740121882002F054F8204602F06A
:10553000B5FF0021882002F04DF8204602F0AEFFB2
:10554000F0E710B500F0D4FCBDE81040FFF7E4BF71
:1055500018A010B501F0AAFC1B4C21781BA001F08B
:10556000A5FC2078C00702D01EA001F09FFC207887
:10557000800702D51EA001F099FC2078000702D513
:105580001EA001F093FC2078C00602D51EA001F0F9
:105590008DFC2078000607D50B480C3001681DA053
:1055A000BDE8104001F082BCBDE810401D4801F08C
:1055B0007DBC00006D656D206D616E616765206664
:1055C00061756C743A0A000028ED00E05343425FB5
:1055D000434653525F4D4653523A30782530325845
:1055E000200000004941434356494F4C2000000031
:1055F0004441434356494F4C200000004D554E5303
:10560000544B4552522000004D53544B45525220AA
:10561000000000005343422D3E4D4D41523A25308B
:1056200038580A0034990008F0B5034640693C2117
:10563000A0F146041A683C2A09DD92FBF1F692FBC0
:10564000F1F75D683D4401FB1622C3E900255A6865
:105650003C2A09DD92FBF1F692FBF1F79D6801FB14
:1056600016217A19C3E90112996818290ADD18224E
:10567000DD6891FBF2F691FBF2F702FB16117A1945
:10568000C3E902121969394D0C2922DD0C2291FB64
:10569000F2F691FBF2F702FB1611384417E00128ED
:1056A00008D1586900F26C70FEF7E8F810B1D868BC
:1056B000401ED860D3E9031035F91020401C186152
:1056C000891AD9600B2804DD58690021401CC3E900
:1056D0000410D3E9031005EB4002B2F90220914215
:1056E000DDDC5869462802DA4FF0FF30F0BD40F2A9
:1056F0006D12611C6243832C02EB91060FD364216F
:10570000833CB4FBF1F18A0801F00301A2EB8202B1
:1057100032440329A2F1010200D10221561A00F2FB
:105720006C70FEF7ABF81969012901DD012200E078
:10573000002235F91110D3E9024C1040401E61449B
:1057400001448819D3E90057D96100EB40010722D1
:10575000CE00001DB0FBF2FC3C21344404FB01747C
:1057600002FB1C0204FB01509A61F0BD7EA20008FE
:105770002DE9F0470025804600782C4618B12248D4
:10578000224F066831E0BDE8F0470021084600F0EE
:1057900077B8306806221EA1FAF7C6FE20BB306833
:1057A00000F106094046FAF7A2FE02464946404685
:1057B000FAF7BAFEC0B925B94C464846FAF797FE43
:1057C00005464946204601E0401C491C02781AB1B2
:1057D0000B780BB19A42F7D0001BA84200DA0546BD
:1057E00049460DA001F062FB0C3638688642D0D3E2
:1057F000002C06D02A4621464046BDE8F04702F07C
:105800005ABCBDE8F08700003C01002440010024A0
:105810005F5F636D645F000025730A0038B504465E
:1058200001E0491E641C20782028FAD00928F8D00D
:1058300031B16A462046FEF75FF818B1204604E011
:10584000002038BD009838BD401C0178202901D0C7
:105850000029F9D10021017003A0214601F026FBA7
:105860004FF0FF3038BD000025733A20636F6D6D37
:10587000616E64206E6F7420666F756E642E0A0010
:1058800070B50EA001F012FB1448134D04680CE033
:105890002068062212A1FAF747FE28B9D4E90012BF
:1058A00011A0891D01F002FB0C3428688442EFD35B
:1058B00010A001F0FBFA002070BD000052542D54DE
:1058C0006872656164207368656C6C20636F6D6DD0
:1058D000616E64733A0A0000400100243C01002418
:1058E0005F5F636D645F0000252D313673202D20CE
:1058F00025730A000A0000000120704770B51546A4
:105900000022134614464BE05B1C00F8012B06787E
:10591000202E01D0092E01D18B42F5D30A2C11D3B0
:1059200021A001F0C3FA002606E000BF55F82610BA
:1059300025A001F0BBFA761CA642F7D321A001F006
:10594000B5FA2FE08B422DD2F6B2222E03D045F8C5
:105950002400641C1BE0401C5B1C45F82400641CF4
:1059600008E05C2E04D14678222E01D1401C5B1C3D
:10597000401C5B1C0678222E01D08B42F1D38B4257
:1059800010D25B1C00F8012B0AE0401C5B1C06785F
:10599000202E03D0092E01D08B42F6D38B4201D2A8
:1059A0008B42B4D3204670BD546F6F206D616E7909
:1059B00020617267732021205765206F6E6C7920FB
:1059C0005573653A0A000000257320000A2210B5BD
:1059D00091FBF2F491FBF2F302FB141130330370EC
:1059E0003031417010BD000010B5044602E003A044
:1059F00001F05CFA641EFAD210BD00002D00000018
:105A000070B5204D0446A868844204D21E49A122E4
:105A10001EA000F02DF9E868844204D31A49A2229E
:105A200022A000F025F9608820B11749A3222AA0FE
:105A300000F01EF96168A86801448C420FD04A88C2
:105A40006AB9EA6891420AD02A698A4200D12C6177
:105A500000F108024B68261A636049688E50A168FD
:105A60000144A1420CD04A88002A09D12A69A242E5
:105A700000D129610B1A626808304A6061680B50D6
:105A800070BD000030000024DF9C00082872745FA5
:105A900075696E74385F74202A296D656D203E3DEE
:105AA00020686561705F7074720000002872745F16
:105AB00075696E74385F74202A296D656D203C20ED
:105AC0002872745F75696E74385F74202A2968655E
:105AD00061705F656E6400006D656D2D3E75736568
