:020000040800F2
:1000000050290024AD020008914C0008B1030008FB
:10001000B103000885070008855C000800000000A7
:10002000000000000000000000000000DF53000896
:10003000010D000800000000FF020008E153000865
:10004000C7020008C7020008C7020008C70200086C
:10005000C7020008C7020008030D0008550D00087C
:10006000690D00087D0D0008910D0008C702000809
:10007000C7020008C7020008C7020008C70200083C
:10008000C7020008C7020008C7020008C70200082C
:10009000C7020008C7020008C7020008A50D000833
:1000A000C7020008C7020008C7020008C70200080C
:1000B000C7020008C7020008C7020008C7020008FC
:1000C000C7020008C7020008C7020008C7020008EC
:1000D000C7020008C7020008C7020008C7020008DC
:1000E000170D0008C702000800000000C702000842
:1000F000C7020008C7020008C7020008C7020008BC
:10010000C7020008E5500008C7020008C70200083F
:10011000DB550008C7020008C7020008C702000834
:10012000C7020008C7020008C7020008C70200088B
:10013000C7020008C7020008C7020008C70200087B
:1001400000000000000000000000000000000000AF
:10015000C7020008C7020008C7020008C70200085B
:10016000C7020008C7020008C7020008C70200084B
:10017000C7020008C7020008C7020008000000000C
:10018000C7020008C7020008C7020008C70200082B
:10019000C7020008C7020008C7020008C70200081B
:1001A000C7020008C7020008C7020008C70200080B
:1001B000C7020008C7020008C7020008C7020008FB
:1001C000C7020008C7020008C7020008C7020008EB
:1001D000C7020008C7020008C7020008C7020008DB
:1001E000C7020008C7020008C7020008C7020008CB
:1001F000C7020008C7020008C7020008C7020008BB
:10020000C7020008C7020008C7020008C7020008AA
:10021000C7020008C7020008C7020008C70200089A
:10022000C7020008C7020008C7020008000000005B
:10023000C7020008C702000800000000C70200084B
:10024000C7020008C7020008C7020008C70200086A
:10025000C7020008C7020008C7020008C70200085A
:10026000C7020008C7020008C7020008C70200084A
:10027000C7020008C7020008734C00080000000015
:10028000C7020008C7020008C702000800000000FB
:1002900000000000C7020008DFF80CD000F022FACE
:1002A000004800477B070008502900240648804783
:1002B00006480047FEE7FEE7FEE7FEE7FEE7FEE74B
:1002C000FEE7FEE7FEE7FEE7015500089902000899
:1002D000EFF3108072B6704780F310887047424A7F
:1002E0001368012B04D04FF0010313603F4A1060E4
:1002F0003F4A11603F484FF0805101607047EFF373
:10030000108272B63848016851B34FF000010160A5
:100310003648016891B1EFF309811EF0100F08BF54
:1003200021ED108B21E9F00F4FF000041EF0100FAB
:1003300008BF012441F8044D006801602C49096898
:10034000096808C9B1E8F00F002B18BFB1EC108B99
:1003500081F309884EF0100E002B18BF2EF0100EFE
:1003600082F310884EF0040E704721490860EFF3C5
:10037000148222F0040282F314881C494FF000001A
:10038000086019494FF0010008601B481B49D0F86C
:10039000002041EA0201016016484FF080510160DF
:1003A00017480068006880F3088861B662B6704735
:1003B0001EF0040F0CBFEFF30880EFF3098020E973
:1003C000F00F40F804ED40F804ED1EF0040F0CBFF0
:1003D00080F3088880F3098800B510F00BFC5DF805
:1003E00004EB4EF0040E704710210024481E002438
:1003F000541E002404ED00E020ED00E00000FFFFAB
:1004000008ED00E02DE9F05F0546002092469B468E
:1004100088460646814640241BE02846414647461A
:10042000224600F0FBF853465A46C01A914110D3B9
:1004300011461846224600F0E2F82D1A67EB010833
:100440004F4622460120002100F0D9F817EB0009A1
:100450004E41201EA4F10104DFDC484631462A4605
:100460004346BDE8F09F40EA01039B0703D009E043
:1004700008C9121F08C0042AFAD203E011F8013B90
:1004800000F8013B521EF9D27047D2B201E000F8E9
:10049000012B491EFBD270470022F6E710B5134628
:1004A0000A4604461946FFF7F0FF204610BD30B556
:1004B00005462A460B4612F8010B13F8014B08B10A
:1004C000A042F8D01CB1002802D06D1CF1E72846EC
:1004D00030BD10B5044604E00B7800F8013B03B1D1
:1004E000491C521EF8D2204610BD421C10F8011BB8
:1004F0000029FBD1801A704710B5002200E0521C81
:10050000835C8C5CA34201D1002BF8D1D8B2E1B25C
:10051000401A10BD30B504460020034600E05B1CC5
:10052000934203D2E05CCD5C401BF8D030BD034663
:1005300011F8012B00F8012B002AF9D11846704759
:1005400030B505460020034600E05B1C934205D20F
:10055000EC5CC85C201A01D1002CF6D130BD002221
:10056000CBB20178994200D10246401C0029F8D153
:10057000104670472DE9F04791460F4680460446E5
:10058000002614F8015B2DB100F058F80068405DBA
:10059000C007F6D12B2D02D02D2D18D0641E4A464F
:1005A0003946204600F04EF827B13968A14201D102
:1005B000C7F8008071054FF002040BD540420028B7
:1005C00003DD18F0B7FE0460A007BDE8F08746F42D
:1005D0008066E4E70028F8DA18F0ACFE04606FF0FB
:1005E0000040F2E770B5064618F0A4FE0468054620
:1005F0000A2200213046FFF7BDFF2C6070BD202A83
:1006000004DB203A00FA02F1002070479140C2F169
:10061000200320FA03F3194390407047202A04DB9B
:10062000203A21FA02F00021704721FA02F3D0406B
:10063000C2F12002914008431946704700487047B4
:10064000DC9301082DE9F05F82460078002715460B
:100650008B460AF10104B946302801D09DB113E060
:1006600014F8010B0127782803D0582801D045B190
:100670000AE00DB1102D07D10027102514F8010B49
:1006800002E0082500E00A250026B0460EE005FB42
:10069000080005FB06F1012701EB10461FFA80F860
:1006A000B6F5803F00D3B94614F8010B294600F097
:1006B0002BF80028EBDABBF1000F05D00FB1641E58
:1006C00000E05446CBF80040B9F1000F06D018F016
:1006D00031FE02210160C81EBDE8F09F48EA0640D5
:1006E000FAE70000064C074D06E0E06840F0010321
:1006F00094E8070098471034AC42F6D3FFF7D0FDDA
:1007000020C5010840C501083A2800D2303820F041
:100710002002412A01D3A2F13700884201D34FF0D1
:10072000FF30704770B58C1810F8015B15F00703A7
:1007300001D110F8013B2A1106D110F8012B03E07A
:1007400010F8016B01F8016B5B1EF9D12B0705D482
:100750000023521E0DD401F8013BFAE710F8013BCB
:10076000CB1A921C03E013F8015B01F8015B521EE7
:10077000F9D5A142D8D3002070BD80B515F07AFD1F
:10078000002080BDFEE7000040F20F42D0F800C01C
:10079000C4F20202944510DC6F22C4F202029445B6
:1007A00020DC3F22C4F20202944536DC1022C4F25F
:1007B0000202944554D028224EE040F26F42C4F227
:1007C000020294451ADC40F23F42C4F20202944510
:1007D0002ADC40F21042C4F20202944540D040F2BA
:1007E000284239E09F22C4F20202944525DC70229F
:1007F000C4F20202944533D088222DE040F29F4299
:10080000C4F2020294451FDC40F27042C4F20202BC
:10081000944525D040F288421EE04022C4F20202F4
:1008200094451DD0582217E040F24042C4F2020223
:10083000944515D040F258420EE0A022C4F20202C4
:1008400094450DD0B82207E040F2B842C4F202024B
:10085000944505D040F2A042C4F20202944518D15A
:100860006FF00F024AF6AB2352FA8CF2CAF6AA23B3
:10087000A2FB033108A35F2AC1F302115B5C40F2C3
:10088000FF312CEA0101C36588BF04318165084648
:1008900070472CF0FF01F9E700061016000610164D
:1008A000B0B545F243410268C5F602018A4245F6F9
:1008B0000001C5F602010EDD45F26B43C5F60203E9
:1008C0009A4217DC45F24443C5F602039A421DD012
:1008D00045F2584316E045F20843C5F602039A4232
:1008E00014D045F21C43C5F602039A420ED045F2DD
:1008F000304307E045F28043C5F602039A4205D033
:1009000045F26C43C5F602039A4215D1D3B2A3F166
:1009100008024CF6CD43CCF6CC43A2FB03231B09C3
:1009200001F1800201EB830103F01F030166012145
:10093000426699408166B0BDA1F55B739A42D3B21D
:10094000E5D0A3F110014AF6AB23CAF6AA23082486
:10095000A1FB031C40F20F41C4F202014FEA1C1E2E
:100960008A4201F1AA05734640F6000188BF04EBF4
:100970001C13C4F20201AA4228BF7346D0E70179D2
:100980000139072988BF704745F243430268C5F61D
:1009900002039A420EDD45F26B43C5F602039A420A
:1009A00017DC45F24443C5F602039A421DD045F2D6
:1009B000584316E045F20843C5F602039A4214D0A4
:1009C00045F21C43C5F602039A420ED045F230436D
:1009D00007E045F28043C5F602039A4205D045F28E
:1009E0006C43C5F602039A420DD18A0045F6001306
:1009F000C5F602031A44C26601224033036702FAB5
:100A000001F14167704745F29443C5F602039A42EB
:100A10004FEA8102EAD040F60013C4F20203E9E78C
:100A200070B540F26F44D0F800C0C4F20204D0F8B0
:100A300058E0A44517DC9F25C4F20205AC452DDC27
:100A40005725C4F20205AC4550DC1025C4F202055E
:100A5000AC4500F08A802825C4F20205AC4500F0C0
:100A6000848040256BE045F22F45C5F60205AC4574
:100A700027DC40F2B745C4F20205AC4542DC40F247
:100A80007045C4F20205AC456FD040F28845C4F20F
:100A90000205AC4569D040F2A04550E040F2274540
:100AA000C4F20205AC453CDCA025C4F20205AC450D
:100AB0005BD0B825C4F20205AC4556D040F21045D3
:100AC0003DE045F26B45C5F60205AC453ADC45F222
:100AD0003045C5F60205AC4547D045F24445C5F65C
:100AE0000205AC4541D045F2584539E05825C4F2DD
:100AF0000205AC4539D07025C4F20205AC4534D0AE
:100B000088251CE040F2B845C4F20205AC452CD063
:100B100045F20845C5F60205AC4526D045F21C4510
:100B20001EE040F22845C4F20205AC451DD040F25B
:100B30004045C4F20205AC4517D040F25845C4F216
:100B400002050FE045F26C45C5F60205AC450CD038
:100B500045F29445C5F60205AC4506D045F2804500
:100B6000C5F60205AC4540F0CA80456EC66E002E43
:100B7000866E6E601CBFD0E91C566E60A44515DC05
:100B80009F24C4F20204A4452BDC5724C4F20204BF
:100B9000A4454EDC1024C4F20204A44576D02824D7
:100BA000C4F20204A44571D040246BE045F22F4406
:100BB000C5F60204A44527DC40F2B744C4F202049F
:100BC000A44542DC40F27044C4F20204A4455DD066
:100BD00040F28844C4F20204A44557D040F2A04435
:100BE00050E040F22744C4F20204A4453CDCA024B7
:100BF000C4F20204A44549D0B824C4F20204A445B6
:100C000044D040F210443DE045F26B44C5F6020486
:100C1000A4454CDC45F23044C5F60204A44558D046
:100C200045F24444C5F60204A44552D045F2584466
:100C30004BE05824C4F20204A44527D07024C4F227
:100C40000204A44522D088241CE040F2B844C4F237
:100C50000204A4451AD045F20844C5F60204A4458E
:100C600037D045F21C4430E040F22844C4F202047C
:100C7000A4450BD040F24044C4F20204A44505D080
:100C800040F25844C4F20204A44538D18468C06DCF
:100C900000F01F003F2505FA00F0CEF80800DCF850
:100CA0000000402C20F48020CCF800001BE045F22E
:100CB0006C44C5F60204A4450BD045F28044C5F649
:100CC0000204A44505D045F29444C5F60204A445A7
:100CD00015D1C46D012504F01F04806805FA04F4E1
:100CE000CEF804404028CCF8043004D1CCF80820D9
:100CF000CCF80C1070BDCCF80810CCF80C2070BDEE
:100D0000704780B510F09AFD012000F0D7FDBDE8D6
:100D1000804010F0B6BD80B510F090FD4FF48060BB
:100D200000F0CCFD4FF4006000F0C8FD4FF480509F
:100D300000F0C4FD4FF4005000F0C0FD4FF48040BF
:100D400000F0BCFD4FF4004000F0B8FDBDE880406D
:100D500010F097BD80B510F071FD022000F0AEFDDF
:100D6000BDE8804010F08DBD80B510F067FD042017
:100D700000F0A4FDBDE8804010F083BD80B510F008
:100D80005DFD082000F09AFDBDE8804010F079BDBF
:100D900080B510F053FD102000F090FDBDE88040BC
:100DA00010F06FBD80B510F049FD202000F086FDE9
:100DB000402000F083FD802000F080FD4FF4807023
:100DC00000F07CFD4FF4007000F078FDBDE880403D
:100DD00010F057BD70B50A68002A024600681AD0A4
:100DE00020F4F84001F1080CD1E9073618434B6AAA
:100DF000304301F10C0E1843106052F8040F47F60F
:100E0000FF7320EA03054E6801F1100001F114039D
:100E100001F1180411E00E1D47F6FF73984301F12C
:100E2000140C78CE034301F1180E1C4301F11C0091
:100E300001F12003254301F1240445EA0601DCF811
:100E40000060DEF800503143006829431B68084306
:100E5000246840EA030100202143116070BD02466E
:100E6000406943F6FE7320EA0303002043EA410190
:100E70005161704780B591E80C1043EA020E6FF0A3
:100E80001F0303EB4C13CA6843EA0E03014643EA0F
:100E90004222036900201A430A6180BD2DE9F04314
:100EA000002A024652F8083F2ED040F6FF724FF259
:100EB0000006CFF60F72CFF6FF761A40CB684F6967
:100EC00006EB03330026CFF6F0761A4306EB0757FE
:100ED0003A43826050F80C2F8E68D1E900375D1ECE
:100EE0006FF00F0303EB071C6FF0FF030C6903EBBC
:100EF000062E002302F07042CFF6FF7303EB04438B
:100F000045EA0204024624E001F1080903F07048B2
:100F1000D1E9003499E861026FF00F07013B07EB5C
:100F200004146FF0FF0707EB00204FF20007CFF625
:100F3000FF7743EA080307EB053C00270025CFF6BF
:100F4000FF77CFF6F0751C4307EB064E044305EB25
:100F50000953886944EA0C01471E41EA0E0040EA41
:100F60000301002041EA07611160BDE8F083406D94
:100F7000704700002DE9F041044600F0ABFD002C65
:100F800000F0E08040F26F4805462068C4F2020895
:100F9000404515DC9F21C4F2020188422BDC572119
:100FA000C4F20201884251DC1021C4F202018842DD
:100FB0007AD02821C4F20201884275D040216EE027
:100FC00045F22F41C5F60201884227DC40F2B741C5
:100FD000C4F20201884245DC40F27041C4F20201D1
:100FE000884261D040F28841C4F2020188425BD05D
:100FF00040F2A04153E040F22741C4F2020188428E
:101000003FDCA021C4F2020188424DD0B821C4F2D5
:101010000201884248D040F2104140E045F26B4165
:10102000C5F60201884200F3908045F23041C5F6D2
:101030000201884200F09C8045F24441C5F602015D
:10104000884200F0958045F258418CE05821C4F266
:101050000201884228D07021C4F20201884223D0C4
:1010600088211CE040F2B841C4F2020188421BD042
:1010700045F20841C5F60201884279D045F21C418B
:1010800071E040F22841C4F2020188420CD040F2E3
:101090004041C4F20201884206D040F25841C4F2F5
:1010A0000201884240F0AA81002184F83410022114
:1010B00084F83510016821F0010101600168C90759
:1010C00006D000F007FD401B052836D82068F5E75C
:1010D00048F23F0204F108060168CFF610621140A1
:1010E00065694CCE1143A2691943E3693143266A0D
:1010F0000D43616A1543042943EA050343EA0603E5
:1011000003D1D4E90B6533432B4341F20006C5F606
:1011100000463668B6F1005F71D36568A5F13F06F9
:10112000132E66D80127B74040F20F36C0F20F06E3
:1011300037425ED043F4801361E0202060650320D5
:1011400084F835000120BDE8F08145F26C41C5F618
:10115000020188420CD045F28041C5F60201884266
:1011600006D045F29441C5F60201884240F046811E
:10117000002184F83410022184F835100168A26837
:10118000A2F18003E768B3FA83F3402A4FEA5313CE
:101190004FEA83336FF3101108BF1023226941EA2D
:1011A000D70167691943A36941EAD201E26941EABB
:1011B000D701276A41EAD30141EAD20141EA171176
:1011C00040F808194CF6CD41C0B2CCF6CC41A0FB9A
:1011D00001016FF0030000EA9100E0652046FFF78F
:1011E000D3FAE16D012201F01F0102FA01F1416021
:1011F00040E0A5F12906062E38BF43F480130360B2
:101200000429436923F0070341EA030127D1D4E904
:101210000A5341EA050113B3B2F5005F06D08AB95B
:10122000022D12D0012D07D07DB118E0032D16D864
:10123000DFE805F00E0B0E02A3F1C072B2FA82F2E3
:10124000520904E0032D03D309D1C3F3006232B184
:1012500040206065012084F83500BDE8F0814161DF
:101260002046FFF791FAE16D3F2201F01F0102FADB
:1012700001F181602068404517DC9F21C4F2020122
:1012800088422DDC5721C4F20201884250DC102133
:10129000C4F20201884200F089802821C4F20201D0
:1012A000884200F0838040216BE045F22F41C5F673
:1012B0000201884227DC40F2B741C4F202018842B1
:1012C00042DC40F27041C4F2020188426ED040F22A
:1012D0008841C4F20201884268D040F2A04150E047
:1012E00040F22741C4F2020188423CDCA021C4F252
:1012F000020188425AD0B821C4F20201884255D076
:1013000040F210413DE045F26B41C5F602018842D2
:101310003ADC45F23041C5F60201884246D045F23A
:101320004441C5F60201884240D045F2584139E0B7
:101330005821C4F20201884238D07021C4F202015F
:10134000884233D088211CE040F2B841C4F2020147
:1013500088422BD045F20841C5F60201884225D0CB
:1013600045F21C411EE040F22841C4F202018842CD
:101370001CD040F24041C4F20201884216D040F233
:101380005841C4F202010FE045F26C41C5F602017A
:1013900088420BD045F29441C5F60201884205D03F
:1013A00045F28041C5F60201884220D12046FFF770
:1013B00077FAA068802802D10020606000E06068B1
:1013C00004F16007C1B201388CCF072811605F605B
:1013D00009D82046FFF7D3FA04F16C02002307CAAC
:1013E00003604A6003E00020C4E91B00606700203E
:1013F0006065012184F83510BDE8F08140209DE64C
:10140000B0B5D0B3054690F83400012801D10220D0
:10141000B0BD012085F8340095F83500012826D1AB
:10142000022085F83500002068652868046824F0EB
:10143000010404602846FFF7F3FAB7212868C4F2D4
:10144000020188421BDD40F25741C4F2020188428A
:1014500026DC40F22741C4F2020188423BDCB8217D
:10146000C4F20201884253D040F210414BE0002008
:1014700085F834004FF4006068650120B0BD572145
:10148000C4F2020188421ADD8721C4F202018842B7
:101490002ADC5821C4F20201884239D0702132E09E
:1014A00040F28741C4F20201884224DC40F25841F4
:1014B000C4F2020188422BD040F2704123E0102197
:1014C000C4F20201884223D02821C4F202018842DA
:1014D0001ED0402117E040F22841C4F202018842A8
:1014E00016D040F240410EE08821C4F20201884249
:1014F0000ED0A02107E040F2A041C4F202018842D0
:1015000006D040F28841C4F20201884240F02381B3
:1015100001680B2262F344010160296C19B1016872
:1015200041F00801016040F26F41C4F202018842BB
:1015300017DC9F22C4F2020290422DDC5722C4F233
:101540000202904250DC1022C4F20202904200F0EB
:1015500089802822C4F20202904200F08380402257
:101560006BE045F22F42C5F60202904227DC40F2C2
:10157000B742C4F20202904242DC40F27042C4F22E
:10158000020290426ED040F28842C4F202029042BF
:1015900068D040F2A04250E040F22742C4F202027A
:1015A00090423CDCA022C4F2020290425AD0B822FF
:1015B000C4F20202904255D040F210423DE045F2A2
:1015C0006B42C5F6020290423ADC45F23042C5F663
:1015D0000202904246D045F24442C5F602029042D1
:1015E00040D045F2584239E05822C4F202029042FB
:1015F00038D07022C4F20202904233D088221CE01C
:1016000040F2B842C4F2020290422BD045F20842A6
:10161000C5F60202904225D045F21C421EE040F27F
:101620002842C4F2020290421CD040F24042C4F26E
:101630000202904216D040F25842C4F202020FE079
:1016400045F26C42C5F6020290420BD045F294423C
:10165000C5F60202904205D045F28042C5F602026C
:10166000904272D12A6E1368DB0303D5136843F4EA
:1016700080731360EA6E1AB1136843F480731360C9
:1016800040F20F42C4F20202904210DC6F21C4F219
:10169000020188421CDC3F21C4F20201884232DC94
:1016A0001021C4F2020188424FD028214AE088422A
:1016B0001ADC40F23F41C4F2020188422ADC40F2C7
:1016C0001041C4F2020188423FD040F2284139E083
:1016D0009F21C4F20201884225DC7021C4F202017C
:1016E000884232D088212DE040F29F41C4F20201AD
:1016F00088421FDC40F27041C4F20201884224D0CB
:1017000040F288411EE04021C4F2020188421CD010
:10171000582117E040F24041C4F20201884214D03F
:1017200040F258410EE0A021C4F2020188420CD0E0
:10173000B82107E040F2B841C4F20201884204D067
:1017400040F2A041C4F202018842016841F0010167
:1017500001600020B0BD40F2B841C4F202018842ED
:1017600001683FF4D6AE052262F343010160296CA3
:1017700000293FF4D8AE016841F00401D2E6000030
:101780002DE9F04F81B000297DD000F1264242F2D0
:10179000004302F1FF72C5F602030A2698424FEA9F
:1017A000B22708BF0926092F4FF0000738BF4FEABC
:1017B000B226002200960126A6F10108012303FAB1
:1017C00008FE1EEA010A55D040F208434FEA980984
:1017D000C5F6000307F00C0B53F829500F2303FA4A
:1017E0000BFC009B05EA0C0503FA0BF39D4220D18C
:1017F00004244FF0B045C5F60004E36F23EA0A0362
:10180000E367D4F8803023EA0A03C4F880302B68F9
:1018100023EA0A032B60236823EA0A03236040F2C9
:101820000844C5F6000454F8293023EA0C0344F8B0
:1018300029306FF00304032304EA5804056803FA0F
:1018400002F9044445EA0905056007F01C050F2369
:1018500003FA05FC256A25EA0C052562C56825EA18
:101860000905C560456825EA0E054560856825EAD5
:101870000903836031FA06F306F1010607F1040754
:1018800002F1020298D101B0BDE8F08F00210122DF
:1018900002FA01F3984204D001312029F8D14FF027
:1018A000FF3101EB410040F21401C2F2004101EBB3
:1018B0008000416809B18068084770478821C5F6F3
:1018C00000010A68024208BF70470860FFF7DEBFE8
:1018D0002DE9F04F86B00F680290002F00F0E680EF
:1018E00002988C4600F126420A2102F1FF7342F26F
:1018F0000042C5F602024FF0000990424FEAB322BF
:1019000008BF0921092A4FF0010238BF4FEAB3216D
:1019100001264FF0000A4FF000080091CDF804C0F6
:10192000701E02FA00FE17EA0E0100F0A980DCF832
:1019300004B00491BBF1120F00F2B18002FA0BF770
:1019400017F0061F00F0AB80029C032101FA0AF297
:10195000A368DCF80C709343D14307FA0AF21A43E8
:10196000A26062684FEA1B134FEA480522EA0E02A2
:1019700083401A4362604BF01003E268122BDCF8DC
:10198000083002EA010203FA05F3039142EA030276
:10199000E26014D16FF0030109F01C0701EA500264
:1019A0000F212244B940D2F820E0DCF810302EEAB2
:1019B0000101BB40029C19431162DCF804B00BF03A
:1019C00003012268039BA9401A405FEACB0341EA66
:1019D00002012160DDF804C04FF00102049C4FD5E4
:1019E00044F2F44240F2084EC5F60202C5F6000E7B
:1019F0000F27116841F002011160116801F0020126
:101A0000059120F00301059A09F00C024FF0B04057
:101A100051F80E309740BB43009F07FA02F21A4379
:101A200041F80E2040F2040EC5F6000EDEF87C10E0
:101A3000DCF8042041EA0403D70358BF21EA040379
:101A40009703CEF87C30DEF8801041EA040358BFDB
:101A500021EA0403D702CEF88030016841EA04038A
:101A600058BF21EA040392024FF001020360DEF83E
:101A7000001041EA040358BF21EA0403CEF8003005
:101A8000DCF8007008F1010837FA06F10AF1020AE1
:101A900006F1010609F104097FF442AF06E00321D3
:101AA000554601FA0AF7029CF94364E706B0BDE81F
:101AB000F08F0069084018BF01207047002A08BF56
:101AC00009048161704741F20000C5F600400068DA
:101AD000000C704780B513F043FE4FF47A71484311
:101AE00044F6D351C1F26201A0FB0101880980BD17
:101AF00040F2AC1042F24851C2F20040C2F2004142
:101B000000780A6810440860704780B5032000F030
:101B100090F801F0B3F944F2184149F2F833C5F6F0
:101B20000201C0F601030A68C2F30322096801F04A
:101B30000F019A5C595C02F01F02D04040F208028B
:101B4000C2F2004201F01F0120FA01F1116040F2DF
:101B50000401C2F200410860002000F007F808B15B
:101B6000012080BD00F004F8002080BD00207047F7
:101B700081B044F2F440C5F60200016841F0020170
:101B80000160006800F002000090009801B070470A
:101B900000280FD44EF2801300F01F014009CEF24E
:101BA0000003012202FA01F143F82010BFF34F8F26
:101BB000BFF36F8F704700280BD44EF2001300F074
:101BC0001F014009CEF20003012202FA01F143F89D
:101BD0002010704770B54EF60C5C4FF0FF36CEF219
:101BE000000C00F16045DCF80030C3F3022E8EF0EB
:101BF0000703042B28BF0423BEF1030406FA03F3F2
:101C000021EA030100F00F0338BF0024043BB0F1C8
:101C1000FF3F634406FA04F003F10C0301FA04F1F8
:101C2000C8BF05F5644322EA0000084300011870AC
:101C300070BD4EF60C514FF6FF03CEF200010A685C
:101C40001A4060F30A2242F0806040F0FD700860A4
:101C500070470000B0B544F60C05C5F602052968CA
:101C60004907296805D401F00701081A18BF0120A7
:101C7000B0BD21F0070108432860FFF72BFF0446A1
:101C800055F8080C800407D4FFF724FF001BB0F5BB
:101C90007A7FF5D90120B0BD0020B0BD44F6000028
:101CA000C5F60200016841F4807101607047F0B52B
:101CB00081B015460F460446FFF70CFF94F840101C
:101CC000012901D102202EE00646012084F84000BF
:101CD00094F8410001284FF0020021D100216164F5
:101CE00084F841002021002220463346009503F06D
:101CF00071F8A8B900222046394602F0CAFF786A76
:101D000020B1012084F84100002009E002210122D5
:101D10002046334600950227012503F05BF820B1E9
:101D2000002184F8401001B0F0BD2068C76084F83D
:101D30004150E9E7F0B581B00446FFF7CBFE2CB186
:101D4000054694F8410018B1A06C07E0012041E07D
:101D5000204600F041F841F28830A06421686FF01D
:101D6000FF06A26800270B6823F4706306EB0222CB
:101D70001A430A6020210022009020462B4603F0DF
:101D800029F838BBD4E900014FF62F76D4E90323B4
:101D90000568C0F2FF062E403243E66942EA01615F
:101DA000226A3143114301604FF6FE024168CFF6CB
:101DB000E072114062691143A26941EA0341114393
:101DC0004160016841F0010101606764012084F80D
:101DD0004100002001B0F0BD2DE9F04387B004467A
:101DE00002A81421FEF758FB45F200012068C5F255
:101DF000002188425AD144F2E04041F20044C5F645
:101E00000200C5F6020402AD4FF0020850F80C1CA7
:101E1000012741F4804140F80C1C50F80C1C0326AB
:101E200001F4804101910199016841F002010160D2
:101E300001684FF00A0901F002010191019901685E
:101E400041F020010160016801F020010191019938
:101E5000016841F0400101600068294600F040003F
:101E6000019001984020029004F58060CDF80C802C
:101E700004970596CDF81890FFF72AFD4FF4986067
:101E80002946CDE90208CDE90476092006902046CE
:101E9000FFF71EFD4FF440702946CDE902082046A9
:101EA000CDE90476CDF81890FFF712FD07B0BDE834
:101EB000F08300002DE9F04182B0154688460446C3
:101EC000FFF708FE2768B96994F84020012A01D17C
:101ED00002204EE00646012084F8400094F84100BC
:101EE00001282CD1B8F1000F4FF00000606438D009
:101EF000222084F84100386901220130A06338694A
:101F000001306063C4F83080786962F39B60786167
:101F1000B96100BFA06BA0B1062101222046334663
:101F2000009502F057FFC0B997F82000216B0870A8
:101F3000206BA16B01302063481EA063EAE70220FA
:101F400014E002210122204633460095022502F0CA
:101F500041FF10B92068C5600020012184F84110BC
:101F600004E0606C40F0080060640120002184F807
:101F7000401002B0BDE8F0812DE9F04182B0154675
:101F800088460446FFF7A6FD276894F8401001290B
:101F900001D102204BE00646012084F8400094F86D
:101FA0004100012829D1B8F1000F4FF00000606412
:101FB00035D0122084F8410038690130E062386978
:101FC0000130A062C4F82480786920F04060786114
:101FD000E06AA0B10421012220463346009502F0B8
:101FE000F9FEC0B9606A007887F82000606AE16A8B
:101FF00001306062481EE062EAE7022014E002213C
:102000000122204633460095022502F0E3FE10B976
:102010002068C5600020012184F8411004E0606C54
:1020200040F0080060640120002184F8401002B0F4
:10203000BDE8F08180B500F021FF44F2184149F27B
:10204000F833C5F60201C0F601030A68C2F30322A1
:10205000096801F00F019A5C595C02F01F02D04040
:1020600040F20802C2F2004201F01F0120FA01F121
:10207000116040F20401C2F20041086080BD80B5E9
:1020800000F0B0FE44F2204149F2F832C5F60201F8
:10209000C0F601020968C1F30211515C01F01F0191
:1020A000C84080BD80B544F2004EC5F6020EDEF891
:1020B0002830DEF82820C2F3053CDEF82C20BCF1E5
:1020C000000FC2F30012DEF83C10C1F3CC0102FB9A
:1020D00001F100EE101AB8EE400A0BD003F0030332
:1020E000022B0BD06BB9DEF8001089060CD49FEDE3
:1020F000341A17E00021C0E900115BE09FED2F1AB0
:1021000010E09FED2D1A0DE0DEF8001049F20002FC
:10211000C0F2D032C1F3C10122FA01F101EE101A6E
:10212000B8EE411A02EE10CA9FED264AB8EE422AD6
:10213000DEF838106FF35F2103EE101A81EE021AF9
:10214000B8EE433ADEF8381000EE043AB7EE000A73
:10215000C1F3462133EE002A03EE101AB8EE433ADB
:1021600021EE021A33EE002A81EE022ABCEEC22AC8
:1021700080ED002ADEF83810C1F3064102EE101A95
:10218000B8EE422A32EE002A81EE022ABCEEC22AC2
:1021900080ED012ADEF83810C1F3066102EE101A54
:1021A000B8EE422A32EE000A81EE000ABCEEC00A06
:1021B00010EE101A816080BD0024744A20BCBE4B12
:1021C0000024744C0000003980B544F2004EC5F67E
:1021D000020EDEF82830DEF82820C2F3055CDEF8B7
:1021E0002C20BCF1000FC2F30022DEF84410C1F332
:1021F000CC0102FB01F100EE101AB8EE400A0BD040
:1022000003F00303022B0BD06BB9DEF80010890634
:102210000CD49FED341A17E00021C0E900115BE0F7
:102220009FED2F1A10E09FED2D1A0DE0DEF8001043
:1022300049F20002C0F2D032C1F3C10122FA01F129
:1022400001EE101AB8EE411A02EE10CA9FED264AAE
:10225000B8EE422ADEF840106FF35F2103EE101A49
:1022600081EE021AB8EE433ADEF8401000EE043A6E
:10227000B7EE000AC1F3462133EE002A03EE101A2E
:10228000B8EE433A21EE021A33EE002A81EE022A1A
:10229000BCEEC22A80ED002ADEF84010C1F30641F0
:1022A00002EE101AB8EE422A32EE002A81EE022A1D
:1022B000BCEEC22A80ED012ADEF84010C1F30661AF
:1022C00002EE101AB8EE422A32EE000A81EE000A3F
:1022D000BCEEC00A10EE101A816080BD0024744A62
:1022E00020BCBE4B0024744C000000392DE9F0479F
:1022F0000446C07844F210480007C5F6020825D508
:10230000606E4FEA305103290AD8DFE801F0020B72
:102310001018D8F81C1041F40031C8F81C100EE059
:10232000012614E0201D022102F084FD04E004F1E6
:102330002400022102F004FE064640B9606ED8F87F
:10234000401021F440110843C8F84000002660788E
:10235000C00701D1354629E0606D04280DD8354607
:10236000DFE800F0030E13191900D8F81C003546F9
:1023700040F40030C8F81C000DE00125012716E0EC
:10238000201D002102F056FD04E004F1240000218C
:1023900002F0D6FD05462F464DB9D8F84000616DD4
:1023A00020F0070000250843C8F840003746607851
:1023B000800729D5A06D4FEAB01004280BD8DFE8BC
:1023C00000F0030D12181800D8F81C0040F400307B
:1023D000C8F81C000DE00125012616E0201D002193
:1023E00002F028FD04E004F12400002102F0A8FD21
:1023F00005462E464DB9D8F84000A16D20F4E07096
:1024000000250843C8F840003E46607840072CD5B8
:10241000D4F8A4004FEA705004280BD8DFE800F08D
:10242000030E13191900D8F81C0040F40030C8F846
:102430001C000EE001254FF0010917E0201D0021CE
:1024400002F0F8FC04E004F12400002102F078FD21
:102450000546A94655B9D8F84800D4F8A41020F488
:10246000600000250843C8F84800B14660780007BE
:102470002BD5D4F8A8004FEA306004280BD8DFE849
:1024800000F0030D12181800D8F81C0040F40030BA
:10249000C8F81C000DE00125012717E0201D0021D0
:1024A00002F0C8FC04E004F12400002102F048FD21
:1024B00005462F4655B9D8F84800D4F8A81020F0A2
:1024C000E06000250843C8F848004F46E0788007E0
:1024D00022D5A06C4FEA301003280AD8DFE800F0BC
:1024E00011020C11D8F81C0040F40030C8F81C0090
:1024F00007E00125012610E0201D022102F09AFCD0
:1025000005462E464DB9D8F83C00A16C20F03000AD
:1025100000250843C8F83C003E466078C00629D52F
:10252000E06D4FEA303004280BD8DFE800F0030DEF
:1025300012181800D8F81C0040F40030C8F81C002D
:102540000DE00125012716E0201D002102F072FC9C
:1025500004E004F12400002102F0F2FC05462F46BD
:102560004DB9D8F84000E16D20F4E0400025084363
:10257000C8F8400037466078800622D5206E4FEAC2
:102580003040052809D8DFE800F011030B111111C4
:10259000201D012102F04EFC07E00125012611E07B
:1025A00004F12400012102F0CBFC05462E464DB972
:1025B000D8F84000216E20F4E02000250843C8F838
:1025C00040003E466078400624D5D4F8AC004FEA7F
:1025D0003070052809D8DFE800F011030B11111144
:1025E000201D012102F026FC07E00125012712E051
:1025F00004F12400012102F0A3FC05462F4655B941
:10260000D8F84800D4F8AC1020F0E040002508438A
:10261000C8F848003746607800061ED5E06E88B1DD
:10262000B0F1005F09D0B0F1805F28D1D8F81C006C
:1026300040F40030C8F81C0004E0201D012102F025
:10264000F9FB05462E464DB9D8F84000E16E20F062
:10265000405000250843C8F840003E46E078C007D7
:1026600024D0606C03280DD8DFE800F015021015A7
:10267000D8F81C0040F40030C8F81C000BE001251D
:102680000126EBE701254FF0010910E0201D022192
:1026900002F0D0FB0546A9464DB9D8F83C00616C64
:1026A00020F0030000250843C8F83C00B146A0789C
:1026B000400601D44F4617E0D8F8F00340F480708C
:1026C000C8F8F003FFF706FA064600BFD8F8F00393
:1026D000C00507D4FFF7FEF9801B6428F6D903254F
:1026E000032701E02F468DB12078C00753D0A06F9B
:1026F0004FEAF00005283AD8DFE800F042033C42F8
:102700004242201D012102F095FB38E0D8F860100C
:10271000D4F8B000414011F4407F11D0D8F86010D7
:10272000D8F8602042F48032C8F86020D8F86020E1
:1027300021F4407122F48032C8F86020C8F860109B
:10274000B0F5807F40F00382FFF7C4F9064641F2FE
:10275000883A0325032700BFD8F86000800700F1FE
:10276000F481FFF7B7F9801B5045F5D9BCE7012587
:10277000012611E004F12400012102F0E1FB0546ED
:102780002E464DB9D8F84400A16F20F0380000253E
:102790000843C8F844003E462078800720D5606F83
:1027A000052809D8DFE800F011030B111111201DD5
:1027B000012102F03FFB07E00125012711E004F1B0
:1027C0002400012102F0BCFB05462F464DB9D8F884
:1027D0004400616F20F0070000250843C8F844005A
:1027E00037462078400722D5D4F89000052809D82C
:1027F000DFE800F011030B111111201D012102F07F
:1028000019FB07E00126012512E004F12400012153
:1028100002F096FB05462E4655B9D8F84800D4F884
:10282000901020F0070000250843C8F848003E46F5
:102830002078800624D5D4F88C004FEA3070052823
:1028400009D8DFE800F011030B111111201D002140
:1028500002F0F0FA07E00127012512E004F124005C
:10286000022102F06DFB05462F4655B9D8F8440009
:10287000D4F88C1020F0E04000250843C8F844004C
:1028800037462078400624D5D4F898004FEAB02087
:10289000052809D8DFE800F011030B111111201DE4
:1028A000002102F0C7FA07E00126012512E004F139
:1028B0002400022102F044FB05462E4655B9D8F803
:1028C0004800D4F8981020F4E05000250843C8F8D8
:1028D00048003E462078000624D5D4F89C004FEAF4
:1028E0007030052809D8DFE800F011030B11111131
:1028F000201D002102F09EFA07E00127012512E0C9
:1029000004F12400022102F01BFB05462F4655B9B5
:10291000D8F84800D4F89C1020F460400025084303
:10292000C8F8480037462068010716D5D4F880104B
:10293000B1F5805F0AD104F12400022102F000FB0E
:10294000002818BF01272068D4F88010D8F8442048
:1029500022F440521143C8F84410C10616D5D4F8E9
:102960009410B1F5807F0AD104F12400022102F015
:10297000E7FA002818BF01272068D4F89410D8F887
:10298000482022F440721143C8F8481000031FD5B4
:10299000D4F8A000B0F5003F0ED0B0F5803F05D0D0
:1029A00068BB201D002102F045FA04E004F1240078
:1029B000022102F0C5FA05462E4655B9D8F848005E
:1029C000D4F8A01020F4403000250843C8F848008F
:1029D0003E46A078400727D5D4F88400B0F5401FC4
:1029E00016D0B0F5001F0DD0B0F5801F40F0AA80C2
:1029F000D8F81C0040F40030C8F81C0008E001269C
:102A00000125E6E704F12400012102F099FA0546C8
:102A10002F4655B9D8F84400D4F8841020F440105B
:102A200000250843C8F844003746A078C00701D104
:102A30003E461EE0E06CB0F5803F07D0B8B9D8F84C
:102A40001C0040F40030C8F81C0004E0201D0221E6
:102A500002F0F0F905462E465DB9D8F83C00E16C6D
:102A600020F4803000250843C8F83C00E0E7012648
:102A700001252068810008D504F12400022102F01C
:102A80005FFA002818BF0126206881031BD5E16F7B
:102A90006FF0010202EB3122022A0AD34FEA3122FF
:102AA0003AB1012A06D1D8F81C2042F40032C8F805
:102AB0001C200DB1012606E0D8F8442022F4407213
:102AC0001143C8F84410C10207D5D8F84010226F4E
:102AD00021F000411143C8F84010C10008D5D8F8D2
:102AE0000010D4F8B42021F480411143C8F800103C
:102AF000810207D5D8F84010A26E21F080711143F1
:102B0000C8F8401041000CD5D8F8001021F400415D
:102B1000C8F80010D4F8B810D8F800201143C8F84D
:102B20000010B0F1FF3F07DCD8F83C00216D20F029
:102B300040500843C8F83C00002E18BF012630461C
:102B4000BDE8F087012701256FE7D4F8B0004FF604
:102B5000CF73D8F80020C0F2FF0300F4407122F4D4
:102B60007C5203EA1013B1F5407F4FF0000508BF17
:102B70001A436FF31F30C8F80020D8F860100843DC
:102B8000C8F8600096E500002DE9F04381B0002808
:102B900000F01B8142F200080446C5F20028894675
:102BA000D8F8000000F00F0088420ED2D8F80000DC
:102BB00020F00F0040EA0900C8F80000D8F8000033
:102BC00000F00F00484540F00081206844F20047C3
:102BD0004107C5F602070AD52169BA6902F07002F9
:102BE000914204D9BA6922F070021143B961010718
:102BF0000AD56169FA6902F07002914204D9FA6952
:102C000022F070021143F961C1060AD5A169FA697F
:102C100002F4E062914204D9FA6922F4E0621143BD
:102C2000F96181060AD5E1693A6A02F070029142BF
:102C300004D93A6A22F070021143396210F002019D
:102C40000AD0E268BB6903F00F039A4204D9BB695A
:102C500023F00F031A43BA61C20738D0B86920F4D1
:102C60007061D4E90102032841EA0201B96105D08B
:102C7000022807D1396889030DD4A6E03968890193
:102C800009D4A2E00128396802D1C90503D49CE027
:102C9000490740F19A80396921F0070108433861FA
:102CA000FEF718FF064641F2883500BF38696168B3
:102CB00000F03800B0EBC10F06D0FEF70BFF801B11
:102CC000A842F3D9032081E0206800F0020151B14D
:102CD000E168BA6902F00F02914204D2BA6922F0A7
:102CE0000F021143B961D8F8001001F00F014945F6
:102CF0000DD9D8F8001021F00F0141EA0901C8F8F8
:102D00000010D8F8001001F00F0149455DD14107CE
:102D10000AD52169BA6902F07002914204D2BA69F7
:102D200022F070021143B96101070AD56169FA699D
:102D300002F07002914204D2FA6922F0700211434B
:102D4000F961C1060AD5A169FA6902F4E06291420B
:102D500004D2FA6922F4E0621143F96180060AD5CF
:102D6000E069396A01F07001884204D2396A21F0C1
:102D700070010843386200F081F8B96949F2F8330C
:102D8000C0F60103C1F30321BA6902F00F02595CD6
:102D90009A5C01F01F0120FA01F102F01F0040F2DD
:102DA000080221FA00F0C2F20042106040F2B010B6
:102DB00040F20402C2F20040C2F200420068116018
:102DC00001B0BDE8F043FEF7D1BE012001B0BDE87F
:102DD000F08344F20040C5F60200016841F400218E
:102DE0000160704780B500F049F844F2184149F29B
:102DF000F833C5F60201C0F601030A68C2F30322E4
:102E0000096801F00F019A5C595C02F01F0220FA78
:102E100002F201F01F0040F2080122FA00F0C2F2B3
:102E20000041086040F20401C2F200410A6080BD26
:102E300080B5FFF7D7FF44F21C4149F2F832C5F6DE
:102E40000201C0F601020968C1F30211515C01F0F0
:102E50001F01C84080BD80B5FFF7C4FF44F21C418C
:102E600049F2F832C5F60201C0F601020968C1F361
:102E70000221515C01F01F01C84080BD44F20041B5
:102E8000C5F602010869C0F3C20003280FD002286A
:102E90002BD078BB0868800649F20000C0F2D03021
:102EA00058BF70470968C1F3C101C84070478A6ABA
:102EB000886AC0F3051CCB6A486B03F00103BCF1C0
:102EC000000FC0F3CC0003FB00F000EE100AB8EED8
:102ED000400A14D002F00302022A12D0A2B90868F4
:102EE000800614D49FED251A1EE047F64000C0F27C
:102EF0007D10704740F60010C0F23D007047002082
:102F000070479FED1D1A0FE09FED1A1A0CE008683C
:102F100049F20002C0F2D032C0F3C10022FA00F040
:102F200001EE100AB8EE411A02EE10CA9FED144AE3
:102F3000B8EE422A086B6FF35F2003EE100A81EEB1
:102F4000021AB8EE433A086B00EE043AB7EE000AF4
:102F5000C0F34620013033EE000A21EE000A01EEF4
:102F6000100AB8EE411A80EE010ABCEEC00A10EE5B
:102F7000100A70470024744A20BCBE4B0024744CD5
:102F800000000039F0B581B0002800F0258104462A
:102F9000007844F20046C007C5F6020612D0306938
:102FA00000F03801B06A102905D018292BD100F0A3
:102FB0000300022827D13068800303D56068002809
:102FC00000F00A812078800777D5306910F0380149
:102FD000B06A29D0182908BF5FEA807024D0E06861
:102FE000316800283DD021F0190108433060FEF718
:102FF00071FD0546306840071DD4FEF76BFD401B90
:103000000228F7D98BE16068E8B3B0F5803F07D0BC
:10301000B0F5A02F306840F06F8140F48020306020
:10302000306840F480306DE13068400703D5E068D7
:10303000002800F0D180FEF746FD41F203018842EE
:1030400008D820697168402821F47C3132D141F4DC
:10305000003031E07068216920F0FE4040EA0160F4
:103060002AE021F001003060FEF734FD054600BF84
:103070003068400721D5FEF72DFD401B02284FF098
:103080000300F5D94CE1306820F4803030603068BE
:1030900020F480203060FEF71DFD05463068800377
:1030A0007FF590AFFEF716FD401B64284FF003003C
:1030B000F4D935E141EA003070602078C00651D57E
:1030C000306900F03801B06A082905D0182918D1F4
:1030D00000F00300012814D13068C00502D5E06972
:1030E000802879D1FEF7EFFC41F2030188421CD819
:1030F000206A7168202821F0F84130D141F08040E9
:103100002FE0E0690028306817D040F08000306080
:10311000FEF7E0FC054600BF3068C005E2D4FEF7CC
:10312000D9FC401B0228F7D9F9E0F068216A20F0A9
:103130007C5040EA0160F06014E020F080003060D4
:10314000FEF7C8FC054600BF3068C0050AD5FEF78B
:10315000C1FC401B02284FF00300F5D9E0E041EA32
:10316000806070602078000738D42078800648D4CA
:103170002078400759D4656A65B3306900F038009B
:10318000182840F09780012DB16A306B24D001F0EF
:103190000302A36A9A421FD1C1F30511E26A914268
:1031A0001AD10146226B6FF35F21013A914213D18C
:1031B000C0F34621626B013A91420DD1C0F3064142
:1031C000A26B013A914207D1C0F30660E16B01396D
:1031D000884201D10020A3E00120A1E0606900281D
:1031E000706F35D040F001007067FEF773FC054644
:1031F000706F8007B9D4FEF76DFC401B0228F7D929
:103200008DE0A0690028306842D040F480503060E2
:10321000FEF760FC054600BF30688004A8D4FEF7C6
:1032200059FC401B0228F7D979E0D6F8000440F495
:103230008070C6F80004FEF74DFC0546D6F8000481
:10324000C00515D4FEF746FC401B6428F6D966E09D
:1032500020F001007067FEF73DFC0546706F8007A7
:103260007FF583AFFEF736FC401B0228F6D956E007
:10327000A068002856D0012806D00528306F40F0FD
:10328000CB8040F004003067306F40F00100C9E0AF
:1032900020F480503060FEF71DFC05463068800445
:1032A0007FF566AFFEF716FC401B02284FF00300C7
:1032B000F4D935E0306820F080703060FEF70AFC09
:1032C000022D05460CD100BF3068800144D5FEF7C1
:1032D00001FC401B02284FF00300F5D920E000BF9D
:1032E000306880017FF576AFFEF7F4FB401B0228C3
:1032F0004FF00300F4D913E020F4803030603068E0
:1033000020F480203060FEF7E5FB0546306880033E
:103310003FF558AEFEF7DEFB401B6428F6D90320CC
:1033200001B0F0BD306F20F001003067306F20F049
:1033300004003067FEF7CEFB054641F2883700BF38
:10334000306F80077FF517AFFEF7C4FB401BB84214
:103350004FF00300F4D9E3E704F12807B06A40F224
:10336000F33188438ECF0843591E40EA02104FF4D0
:103370007E42B06202EB47206FF35F214FF4FE0202
:1033800080B2E36B0844A16B02EB01414FF0FE42B7
:1033900001F4FE0102EB0362084402F0FE4108441E
:1033A0003063F06A4FF6F87120F00100F062706B44
:1033B000A26C884340EAC2007063F06A216C20F07E
:1033C0000C000843F062F06A616C20F002000843D0
:1033D000F062F06A40F48030F062F06A40F400304D
:1033E000F062F06A40F48020F062F06A40F0010080
:1033F000F062306840F080703060FEF76BFB04468E
:10340000306880013FF5E6AEFEF764FB001B022842
:103410004FF00300F4D983E720F001003067306FEC
:1034200020F004003067FEF755FB054641F288376F
:10343000306F80073FF59FAEFEF74CFB401BB84254
:103440004FF00300F4D96BE7006800EB8100006DDA
:103450007047006800EB810002657047B0B50068F6
:10346000002A40684FEA1043CB70C0F3042E00F0EE
:103470003F0C81F801E081F802C0C0F342320A70CB
:103480001BD1C0F3035203F00F034FEA1E1402EBEB
:103490008202050A00F00F0003EB4202CA7044EA00
:1034A000840305F00F054FEA1C1405EB43034B7032
:1034B00044EA840200EB420088700020B0BDB0B541
:1034C0000068002A836A4B6003696FF3DF338B6007
:1034D000006800F07F0CC0F305430B70C0F3062EAC
:1034E00081F801E081F802C0C0F38052CA701BD19C
:1034F0001B09020C43EA830302F00F024FEA1E1479
:1035000002EB43020A7004EB84034FEA1C14050A21
:1035100000F00F0004EB840205F00F0505EB4303F8
:103520004B7000EB420088700020B0BD10B580B336
:10353000044690F8210028B9002084F82000204695
:1035400000F03BF8022084F821002068CA21416283
:1035500053214162204601F079FDB0B994E803504F
:103560004FF6BF738268CFF68F731A40826022696C
:103570001143A26911438268114381604EEA0C41F4
:103580000161204601F085FD28B12168FF224A62D1
:1035900010BD012010BD20686169E269C36C114350
:1035A00023F00303C364C26C1143C164FF21416271
:1035B000012084F82100002010BD7047F0B581B0D3
:1035C000044690F8200001284FF0020000F08280AD
:1035D0004FF0010384F8203084F8210032B148789C
:1035E000CA788E78000240EA02454EE04878C2066A
:1035F00003D500F0EF000A304870CA780A2A10D3C9
:103600000A3A4CF6CD47D3B2CCF6CC47A3FB0737EA
:10361000FB0803EB8307A2EB4702102707EB03131A
:1036200000E000231A430A28D2B24FEA024210D324
:103630000A384CF6CD47C3B2CCF6CC47A3FB0737CC
:10364000FB0803EB8307A0EB4700102707EB0313EE
:1036500000E0002303438878DBB20A2842EA03250E
:1036600010D30A384CF6CD43C2B2CCF6CC43A2FB01
:103670000323DA0802EB8203A0EB4300102303EBE1
:10368000021200E0002240EA020620680F78CA21F8
:10369000416253214162204601F0D8FC18B12168F3
:1036A000FF224A6213E0F0B22168284320F0C000F4
:1036B00040EA47304860204601F0EBFC21684FF0BB
:1036C000FF024A6218B9012084F82100002000217D
:1036D00084F8201001B0F0BD70B5044690F82000C9
:1036E00001284FF0020008BF70BD0D46012184F88B
:1036F0002010CA2184F82100164620684162532117
:103700004162204601F0A2FC18B12168FF224A6202
:1037100079E02068816801F040011EB1C9B1E97803
:10372000890518E009B90021E9702A784CF6CD4CDA
:10373000CCF6CC4C0A2A17D30A3AD3B2A3FB0C36E8
:10374000F30803EB8306A2EB4602102606EB0316F2
:103750000BE00021E9702A786B78AE781B0243EA0F
:1037600002423244114332E000266B783243D2B237
:103770000A2B4FEA02420CD30A3BDEB2A6FB0C61D5
:10378000C90801EB8106A3EB4603102606EB0116E0
:1037900000E0002643EA0601AB78C9B20A2B42EAF0
:1037A00001220DD3A3F10A01CBB2A3FB0C36F6081C
:1037B00006EB8603A1EB4303102101EB061100E0A9
:1037C00000211943EB78C9B2114341EA835147F60E
:1037D0007F72C0F27F0211400160816821F4802174
:1037E0008160D5E90312114382681143816020464C
:1037F00001F04FFC21684FF0FF024A6218B9012026
:1038000084F821000020002184F8201070BD000001
:10381000B0B504460068C16821F0A001C160FEF7A0
:1038200059F905462068C068800607D4FEF752F9AA
:10383000401BB0F57A7FF5D90320B0BD0020B0BDA4
:1038400020B3B0B5044690F82C000D4628B90020EE
:1038500084F82D00204600F01BF8022084F82C008C
:103860002068211DFDF7B6FAD4E900022946FDF7CC
:1038700015FB44F20000C5F20020016841F0004150
:103880000160012084F82C000020B0BD01207047A9
:103890002DE9F04387B002A81421FCF7FDFD40F2AA
:1038A000C020C2F200400178002940F084804FF02F
:1038B000010880F8008044F2E04040F60004C5F6BC
:1038C0000200C5F6020402AD4FF0020950F80C1CCC
:1038D000032641F4805140F80C1C50F80C1C0C27B6
:1038E00001F4805101910199016841F010010160DA
:1038F000016801F0100101910199016841F0400156
:103900000160016801F0400101910199016841F0F5
:1039100008010160016801F0080101910199016845
:1039200041F020010160016801F02001019101993D
:10393000016841F0040101600068294600F00400BC
:10394000019001984FF68370029004F50060CDE974
:10395000039805960697FDF7BBFF48F21710294616
:10396000CDE9020904F58050CDE904860697FDF7FC
:10397000AFFF4CF203702946CDE9020904F58060DF
:10398000CDE904860697FDF7A3FF4FF63F002946D1
:10399000CDE9020904F54060CDE904860697FDF7FC
:1039A00097FF0D202946CDE902092046CDE904867E
:1039B0000697FDF78DFF07B0BDE8F083B0B505466B
:1039C00090F82C00022801D102240DE095F82C007B
:1039D0000124012808D1022085F82C002868FDF771
:1039E0003EFA85F82C4000242046B0BDB0B5044610
:1039F00090F82C000D46052804D0022808BFB0BD61
:103A000001280BD1022084F82C0020682946FDF7FC
:103A100031FA2868022803D1052002E00120B0BD58
:103A2000012084F82C000020B0BD2DE9F04387B0C0
:103A3000044602A81421FCF72FFD47F2000120687C
:103A4000C5F20021884249D144F2D44040F6000436
:103A5000C5F60200C5F6020402AD4FF00208016887
:103A60004FF0010941F4803101600168032601F43F
:103A7000803101910199C16841F00401C160C168C0
:103A80000C2701F0040101910199C16841F008017E
:103A9000C160C068294600F00800019001984FF409
:103AA000F85002902046CDF80C80CDF81090059685
:103AB0000697FDF70DFF02A9042081E8010304F534
:103AC00080602946CDE90567FDF702FF312000211E
:103AD0000022FEF77FF83120FEF76DF807B0BDE851
:103AE000F083704790F881007047F0B581B00028EE
:103AF00000F08F8043F6000304460068C4F2000320
:103B000043F2000E43F6004C9842C4F2010EC4F298
:103B1000000C4FF00001A16203D0604518BF704552
:103B200073D1E16B0125E268984202F1080205EBCE
:103B300051114FEAD20202FB01F118BF70455BD16F
:103B4000102966D894F8811031B9002084F88000DB
:103B5000204600F076F82068022184F88110016880
:103B600021F001010160D4F818C06168BCF1806FD8
:103B700008BFB1F5800F07D1A16B19B9016841F4F5
:103B8000805101604FF48001E369A56A2B43E56B26
:103B90002B43D4E902E2D4E9047642EA03028260CC
:103BA000626BA56B636A42EA0C0242EA0302236A73
:103BB00042EA050242EA0702A76C42EA060242EA2A
:103BC0000302E36C42EA010242EA0302A36D42EA05
:103BD0000E0242EA070242EA0302C260D9B1026D54
:103BE000490222F00101016523D5C168626D21F00F
:103BF00000411143C1601CE0604518BF082908D886
:103C0000704518BF60459BD09CE7E1680F297FF69F
:103C100088AF012013E08168012262F3CC2181602A
:103C20008168022262F34A218160016D21F0010165
:103C300001650020C4F88400012184F8811001B0DE
:103C4000F0BD2DE9F04786B0044601A81421FCF729
:103C500023FC43F200012068C4F2010188425ED1D6
:103C600044F2E0400024C5F60200C5F6020401ADAE
:103C70004FF0200801694FF0020941F480510161C1
:103C800001694FF0010A01F4805100910099016827
:103C900041F0010101600168032701F00101009179
:103CA0000099016841F0020101600168052601F0F8
:103CB000020100910099016841F00801016001686A
:103CC00001F0080100910099016841F04001016094
:103CD0000068294600F04000009000982046CDF88A
:103CE0000480CDF80890CDF80CA004970596FDF758
:103CF000EFFD01A8294680E8000704F58060CDE9C2
:103D00000476FDF7E5FD01A94FF4007081E8010696
:103D100004F5C0502946CDE90476FDF7D9FD06B07B
:103D2000BDE8F0872DE9F04782B004464068B0F561
:103D3000800F1D4617460E46D4F8009002D1A068A9
:103D400000286BD094F88000012865D0012084F809
:103D50008000FDF7BFFE94F88110012959D1002E93
:103D600067D0002F65D08046042084F881000020B1
:103D7000C4F884006666A4F86870A4F86A70E06508
:103D8000A4F86000A4F86200A1682067B1F5C02F14
:103D90006067206803D1016821F400610160416817
:103DA0004FF6FF72914339444160016841F00101CF
:103DB00001606168B1F5800F03D1016841F40071C1
:103DC0000160E268102A39D3B4F86A10002900F0C3
:103DD000A58048F208066F1C416931420AD0006B89
:103DE000616E41F8040B6166B4F86A000138A4F80A
:103DF0006A0007E0FDF76EFE27B1A0EB0800A842BD
:103E000080F09D80B4F86A00002800F08780206868
:103E1000E2E7002084F8800002208DE0042084F88E
:103E200081002046314632463B46009500F082FA3A
:103E300082E0002084F8800001207DE0B4F86A1060
:103E4000072A2ED9002969D04FF6FC716E1C01F1AA
:103E5000030A8F1C416911F4604F09D041690904BC
:103E60000ED4B9F83000616E21F8020B50460CE018
:103E7000FDF730FE7EB1A0EB0800A8420BD35EE058
:103E8000006B616E41F8040B38466166B4F86A1045
:103E90000844A4F86A00B4F86A0000283ED02068FC
:103EA000D8E7D9B34FF6FC716E1C01F1020ACF1CA2
:103EB000416911F4604F0FD04169090414D441697C
:103EC00001F4C041B1F5005F16D9B9F83000616E58
:103ED00021F8020B50460DE0FDF7FCFDCEB1A0EB42
:103EE0000800A84215D32AE0006B616E41F8040B6C
:103EF0004FF6FC70616607E090F83000616E087064
:103F0000606E013060663846B4F86A100844A4F860
:103F10006A00B4F86A0008B12068C9E7204601F0D9
:103F2000A9F9002084F88000012084F88100D4F8E9
:103F30008400002818BF012002B0BDE8F0872046A9
:103F400001F098F9002084F88000D4F8840040F44F
:103F50008070C4F88400012084F88100ECE7B0B5DB
:103F60000446806815460A4668B96168B1F5800F55
:103F700009D1042084F88100204611462B46BDE873
:103F8000B04000F06CBB94F8801001292ED00121C4
:103F900084F8801094F88110012924D1002A41D09E
:103FA000002D3FD0B0F5C02F4FF0040184F88110F0
:103FB0004FF00001C4F884106266A4F86850A4F8B9
:103FC0006A50C4E91C11A4F86010A4F8621004D16E
:103FD0002068016821F400610160E068102807D3BF
:103FE000E16F89690BE0002084F880000220B0BDF9
:103FF000082807D3E16F8969B1F5005F02D0B1F5F8
:10400000804F0FD1216807288B6823F480438B6091
:104010000DD8E06F8369B3F5804F14D0B3F5005F1E
:104020000CD016E0002084F880000120B0BD0F28DD
:10403000E06F0ED88369B3F5804F0AD1B4F86A30C7
:1040400001335B0803E0B4F86A3003339B08A4F83B
:104050006A3045F26D3345F25B3CC0F60003C0F6B2
:10406000000CC0E90F3C45F22B333031C0F60003A1
:10407000C36400230365B4F86A30FDF7C1F948B1A1
:10408000D4F8840040F01000C4F88400012084F8C3
:104090008100B0BDE16F4FF6FF72D4E9000CC96931
:1040A0004368B1F5807F23EA020218BF2A44BCF5B9
:1040B000800F4260816841F480418160016941F470
:1040C00050710161016841F00101016003D1016893
:1040D00041F400710160002084F88000B0BD704799
:1040E000704700002DE9F047044690F88000012851
:1040F00068D01D4617460E46D4F80090012084F87B
:104100008000FDF7E7FC94F88110012957D1002EBB
:104110005BD0002F59D08046032084F88100002016
:10412000C4F88400E665A4F86070A4F86270606664
:10413000A4F86800A4F86A00A1682067B1F5C02F50
:104140006067206803D1016841F400610160416843
:104150004FF6FF72914339444160016841F001011B
:1041600001606168B1F5800F03D1016841F400710D
:104170000160E268102A2ED3B4F86210002900F022
:10418000A3806E1C4169890708D4FDF7A3FC7EB1AA
:10419000A0EB0800A8420BD3BAE000BFE16D51F8D4
:1041A000042B0262E165B4F862000138A4F86200F1
:1041B000B4F86200002800F087802068E2E7002061
:1041C00084F880000220BDE8F087002084F8800099
:1041D0000120BDE8F087B4F86210072A32D900291F
:1041E00072D04FF6FC716E1C01F1020ACF1C00BFA9
:1041F0004169890707D4FDF76DFCEEB1A0EB08001B
:10420000A84219D384E0B4F86210022908D3E16B04
:1042100031B1E16D51F8042B0262E165504606E0D0
:10422000E06D30F8021BA9F82010E0653846B4F8BC
:1042300062100844A4F86200B4F86200002843D079
:104240002068D5E700293FD04FF6FC716E1C01F1C4
:10425000020ACF1C4169890707D4FDF73BFC76B3FE
:10426000A0EB0800A8422AD352E0B4F86210042957
:104270000AD3E16B412907D3E16D51F8042B0262A7
:10428000E1654FF6FC7015E0B4F86210022909D31D
:10429000E16B39B1E06D30F8021BA9F82010E06540
:1042A000504607E0E16D097880F82010E06D01309C
:1042B000E0653846B4F862100844A4F86200B4F827
:1042C000620008B12068C5E76E1C00BF2068406925
:1042D00000070DD4FDF7FEFB002EF7D0A0EB080081
:1042E000A842F3D3D4F8840040F02000C4F884003E
:1042F000204600F0BFFF002084F88000012084F8F1
:104300008100D4F88400002818BF0120BDE8F087A0
:10431000204600F0AFFF002084F88000D4F884002D
:1043200040F48070C4F88400012084F88100BDE866
:10433000F08700002DE9F04F81B0044690F880002E
:10434000012800F089809A4615460F46D4F800905F
:10435000012084F88000FDF7BDFB94F881108046B1
:1043600001296CD1002F79D0002D77D0BAF1000F40
:1043700074D094F88100042802D0052084F88100CC
:104380000021C4F8841065664FF6FF73A4F86AA094
:10439000A4F868A0E765A4F862A02068A4F860A06B
:1043A0002167616761684268B1F5800F22EA030204
:1043B00052444260026842F00101016003D1016889
:1043C00041F400710160E068DDF828B010284CD39A
:1043D00048F208050BF10107564600BF56EA0A00ED
:1043E00000F01A812068BAF1000F416918BF11F07E
:1043F00002010BD0E16D51F8042B0262E165B4F8C3
:1044000062100139A4F86210B4F862A041696EB17B
:1044100029400BD0006B616E41F8040B6166B4F863
:104420006A000138A4F86A00B4F86A60FDF752FB2C
:10443000002FD3D0A0EB08005845CFD3DCE0606854
:10444000B0F5800F05D1042903D1A06800283FF4FE
:1044500089AF002084F88000022003E0002084F867
:104460008000012001B0BDE8F08F07284FF6FE70F4
:104470000BF101074FD9461C554600BF55EA0A000B
:1044800000F0CA802068BAF1000F416918BF11F02E
:1044900002011AD0BAF1010F09D0E16B39B1E16D17
:1044A00051F8042B0262E1654FF6FE7106E0E16D02
:1044B00031F8022BA9F82020E1653146B4F86220DA
:1044C0001144A4F86210B4F862A04169D5B111F4A6
:1044D000604117D04169090406D4B9F83000616E13
:1044E00021F8020B304605E0006B616E41F8040BC9
:1044F0004FF6FE706166B4F86A100844A4F86A00CA
:10450000B4F86A50FDF7E6FA002FB7D0A0EB080028
:104510005845B3D370E0851E5646411C009100BF3C
:1045200056EA0A0078D02068BAF1000F416918BF36
:1045300011F002012CD0BAF1040F0BD3E16B412929
:104540000CD3E16D51F8042B0262E165B4F86210FE
:10455000043919E0BAF1020F0BD3E16B49B1E16DF7
:1045600031F8022BA9F82020E165B4F86210023975
:104570000AE0E16D097880F82010E06D0130E06517
:104580002068B4F862100139A4F86210B4F862A08F
:1045900041694EB311F4604126D0416909040DD43C
:1045A000416901F4C041B1F5005F0ED9B9F830009E
:1045B000616E21F8020B4FF6FE7004E0006B616E35
:1045C00041F8040B2846616607E090F83000616E00
:1045D0000870606E013060660098B4F86A10084494
:1045E000A4F86A00B4F86A60FDF774FA002F97D057
:1045F000A0EB0800584593D3204600F03BFE002076
:1046000084F88000D4F8840040F48070C4F88400FA
:10461000012084F8810025E70BF10105206840693D
:1046200000070DD4FDF756FA002DF7D0A0EB0800D7
:104630005845F3D3D4F8840040F02000C4F8840037
:10464000204600F017FE002084F88000012084F846
:104650008100D4F88400002818BF012002E770B55B
:10466000044690F88000012816D0012084F88000CC
:104670001D4694F881006368B3F5800F0ED10128C0
:104680000ED0A36880F004001843B0FA80F040090F
:1046900006D1002084F88000022070BD0128F8D1E6
:1046A00000293ED0EAB3E5B394F88100042802D093
:1046B000052084F881000020C4F88400E165A4F896
:1046C0006050A4F862506266A4F86850A4F86A507A
:1046D000216820676067E0688A68102822F44042F9
:1046E0008A6005D3E06F8269B2F5804F19D143E04B
:1046F00008281BD3E06F8269B2F5005F18BFB2F5DE
:10470000804F0ED1A36F9B69B3F5804F05D1B4F8EC
:10471000623001335B08A4F86230B2F5804F20D0DC
:104720002AE0002084F88000012070BDA06F80691D
:10473000B0F5005F05D0B0F5804F0AD1022203200A
:1047400001E001200122B4F862301844D040A4F8FE
:104750006200E06F8269B2F5804F07D0B2F5005F6A
:104760000AD1B4F86A200132520803E0B4F86A2092
:1047700003329208A4F86A2094F8812045F2B936F1
:10478000C0F6000645F25B33042A45F26D32C0F6EE
:104790000002C0F6000308BF164645F2673201F179
:1047A0003001C0F6000208BF1A46C0E90F6245F2A8
:1047B0002B320026C0F60002C2640665626EB4F8B1
:1047C0006A30FCF71DFE80B92268E16DA06F936826
:1047D00043F480439360C0E90F66C0E91366B4F800
:1047E00062302032FCF70CFE48B1D4F8840040F06F
:1047F0001000C4F88400012084F8810070BDA16F0E
:104800004FF6FF76D4E90002C9694368B1F5807FAD
:1048100023EA060318BF2B44B2F5800F436081687A
:1048200041F400418160016941F4587101610168FE
:1048300041F00101016003D1016841F400710160A0
:10484000002084F8800070BDB0B5044690F8800068
:10485000012830D0012084F8800094F881000128DC
:1048600026D1A1B3154692B3032084F8810000201D
:10487000C4F88400E165A4F86050A4F86250606652
:10488000C4E91C00A4F86800A4F86A00A068B0F5A8
:10489000C02F04D12068026842F400620260E2681E
:1048A000102A0AD3A06F8269B2F5804F0FD124E09D
:1048B000002084F880000220B0BDA06F082A826921
:1048C0000AD3B2F5005F18D0B2F5804F0AD00020AD
:1048D00084F880000120B0BDB2F5804F07D0B2F55A
:1048E000005F0AD1B4F862200132520803E0B4F844
:1048F000622003329208A4F8622045F2933245F216
:104900006133C0F60002C0F60003C0E90F2345F290
:104910002B320023C0F60002C2642268036593684C
:1049200023F400439360B4F862302032FCF768FD52
:1049300048B1D4F8840040F01000C4F8840001208D
:1049400084F88100B0BDA16F4FF6FF72D4E9000C6E
:10495000C9694368B1F5807F23EA020218BF2A447F
:10496000BCF5800F4260816841F4004181600169BB
:1049700041F448710161016841F00101016003D116
:10498000016841F400710160002084F88000B0BD2E
:1049900070477047704770474EF210010428CEF2FE
:1049A00000010A6822F0040308BF42F004030B6010
:1049B0007047411E0020B0EB116F01D001207047FD
:1049C0004EF21002F023CEF2000251604EF6235157
:1049D000CEF200010B700721906011607047B0B5F6
:1049E000C0B1044624200025C4F880002068016876
:1049F00021F001010160056045608560204600F0FE
:104A00003FF8C4F88850C4F88050C4F8845084F843
:104A10007C5000E001252846B0BD704710B5B0B10C
:104A20000446D0F8800028B9002084F87C00204695
:104A300000F05EF82420C4F880002068016821F0AE
:104A400001010160204600F0BFFE012801D10120D4
:104A500010BDA06A10B1204600F0CDFD206841686D
:104A600021F490414160816821F02A018160016850
:104A700041F0010101602046BDE8104000F01EBE7B
:104A800010B544F600410068C4F20001884217D016
:104A900040F60041C5F60001884218BF10BD44F23F
:104AA000E84240F20040C5F60202C5F60200C0210D
:104AB000D36823F00803D360BDE81040FCF760BE64
:104AC00044F2E84040F20044C5F60200C5F6020494
:104AD000016821F4002101604FF480712046FCF749
:104AE0004FFEA4F580600121BDE81040FCF748BEF0
:104AF0002DE9F04186B0054640F2000801A81421D6
:104B0000C5F60208FBF7C8FC44F600412868C4F269
:104B10000001884226D040F60041C5F600018842D7
:104B200058D144F2E040C5F60200416941F0080165
:104B30004161416901F0080100910099016841F06B
:104B400001010160006800F00100009000984FF43E
:104B5000C060019002200290012003900320CDE963
:104B6000040033E044F2E0400225C5F602000126CD
:104B700003270824816841F400218160816801F4E1
:104B8000002100910099016841F480710160016881
:104B900001F4807100910099016841F00101016008
:104BA000006801A900F00100009000984FF4007027
:104BB000019008F500500295039604970594FCF7C0
:104BC00087FECDE90165CDE90367059401A940465B
:104BD000FCF77EFE06B0BDE8F081B0B50546D0F822
:104BE0008000202806D1A9B313469AB395F87C001B
:104BF000012801D102242EE0012085F87C002965DE
:104C00000024A5F854302120A5F85630C5F8884076
:104C1000C5F88000686F00B345F29B7245F2C37C13
:104C2000C0F60002C0F6000CC0E90F2C45F223725A
:104C30000465C0F60002C2642A682832FCF7E0FB73
:104C400058B11020C5F88800002085F87C0020208D
:104C5000C5F8800001242046B0BD286840210162CB
:104C600085F87C40816841F080018160F3E77047FE
:104C7000704780B50CF0E2FD42F27430C2F20040A1
:104C800000F5BE7014F02CFABDE880400CF0F9BDC0
:104C900070472DE9F041D1F824C0B2F1406F18BF40
:104CA000BCF1000F03D003688C6A013C1C61D1F891
:104CB00018E0BEF1000F0B6A20D0C3B300688D6806
:104CC000D1E90487CC69C561CD6A43EA0C030E6B58
:104CD0002B434D6B33432B4343EA874343EA08039B
:104CE000D4B34EEA0207CD6827430E683B43B2F1C6
:104CF000406F43EA050343EA060246E08BB30068CF
:104D00008F68D1E904E5CC69C761CF6A43EA0C0337
:104D10000E6B3B434F6B33433B4343EA854343EACC
:104D20000E03C4B344EA0206CF68334329E0D1E955
:104D30000B5645EA0C074C694D6B3743CB692F4343
:104D400047EA844453B34EEA0206CD6833430F6802
:104D5000234300682B4314E042EA0E0209681A4319
:104D600021E0CB691BB34CEA0205CC6A2B430D6BE7
:104D700023434E694C6B2B432343CF68006843EABF
:104D80008643B2F1406F43EA070242610DD04968A1
:104D90008161BDE8F08143EA020105E042EA0E02CA
:104DA00000680968224311434161BDE8F081BCF10C
:104DB000000F08BFBDE8F081D1E90B7642EA0C0292
:104DC0004B693A43496B32430068114341EA8341DE
:104DD000EAE700002DE9F04381B0044600680D4683
:104DE0008768394018BF0121914216D0DDF8208034
:104DF0001646994608F101074FB1FCF76BFEB8F172
:104E0000000F0CD0A0EB0900404508D8206881684D
:104E1000294018BF0121B142EED1002007E0042053
:104E200084F84100606C40F001006064012001B032
:104E3000BDE8F083F0B581B044F20047C5F6020743
:104E4000BA6A02F00302032A01D1012075E0054687
:104E500038680C4620F080603860FCF73BFE064660
:104E60003868000105D5FCF735FE801B0228F7D90C
:104E700060E0B86AEE6895E80E0020F47C3040EA05
:104E80000130A2F101014FF47E42B86202EB4322ED
:104E90004FF0FE436FF35F2192B202EB01004FF43B
:104EA000FE012A6901EB064101F4FE0103EB0262F7
:104EB000084402F0FE410844B863F86A696920F0CA
:104EC000C00040EA0100F862F86AA96920F02000F9
:104ED00040EA0100F862F86A4FF6F87120F010001D
:104EE000F862F86BEA6920EA010040EAC200F86360
:104EF000F86A40F01000F8622CB1012CF86A06D173
:104F000040F4801005E0F86A40F4002001E040F42D
:104F10000010F862386840F080603860FCF7DAFD15
:104F2000044600BF3868000106D4FCF7D3FD001B1F
:104F30000328F7D3032000E0002001B0F0BD0000FB
:104F4000F0B581B044F20047C5F60207BA6A02F034
:104F50000302032A01D1012075E0054638680C469A
:104F600020F080503860FCF7B5FD064638688000B8
:104F700005D5FCF7AFFD801B0228F7D960E0B86AC1
:104F8000EE6895E80E0020F07C7040EA0150A2F136
:104F900001014FF47E42B86202EB43224FF0FE4320
:104FA0006FF35F2192B202EB01004FF4FE012A6918
:104FB00001EB064101F4FE0103EB0262084402F03A
:104FC000FE4108443864F86A696920F4406040EAA8
:104FD0000100F862F86AA96920F4007040EA010053
:104FE000F862F86A4FF6F87120F48070F862786C15
:104FF000EA6920EA010040EAC2007864F86A40F4F5
:105000008070F8622CB1012CF86A06D140F40000DF
:1050100005E0F86A40F4800001E040F08070F8623A
:10502000386840F080503860FCF754FD044600BFFB
:105030003868800006D4FCF74DFD001B0328F7D329
:10504000032000E0002001B0F0BD000070B5044670
:105050000068C168490619D44FF0FF31C160FCF700
:1050600039FD2168C968490610D40546002600BFED
:10507000FCF730FD401BB0F57A7F02D9032684F897
:1050800021602068C0684006F2D500E00026F0B23A
:1050900070BDB0B544F208050446C5F60005696860
:1050A00021F0400169602968890607D42046FEF78F
:1050B000AFFB78B1032084F82100B0BD286820F050
:1050C000200028602046FEF7A3FB28B1032084F8C7
:1050D000210002E00020B0BD0020296841F020013D
:1050E0002960B0BD80B50CF0A9FB41F22470C2F27A
:1050F00000400068D0F8880042680C30516B916322
:105100000BF07CFBBDE880400CF0BBBB2DE9F0410F
:1051100088B00221009108220192062044F2401337
:10512000CDE9020041F228700491C2F200400591DD
:10513000C5F2002306910360002545600126C0E901
:10514000026210270761402141614FF48071C0E97C
:1051500006154FF4006101624FF48051C0E9091552
:105160006946FEF76DFB58B14BF60830C0F60100FA
:105170000CF09EFB3AA00CF09BFB4FF0FF3565E076
:1051800041F2404441F22870C2F20044C2F20040B1
:105190004FF4805221460795C4E90067C4E90265CF
:1051A000FEF724FC07954FF6FE710798C0F2FF0149
:1051B000884207D86FF07F4007990131079107991E
:1051C0008142F9D341F228760220C2F200462060E3
:1051D0004FF4805230462146102767604FF0010897
:1051E000C4F808800025E560FEF700FC03204FF4BA
:1051F0008052C4E9000708202146C4E90205304670
:10520000FEF7F4FB40F2212007900420079984E880
:105210008101E1604FF4805230462146FEF7E6FB03
:1052200040F2A5213046FEF7C9FB4BF6F520C0F64B
:1052300001000CF03DFB4BF643304FF04041C0F60F
:1052400001004FF0007210230CF032FB4BF25C3087
:10525000C0F601000CF02CFB284608B0BDE8F08138
:10526000534452414D20696E6974206661696C65D2
:1052700064210000016840F26F32D1F814C08B69DC
:1052800043F008038B618B6943F010038B610B685B
:1052900023F001030B600B6923EA02020A618A68AA
:1052A00022F440428A6090F881305FEA8C620BD52C
:1052B000042B09D0D0F8842042F08002C0F884206A
:1052C0008A6942F020028A6190F881305FEA4C627C
:1052D0000BD5032B09D0D0F8842042F00402C0F88B
:1052E00084208A6942F040028A615FEA8C5209D5C3
:1052F000D0F8842042F00102C0F884208A6942F488
:1053000000728A615FEACC5209D5D0F8842042F05D
:105310000802C0F884208A6942F480728A61002100
:10532000A0F86210A0F86A10704710B5846BFBF704
:105330001EFE022808BF10BD2046FFF79BFFD4F8D1
:10534000840040F01000C4F88400012084F881003B
:105350002046BDE81040FEF7C4BB806BFEF7C0BE20
:10536000806BFFF716BB806BFFF715BB806B90F867
:105370008110072908BF7047C16FC969B1F5807FE7
:1053800001D1FEF7ACBE0068016941F0080101617E
:105390007047806B90F88110072908BF7047816FB4
:1053A000C969B1F5807F01D1FFF7F2BA00680169E0
:1053B00041F0080101617047806B90F88110072966
:1053C00008BF7047816FC969B1F5807F01D1FFF7D0
:1053D000E1BA0068016941F0080101617047704756
:1053E00080B50CF02BFAFCF783FB10F0BFF9BDE899
:1053F00080400CF046BA000070B5CCB044F22844AE
:1054000039A84C21C5F60204FBF746F831A8202143
:10541000FBF742F802A8BC21FBF73EF80220FCF79C
:1054200019FC00200190D4F8F00340F44040C4F887
:10543000F003D4F8F00300F44040019040F22C4017
:10544000C5F60000016841F001010160006800F04C
:1054500001000190019800BFD4F8F0038004FBD54F
:10546000FCF71CFCFCF72FFBA06C022520F01800B9
:10547000A06420684FF4803165F3010020600520AE
:1054800039903A9101213B910826CDE9425544904B
:10549000C020CDE9450539A80024CDE947554996F6
:1054A000CDE94A44FDF76EFD32A93F20319003203B
:1054B00051C140204FF48061CDE93500CDE937106E
:1054C00031A80421FDF760FB0220C0F240100290D9
:1054D000142003908020CDE904050A20CDE90605BB
:1054E00008942020CDE909044FF480702E9002A882
:1054F00013951F94FCF7FAFEFDF76BFC4CB070BDE2
:1055000080B54EF6085C42F2000ECEF2000CC5F2F9
:10551000002EDCF8801041F47001CCF88010DEF829
:10552000001001F00F01062906D8DEF8001007224E
:1055300062F30301CEF8001044F200414EF67F53AF
:10554000C5F60201CEF6F6230A6842F001020A60AF
:1055500000220A61086818400860DEF800000007B1
:1055600006D5DEF80000072363F30300CEF8000041
:1055700040F200208A61CA61C0F202200A62886299
:105580000020C0F2FF10C86240F28020C0F201107B
:1055900008634A638863CA6308644A64086820F43D
:1055A0008020086041F200000A66C5F600400068ED
:1055B000B2EB507F05D148F208100121C5F200106E
:1055C000016044F2000043F2D201C5F20020016004
:1055D0004FF00060CCF8000080BD80B50CF02EF9D3
:1055E00042F27430C2F20040943013F079FDBDE80D
:1055F00080400CF046B9816ACA0708D00268D0F82A
:105600002CC0536823F4003343EA0C0353608A0729
:1056100008D50268D0F830C0536823F4803343EAD9
:105620000C0353604A0708D50268D0F834C05368A9
:1056300023F4802343EA0C0353600A0708D5026869
:10564000D0F838C0536823F4004343EA0C03536096
:10565000CA0608D50268D0F83CC0936823F480538A
:1056600043EA0C0393608A0608D50268D0F840C06C
:10567000936823F4005343EA0C0393604A0612D55F
:105680000268D0F844C0BCF5801F536823F480132F
:1056900043EA0C03536006D1536823F4C00C836CB7
:1056A00043EA0C035360090658BF70470168C06C99
:1056B0004A6822F40022104348607047B0B582B0B7
:1056C00004460020C4F88800FCF704FA2168054667
:1056D0000A6812070BD54FF4001100226FF07E40CC
:1056E000009020462B4600F075FA70B921680868D2
:1056F00040070CD54FF4800100226FF07E400090EF
:1057000020462B4600F066FA08B1032007E020206F
:10571000C4F88000C4F88400002084F87C0002B043
:10572000B0BD806B0168D0F88020212AD0F8842099
:105730008B6810D113F080030DD00023A0F85630F1
:105740000B6823F0C0030B608B6823F400038B60AD
:105750002023C0F88030222A8A6816D112F0400235
:1057600013D04FF0000CA0F85EC00B684FF6FE722D
:1057700023F490730B608B68CEF6FF721A408A6038
:105780002021C0F88410C0F86CC0D0F8881041F017
:105790001001C0F88810FFF740B9C169806BB1F5FE
:1057A000807F01D1FFF763BA0021A0F8561000688E
:1057B000816821F080018160016841F04001016051
:1057C0007047806BFFF754BAF0B583B004460068A9
:1057D00004F1080346F6F316E769CCF6FF760ECB24
:1057E000194363690B43656E3B4301682B433140AA
:1057F00019430160416840F6004E21F44051C5F65E
:10580000000E11434160A2694FF2FF437045C1F29F
:10581000FF131CBF216A0A43816844F2004C1940FF
:1058200047F2FF7311438160C16AC4F20003C5F6F9
:10583000020C21F00F01626A98424FF0800341EAA6
:105840000201C16226DD40F6FF71C4F20101884207
:1058500041DD704500F0758041F20041C4F2010164
:10586000884200F07A8041F20001C4F201018842CE
:1058700040F0AE80DCF85410C1F3C205052D00F2F3
:105880009E800123DFE815F0A40099009D009F0091
:10589000A100A30044F6FF31C4F20001884235DCC8
:1058A00044F20041C4F20001884200F0628044F6F4
:1058B0000001C4F20001884240F08A80DCF85410F4
:1058C00001F00705052D00F27A800023DFE805F0DE
:1058D0008075797B7D7F47F60001C4F20001884224
:1058E00000F0538047F60041C4F20001884240F0C6
:1058F0006F80DCF8541001F00705052D00F25F8081
:105900000023DFE805F0655A5E60626444F60041FA
:10591000C4F20001884200F0448045F20001C4F264
:105920000001884240F05480DCF8541001F0070573
:10593000052D00F244800023DFE805F04A3F43458F
:105940004749DCF8581001F00705052D37D8022328
:10595000DFE805F03E3337393B3DDCF85410C1F346
:10596000C205052D2BD80123DFE805F032272B2DAA
:105970002F31DCF8541001F00705052D1FD8002346
:10598000DFE805F0261B1F212325DCF8541001F069
:105990000705052D13D80023DFE805F01A0F1315AE
:1059A0001719DCF8541001F00705052D07D800235E
:1059B000DFE805F00E0307090B0D042308E0802340
:1059C00006E0082304E0102302E0202300E0402347
:1059D000704540F60010C0F23D0013D0B7F5004FFF
:1059E0001FD10F2B4FF0010136DC082B00F2CD80C8
:1059F000DFE803F00584CBCB87CBCBCB8B00FDF767
:105A000017FA86E00F2B4FF001011BDC022B39D077
:105A1000042B3AD0082B40F0B8806846FCF7D4FB42
:105A200036E00F2B4FF0010121DC082B00F2AD8096
:105A3000DFE803F00589ABAB8CABABAB9000FDF7B7
:105A4000F7F98BE0102B4BD0202B25D0402B40F0CA
:105A50009C804FF400401FE0102B00F09F80202B13
:105A600059D0402B40F091804FF4004053E0102B70
:105A700000F0A280202B73D0402B40F086804FF4A2
:105A800000406DE0FCF7FBFA03E06846FCF70AFB18
:105A90000198002876D0626A49F28841C0F6010177
:105AA00031F812106268B0FBF1F002EB420188425B
:105AB0004FF0010169D31303984266D8010E002309
:105AC000000210EB520041F10001FAF79BFC4FF687
:105AD000FF42A0F54071C0F20F02914250D953E04D
