:020000040800F2
:1000000078100024BD020008A1410008C1030008C7
:10001000C103000875070008854E000800000000B5
:100020000000000000000000000000006946000819
:10003000B10B0008000000000F0300086B46000829
:10004000D7020008D7020008D7020008D70200082C
:10005000D7020008D7020008B30B0008050C0008FF
:10006000190C00082D0C0008410C0008D7020008EC
:10007000D7020008D7020008D7020008D7020008FC
:10008000D7020008D7020008D7020008D7020008EC
:10009000D7020008D7020008D7020008550C000854
:1000A000D7020008D7020008D7020008D7020008CC
:1000B000D7020008D7020008D7020008D7020008BC
:1000C000D7020008D7020008D7020008D7020008AC
:1000D000D7020008D7020008D7020008D70200089C
:1000E000C70B0008D702000800000000D702000874
:1000F000D7020008D7020008D7020008D70200087C
:10010000D7020008D7020008D7020008D70200086B
:1001100029480008D7020008D7020008D7020008C3
:10012000D7020008D7020008D7020008D70200084B
:10013000D7020008D7020008D7020008D70200083B
:1001400000000000000000000000000000000000AF
:10015000D7020008D7020008D7020008D70200081B
:10016000D7020008D7020008D7020008D70200080B
:10017000D7020008D7020008D702000800000000DC
:10018000D7020008D7020008D7020008D7020008EB
:10019000D7020008D7020008D7020008D7020008DB
:1001A000D7020008D7020008D7020008D7020008CB
:1001B000D7020008D7020008D7020008D7020008BB
:1001C000D7020008D7020008D7020008D7020008AB
:1001D000D7020008D7020008D7020008D70200089B
:1001E000D7020008D7020008D7020008D70200088B
:1001F000D7020008D7020008D7020008D70200087B
:10020000D7020008D7020008D7020008D70200086A
:10021000D7020008D7020008D7020008D70200085A
:10022000D7020008D7020008D7020008000000002B
:10023000D7020008D702000800000000D70200081B
:10024000D7020008D7020008D7020008D70200082A
:10025000D7020008D7020008D7020008D70200081A
:10026000D7020008D7020008D7020008D70200080A
:10027000D7020008D70200088941000800000000EA
:10028000D7020008D7020008D702000800000000CB
:1002900000000000D7020008DFF80CD000F01AFAC6
:1002A000004800476B07000878100024002804D09D
:1002B00090FAA0F0B0FA80F0401C704706488047E2
:1002C00006480047FEE7FEE7FEE7FEE7FEE7FEE73B
:1002D000FEE7FEE7FEE7FEE7454700089902000853
:1002E000EFF3108072B6704780F310887047424A6F
:1002F0001368012B04D04FF0010313603F4A1060D4
:100300003F4A11603F484FF0805101607047EFF362
:10031000108272B63848016851B34FF00001016095
:100320003648016891B1EFF309811EF0100F08BF44
:1003300021ED108B21E9F00F4FF000041EF0100F9B
:1003400008BF012441F8044D006801602C49096888
:10035000096808C9B1E8F00F002B18BFB1EC108B89
:1003600081F309884EF0100E002B18BF2EF0100EEE
:1003700082F310884EF0040E704721490860EFF3B5
:10038000148222F0040282F314881C494FF000000A
:10039000086019494FF0010008601B481B49D0F85C
:1003A000002041EA0201016016484FF080510160CF
:1003B00017480068006880F3088861B662B6704725
:1003C0001EF0040F0CBFEFF30880EFF3098020E963
:1003D000F00F40F804ED40F804ED1EF0040F0CBFE0
:1003E00080F3088880F3098800B508F0ABFB5DF85E
:1003F00004EB4EF0040E7047380100243001002455
:100400003401002404ED00E020ED00E00000FFFFD7
:1004100008ED00E02DE9F05F0546002092469B467E
:1004200088460646814640241BE02846414647460A
:10043000224600F0EAF853465A46C01A914110D3BA
:1004400011461846224600F0D1F82D1A67EB010834
:100450004F4622460120002100F0C8F817EB0009A2
:100460004E41201EA4F10104DFDC484631462A46F5
:100470004346BDE8F09F40EA01039B0703D009E033
:1004800008C9121F08C0042AFAD203E011F8013B80
:1004900000F8013B521EF9D27047D2B201E000F8D9
:1004A000012B491EFBD270470022F6E710B5134618
:1004B0000A4604461946FFF7F0FF204610BD421ECB
:1004C00012F8013F002BFBD111F8013B02F8013B70
:1004D000002BF9D1704710B5044604E00B7800F802
:1004E000013B03B1491C521EF8D2204610BD421CEC
:1004F00010F8011B0029FBD1801A704710B50022AB
:1005000000E0521C835C8C5CA34201D1002BF8D12B
:10051000D8B2E1B2401A10BD30B5044600200346FF
:1005200000E05B1C934203D2E05CCD5C401BF8D042
:1005300030BD034611F8012B00F8012B002AF9D138
:100540001846704730B505460020034600E05B1CA6
:10055000934205D2EC5CC85C201A01D1002CF6D184
:1005600030BD2DE9F04791460F46804604460026EF
:1005700014F8015B2DB100F059F80068405DC00728
:10058000F6D12B2D02D02D2D18D0641E4A463946A7
:10059000204600F04FF827B13968A14201D1C7F8D1
:1005A000008071054FF002040BD54042002803DDA6
:1005B00004F07AFC0460A007BDE8F08746F480668A
:1005C000E4E70028F8DA04F06FFC04606FF0004004
:1005D000F2E770B5064604F067FC046805460A2297
:1005E00000213046FFF7BDFF2C6070BD202A04DBE0
:1005F000203A00FA02F1002070479140C2F1200336
:1006000020FA03F3194390407047202A04DB203A74
:1006100021FA02F00021704721FA02F3D040C2F122
:100620002002914008431946704700000048704777
:100630002CF300082DE9F05F82460078002715466C
:100640008B460AF10104B946302801D09DB113E070
:1006500014F8010B0127782803D0582801D045B1A0
:100660000AE00DB1102D07D10027102514F8010B59
:1006700002E0082500E00A250026B0460EE005FB52
:10068000080005FB06F1012701EB10461FFA80F870
:10069000B6F5803F00D3B94614F8010B294600F0A7
:1006A0002BF80028EBDABBF1000F05D00FB1641E68
:1006B00000E05446CBF80040B9F1000F06D004F03A
:1006C000F3FB02210160C81EBDE8F09F48EA064026
:1006D000FAE70000064C074D06E0E06840F0010331
:1006E00094E8070098471034AC42F6D3FFF7D8FDE2
:1006F00060040108800401083A2800D2303820F054
:100700002002412A01D3A2F13700884201D34FF0E1
:10071000FF30704770B58C1810F8015B15F00703B7
:1007200001D110F8013B2A1106D110F8012B03E08A
:1007300010F8016B01F8016B5B1EF9D12B0705D492
:100740000023521E0DD401F8013BFAE710F8013BDB
:10075000CB1A921C03E013F8015B01F8015B521EF7
:10076000F9D5A142D8D3002070BD10B50BF052FED0
:10077000002010BDFEE70000294A016891423AD0EE
:10078000274A1832914236D0254A3032914232D02F
:10079000234A483291422ED0214A603291422AD0D7
:1007A0001F4A7832914226D01D4A9032914222D07F
:1007B0001B4AA83291421ED01A4A91421BD0194AB4
:1007C0001832914217D0174A3032914213D0154A4D
:1007D000483291420FD0134A603291420BD0114AF5
:1007E0007832914207D00F4A9032914203D00D4A9D
:1007F000A832914211D1CAB21823103AB2FBF3F2D7
:100800006FF30901032A02F00703074AD25CC265AD
:1008100000D9091D81650846704721F0FF01F9E7FD
:100820001000024010040240E4E4000830B5224AFF
:10083000012301689142CAB21BD01F4C1434A1425B
:1008400017D01D4C2834A14213D01B4C3C34A1427C
:100850000FD0194C5034A1420BD0174C6434A14234
:1008600007D0154C7834A14203D0134C8C34A142EC
:100870000CD11421114C083AB2FBF1F10F4A80322D
:1008800001F01F0504EB8101AB4010E00C4D182472
:10089000103A0D44B2FBF4F1A82D00D80831094AF2
:1008A00001F01F0402EB8101064AA3408032603050
:1008B00080E80E0030BD000008540258005802586D
:1008C000F0FBFDBF0008024010B50279531E072B54
:1008D0002DD8174C0168A1421BD0154C1434A142ED
:1008E00017D0134C2834A14213D0114C3C34A142F0
:1008F0000FD00F4C5034A1420BD00D4C6434A142A8
:1009000007D00B4C7834A14203D0094C8C34A1425F
:1009100003D10849074C443102E00749064C4431F1
:1009200004EB8202C0E91B2101219940416710BDFF
:1009300008540258FC580258FC08024010B583695C
:100940004FF0C074826A0146002053B1B3F5005FD6
:1009500015D072B1012A0CD0022A0AD0032A09D17B
:1009600004E01AB1012A06D0022A03D1C96AC901DA
:1009700000D5012010BDC96AA142FAD010BD002ADD
:10098000F7D0012AF2D0022AF3D0032AF3D010BD07
:100990002DE9F04F804E804FDFF8FC911836DFF8DC
:1009A000F8A148370468856D0AF1300ADFF8ECB128
:1009B0004C45DFF8ECC1DFF8ECE16DD0B4426BD010
:1009C000544569D0BC4267D0DFF8D081A8F118083F
:1009D000444561D05C455FD064455DD074455BD0D3
:1009E000DFF8C481444557D0DFF8BC8108F118080E
:1009F000444551D0DFF8B08108F1300844454BD070
:100A0000DFF8A48108F14808444545D0DFF8988113
:100A100008F1600844453FD0DFF88C8108F1780880
:100A2000444539D0DFF8808108F19008444533D03F
:100A3000DFF8748108F1A80844452DD0DFF86C81F7
:100A4000444529D0DFF8648108F11408444523D0D7
:100A5000DFF8588108F1280844451DD0DFF84C81A3
:100A600008F13C08444517D0DFF8408108F15008F0
:100A7000444511D0DFF8348108F1640844450BD0B7
:100A8000DFF8288108F17808444505D0DFF81C819B
:100A900008F18C08444509D1D0E91948C4F804800C
:100AA000C46E1CB1D0E91C48C4F8048004684C45ED
:100AB0002ED0B4422CD054452AD0BC4228D0374E38
:100AC000183EB44224D05C4522D0644520D0744501
:100AD0001ED0354EB4421BD0334E1836B44217D018
:100AE000314E3036B44213D02F4E4836B4420FD078
:100AF0002D4E6036B4420BD02B4E7836B44207D020
:100B0000294E9036B44203D0274EA836B44215D1B0
:100B100090F85C603F2406F01F06B440AC600468A7
:100B2000256825F4802525602EE09A600068C16064
:100B3000BDE8F08F99600068C260F9E71B4EB442CF
:100B40001BD01A4E1436B44217D0184E2836B44271
:100B500013D0164E3C36B4420FD0144E5036B44229
:100B60000BD0124E6436B44207D0104E7836B442E1
:100B700003D00E4E8C36B442DAD190F85C6001247A
:100B800006F01F06B4406C60046863608368402B05
:100B90000368CFD1C9E7000010000240880002407E
:100BA000A0000240B800024010040240085402585D
:100BB000704710B508F0F8FB012000F05FFCBDE8BD
:100BC000104008F00FBC10B508F0EEFB4FF4806049
:100BD00000F054FC4FF4006000F050FC4FF48050E3
:100BE00000F04CFC4FF4005000F048FC4FF4804003
:100BF00000F044FC4FF4004000F040FCBDE8104021
:100C000008F0F0BB10B508F0CFFB022000F036FC76
:100C1000BDE8104008F0E6BB10B508F0C5FB0420A5
:100C200000F02CFCBDE8104008F0DCBB10B508F06B
:100C3000BBFB082000F022FCBDE8104008F0D2BB4E
:100C400010B508F0B1FB102000F018FCBDE8104012
:100C500008F0C8BB10B508F0A7FB202000F00EFC80
:100C6000402000F00BFC802000F008FC4FF4807066
:100C700000F004FC4FF4007000F000FCBDE81040F0
:100C800008F0B0BB406D70472DE9F05F044600F0FE
:100C900029FD002C07467DD0E34E022120684FF04D
:100CA0000308DFF888934FF00005DFF884A3B04213
:100CB000DFF880B334D0DC4A1832904230D0484557
:100CC0002ED050452CD058452AD0DA4A18329042BE
:100CD00026D0D84A3032904222D0D64A483290426A
:100CE0001ED0D54A90421BD0D34A1832904217D01A
:100CF000D14A3032904213D0CF4A483290420FD07E
:100D0000CD4A603290420BD0CB4A7832904207D025
:100D1000C94A9032904203D0C74AA83290427DD14E
:100D200084F8345084F83510B0422ED0BE491831C2
:100D300088422AD0484528D0504526D0584524D04E
:100D4000BC491831884220D0BA49303188421CD081
:100D5000B8494831884218D0B749884215D0B649B9
:100D60001831884211D0B449303188420DD0B2498F
:100D70004831884209D0B0496031884205D0AE4937
:100D80007831884201D0AC499031016821F00101ED
:100D9000016008E027E100BF00F0A4FCC01B0528AB
:100DA00001D920211CE120680068C007F4D104F1BA
:100DB00008002168D4E9053C8E4685C809681043BF
:100DC000D4E907281F43636A38439C4F40EA0C006C
:100DD0001043394040EA0800042B40EA010003D1E7
:100DE000D4E90B1211430843954909686FF30F01C9
:100DF000B1F1005F0FD36168A1F12902052A08D97A
:100E0000163A032A05D9083A012A02D94F3903298B
:100E100001D840F48010CEF8000000E023E0206804
:100E2000676A4069042F20F0070047EA00070DD1E8
:100E3000D4E90A01074349B12046FFF77FFD28B1F5
:100E400040206065012184F83510CCE020684761BE
:100E50002046FFF791FC94F85C203F2102F01F022E
:100E60009140816054E0774A90421BD0754B143317
:100E7000984217D0734B2833984213D0714B3C33B0
:100E800098420FD06F4B503398420BD06D4B643368
:100E9000984207D06B4B7833984203D0694B8C3320
:100EA00098427DD1684B84F8345084F8351001683D
:100EB000A26801EA030E402A73D0802A72D0002271
:100EC000D4E90378D4E9053142EAD70242EAD808E6
:100ED0005C4AD4E9077C48EAD30848EAD10141EAF0
:100EE000D701524241EA1C11142341EA0E0101606C
:100EF00020681044B0FBF3F08000E0652046FFF767
:100F00003BFC94F85C20012102F01F0291404160FB
:100F10002068B04257D044491831884253D04845E0
:100F200051D050454FD058454DD042491831884294
:100F300049D040493031884245D03E494831884205
:100F400041D03D4988423ED03B49183188423AD091
:100F500039493031884236D037494831884232D019
:100F60003549603188422ED03349783188422AD0C1
:100F700031499031884226D02F49A831884222D069
:100F8000304988421FD02F49143188421BD02D4947
:100F90002831884217D02B493C31884213D002E0D7
:100FA0001DE017E018E02749503188420BD0254951
:100FB0006431884207D023497831884203D02149DF
:100FC0008C31884229D12046FFF730FCA068802868
:100FD0000CD00CE0102273E74FF4804270E7402100
:100FE000616584F835800120BDE8F09F6560216E61
:100FF00020790860D4E9190141606068401E072823
:1010000008D82046FFF760FCE06E0560D4E91C01BB
:10101000416002E0E566256765670120656584F843
:1010200035000020E0E700001000024040000240D0
:101030005800024070000240100402403F8010FE41
:101040000010005C085402580F00FEFF2DE9F84F15
:1010500004008C464FF00000009013D094F8340048
:10106000012811D094F835500120002184F8340073
:10107000012D0BD084F83410C202009062650098F4
:10108000BDE8F88F0120FBE70220F9E78C4D02262E
:10109000206884F83560A8428A4D61658A4E8B4F7E
:1010A000DFF82C82DFF82C92DFF82CA2DFF82CB2CC
:1010B00026D0A84224D0B04222D0B84220D0404509
:1010C0001ED048451CD050451AD0584518D08449E8
:1010D000884215D082491831884211D08049303178
:1010E00088420DD07E494831884209D07C49603120
:1010F000884205D07A497831884201D078499031C8
:10110000016821F00101016061462046FFF740FCC3
:101110006B49206888422CD0A8422AD0B04228D0FF
:10112000B84226D0404524D0484522D0504520D052
:1011300058451ED06A4A90421BD0694A18329042E4
:1011400017D0674A3032904213D0654A48329042F5
:101150000FD0634A603290420BD0614A783290429D
:1011600007D05F4A9032904203D05D4AA832904245
:101170000CD1026822F01E0242F016020260206CBE
:1011800088B12068026842F008020BE0026822F091
:101190000E0242F00A020260206C20B12068026850
:1011A00042F004020260206888424BD0A84249D035
:1011B000B04247D0B84245D0404543D0484541D0E1
:1011C00050453FD058453DD0454A90423AD0444AD8
:1011D0001832904236D0424A3032904232D0404AA1
:1011E000483290422ED03E4A603290422AD03C4A49
:1011F0007832904226D03A4A9032904222D0384AF1
:10120000A83290421ED0374A90421BD0354A143241
:10121000904217D0334A2832904213D0314A3C32A0
:1012200090420FD02F4A503290420BD02D4A643258
:10123000904207D02B4A7832904203D0294A8C3210
:1012400090420DD1206E0268D20303D5026842F4A9
:1012500080720260E06E18B1026842F4807202602F
:101260002068884226D0A84224D0B04222D0B8427A
:1012700020D040451ED048451CD050451AD0584576
:1012800018D01749884215D015491831884211D015
:101290001349303188420DD011494831884209D074
:1012A0000F496031884205D00D497831884201D01C
:1012B0000B499031016841F001010160DFE6000057
:1012C0001000024028000240400002405800024046
:1012D0007000024088000240A0000240B8000240B6
:1012E00010040240085402582DE9F04F4F4D0022DF
:1012F0004FF0010A4FF00F0B92E000BF0AFA02F91B
:1013000019EA01037ED022F0030606F1B0469407E5
:10131000D6F808C4270FDFF818810BFA07FE4045FE
:101320000EEA0C0402D14FF0000C40E0DFF804C1DB
:10133000604502D14FF0010C39E0DFF8FCC0604598
:1013400002D14FF0020C32E0DFF8F0C0604502D16C
:101350004FF0030C2BE0DFF8E8C0604502D14FF0FE
:10136000040C24E0DFF8DCC0604502D14FF0050C2E
:101370001DE0DFF8D4C0604502D14FF0060C16E046
:10138000DFF8C8C0604502D14FF0070C0FE0DFF86E
:10139000C0C0604502D14FF0080C08E0DFF8B4C0CF
:1013A000604502D14FF0090C01E04FF00A0C0CFA35
:1013B00007FCA44513D12C689C432C606F684FF048
:1013C000B0449F436F6027689F43276067689F43CF
:1013D0006760D6F8084424EA0E04C6F80844076893
:1013E0000323D4084FEA42084FEA427C03FA08F389
:1013F0004FEADC6C1F4307600BFA0CF600EB840429
:10140000276A00E00BE0B7432762C4689C43C460CE
:10141000446824EA0904446084689C438460521C44
:1014200031FA02F37FF46AAFBDE8F08F8000005814
:10143000000002580004025800080258000C02582C
:10144000001002580014025800180258001C0258DC
:10145000002002580024025810B504F077F900EB80
:101460004001054800EB81004168002903D08068F5
:10147000BDE81040084710BD680100244FF0B0419E
:1014800010B5D1F88820024203D0C1F88800FFF7D8
:10149000E3FF10BD2DE9FC4F01257E4C00234FF0EA
:1014A000030A4FF0B04E4FF00F0BEBE005FA03F6D6
:1014B00037403A0077D04F68012F05D0022F03D074
:1014C000112F01D0122F1AD187684FEA4308D1F8A3
:1014D0000CC00AFA08F927EA09070CFA08FC4CEADA
:1014E000070CC0F808C0476891F804C0B743CCF3B4
:1014F000001C0CFA03FC4CEA070CC0F804C0C668D8
:101500004FEA430CD1F80880E1460AFA0CF7BE43D3
:10151000019708FA09F848EA0608C0F80C804E68F6
:10152000022E01D0122E12D1DE084FEA437C00EBCE
:10153000860600960F69366A4FEADC6C0BFA0CF8E7
:1015400007FA0CF726EA08063743009E37620E7941
:101550000768DDF804C006F0030606FA09F627EA74
:101560000C073E4306604E68F6001CD54A4E3768AD
:1015700047F00207376036689F0706F002060096BC
:1015800023F0030606F1B046B1463F0FD6F80864D3
:10159000DFF808810BFA07FC404526EA0C0603D168
:1015A0004FF0000C41E06CE0DFF8F4C0604502D180
:1015B0004FF0010C39E0DFF8ECC0604502D14FF08C
:1015C000020C32E0DFF8E0C0604502D14FF0030CBE
:1015D0002BE0DFF8D8C0604502D14FF0040C24E0C6
:1015E000DFF8CCC0604502D14FF0050C1DE0DFF8FC
:1015F000C4C0604502D14FF0060C16E0DFF8B8C059
:10160000604502D14FF0070C0FE0DFF8B0C0604535
:1016100002D14FF0080C08E0DFF8A4C0604502D109
:101620004FF0090C01E04FF00A0C0CFA07FC4CEAF1
:10163000060CC9F808C426684F6826EA0206FF03AC
:1016400000D51643266066684F6826EA0206BF0387
:1016500000D516436660D1F804C07646DEF8007007
:101660005FEACC2C27EA020700D517433760D1F890
:1016700004C077685FEA8C2C27EA020700D517437D
:1016800077605B1C0A681746DA407FF40FAFBDE84D
:10169000FC8F000080000058F444025800000258FB
:1016A0000004025800080258000C025800100258AA
:1016B0000014025800180258001C0258002002585A
:1016C000002402580069084000D0012070470AB188
:1016D000816170470904FBE701480068000C70470E
:1016E0000010005C10B50AF0E3FA4FF47A72504330
:1016F000B0FBF2F010BD000002488168027811448E
:101700008160704708000024032010B500F078F8CD
:1017100001F004F80F4A104914681368C4F3032257
:1017200003F00F038A5CC95C02F01F0201F01F0185
:10173000D0400A4A20FA01F11160094908600020EE
:1017400000F010F808B1012010BD00F00DF80020E5
:1017500010BD000018440258CCE400080400002426
:101760000000002400207047054808B5016841F0DA
:1017700002010160006800F00200009008BD000056
:10178000F444025800280DDB410900F01F028900D3
:10179000012001F1E0219040C1F88001BFF34F8F9B
:1017A000BFF36F8F7047002809DB410900F01F026B
:1017B0008900012001F1E0219040C1F8000170474B
:1017C0000E4BF0B41B680D46C3F30223C3F10706AA
:1017D000042E00D90426191D072901D2002300E098
:1017E000DB1E012404FA06F19C40491E2940641EB8
:1017F000994014402143F0BC03F045BB0CED00E0E0
:10180000064900F0070210B54FF6FF040868044BC4
:10181000204040EA02201843086010BD0CED00E0B3
:101820000000FA05134970B50A68D243520705D57E
:10183000096801F00701814213D118E00A6822F01B
:10184000070202430A60FFF74DFF0A4D4FF47A7614
:101850000446083D07E000BFFFF744FF001BB0420D
:1018600001D9012070BD2868C0438004F4D4002051
:1018700070BD00000C4802580248016841F48071B4
:10188000016070470048025810B500F047FF0B4A4E
:101890000B4914681368C4F3032203F00F038A5C36
:1018A000C95C02F01F0201F01F01D040054A20FA76
:1018B00001F111600449086010BD0000184402588D
:1018C000CCE40008040000240000002410B500F05F
:1018D000DFFE05490968054AC1F30211515C01F0B8
:1018E0001F01C84010BD000020440258CCE400088D
:1018F000494930B5484C0B1D0A68143409681D6805
:10190000246802F00303C5F30012C1F30531C4F3E8
:10191000CC04002914FB02F200EE102AF8EE400A73
:1019200075D03F4A9FED3D1AB7EE000A6BB1DFED6F
:101930003D1A012B01D0022B64D002EE101A11685F
:10194000F8EE422A81EEA22A21E0334C283C23689B
:101950009B0612D5344B246801EE901A1168C4F32B
:10196000C104F8EE612AE34001EE903AC1F30801A8
:10197000F8EE611A81EEA22A0BE001EE901ADFED7B
:101980002B2A00BFF8EE611A116882EEA12AC1F37A
:10199000080101EE901A1168F8EE611A40EE811A02
:1019A00071EE800A62EE200AC1F3462101EE101AA0
:1019B000B8EE411A31EE001AC0EE811ABCEEE11AFF
:1019C00080ED001A1168C1F3064101EE101AB8EE5D
:1019D000411A31EE001AC0EE811ABCEEE11A80ED18
:1019E000011A1168C1F3066101EE101AB8EE411A2E
:1019F00031EE000A80EE801ABCEEC10A80ED020AC8
:101A000030BD04E001EE901ADFED092ABAE70021AB
:101A1000016041608160F3E728440258000000390A
:101A2000384402580024744A0090D0030024744CB7
:101A300020BCBE4B494930B5484C0B1D0A681C34CC
:101A400009681D68246802F00303C5F30022C1F38E
:101A50000551C4F3CC04002914FB02F200EE102A55
:101A6000F8EE400A75D03F4A9FED3D1AB7EE000AE6
:101A70006BB1DFED3D1A012B01D0022B64D002EED9
:101A8000101A1168F8EE422A81EEA22A21E0334CA6
:101A9000283C23689B0612D5344B246801EE901A2B
:101AA0001168C4F3C104F8EE612AE34001EE903AF4
:101AB000C1F30801F8EE611A81EEA22A0BE001EEF3
:101AC000901ADFED2B2A00BFF8EE611A116882EE42
:101AD000A12AC1F3080101EE901A1168F8EE611A0B
:101AE00040EE811A71EE800A62EE200AC1F34621AF
:101AF00001EE101AB8EE411A31EE001AC0EE811A4A
:101B0000BCEEE11A80ED001A1168C1F3064101EE46
:101B1000101AB8EE411A31EE001AC0EE811ABCEE6E
:101B2000E11A80ED011A1168C1F3066101EE101A85
:101B3000B8EE411A31EE000A80EE801ABCEEC10AFE
:101B400080ED020A30BD04E001EE901ADFED092AB3
:101B5000BAE70021016041608160F3E72844025840
:101B600000000039404402580024744A0090D00319
:101B70000024744C20BCBE4B2DE9FC5F044650F899
:101B8000241B002500902E460801FE4FDFF8F88345
:101B90001DD5606E50B1B0F5801F0CD0B0F5001FA0
:101BA0000ED0B0F5401F1DD001250FE0386840F47D
:101BB0000030386016E00221201D02F0F3FA03E045
:101BC0000098022102F07EFB05000BD02E462088F3
:101BD000C00523D5606D05281ED2DFE800F00C118A
:101BE000161B1B00626ED8F8001021F4401111433F
:101BF000C8F80010EBE7386840F40030386009E0BE
:101C00000021201D02F0CEFA03E00098002102F02E
:101C100059FB05466DB100E001252E462088800560
:101C200028D5A06D80281ED00CDC90B140280ED1A4
:101C300014E0626DD8F8001021F007011143C8F8D4
:101C40000010EBE7C02813D0B0F5807F10D001253D
:101C50000FE0386840F40030386009E00021201DB2
:101C600002F0A0FA03E00098002102F02BFB0546E9
:101C700095B12E462088DFF81093400509F1080938
:101C80002CD5D4F8A400B0F5800F20D00DDCA0B185
:101C9000B0F5001F0FD115E0A26DD8F8001021F4A7
:101CA000E0711143C8F80010E4E7B0F5C00F13D09D
:101CB000B0F5000F10D001250FE0386840F4003077
:101CC000386009E00021201D02F06CFA03E0009862
:101CD000002102F0F7FA054675B12E46208800056E
:101CE0002DD5D4F8A800B0F1007F21D00EDCA8B12A
:101CF000B0F1807F10D116E0D4F8A420D9F80010FC
:101D000021F460011143C9F80010E7E7B0F1407F0A
:101D100013D0B0F1806F10D001250FE0386840F487
:101D20000030386009E00021201D02F03BFA03E09A
:101D30000098002102F0C6FA05466DB12E462068D3
:101D400080011FD5A06CD8B110280FD0202812D048
:101D5000302815D0012514E0D4F8A820D9F80010B7
:101D600021F0E0611143C9F80010E8E7386840F459
:101D70000030386004E00221201D02F013FA05460D
:101D80006DB12E462088C0042BD5E06DB0F5005F04
:101D900020D00DDCA0B1B0F5805F0FD115E07A48FE
:101DA000A26C001F016821F0300111430160E9E7D6
:101DB000B0F5405F13D0B0F5804F10D001250FE093
:101DC000386840F40030386009E00021201D02F03E
:101DD000E9F903E00098002102F074FA054685B1A4
:101DE0002E462088800429D5206EB0F5403F23D0B0
:101DF00010DC08B3B0F5803F14D0B0F5003F0FD130
:101E000015E0E26DD8F8001021F4E0411143C8F864
:101E10000010E6E7B0F5802F0ED0B0F5A02F0BD064
:101E200001250AE00121201D02F0BCF903E0009821
:101E3000012102F047FA05468DB12E462088400464
:101E40002AD5D4F8AC00B0F1405F23D010DC08B341
:101E5000B0F1805F14D0B0F1005F0FD115E0226EB9
:101E6000D8F8001021F4E0211143C8F80010E5E78C
:101E7000B0F1804F0ED0B0F1A04F0BD001250AE099
:101E80000121201D02F08EF903E00098012102F0EB
:101E900019FA05466DB12E46208800041FD5E06E64
:101EA000D8B1B0F1805F0ED0B0F1005F10D0012545
:101EB00014E0D4F8AC20D9F8001021F0E04111432F
:101EC000C9F80010E8E7386840F40030386004E0F2
:101ED0000121201D02F066F905466DB12E462068ED
:101EE000C0011ED5606CD0B101280ED0022811D0DF
:101EF000032814D0012513E0E26ED8F8001021F079
:101F000040511143C8F80010E9E7386840F4003048
:101F1000386004E00221201D02F044F9054685B135
:101F20002E462068DFF85CB04002ABF11C0B57D5A1
:101F30001648016841F480710160FFF7D3FB8246C7
:101F40000EE01148626C001F016821F0030111438B
:101F50000160E6E7FFF7C6FBA0EB0A0064283DD866
:101F60000A480068C005F5D57DBBDFF81CA0B4F8B1
:101F7000B0100AF1200ADAF8000001F4407100F410
:101F8000407005E02C440258504402580048025862
:101F9000884211D0DAF80010DAF8002021F44071FC
:101FA00042F48032CAF80020DAF8002022F48032AD
:101FB000CAF80020CAF80010D4F8B000B0F5807F4D
:101FC00021D1FFF78FFB019019E008E0FFF78AFBB2
:101FD0000199411A41F28830814210D903252E46D9
:101FE0002078DFF830A4C0073DD0A06F182838D083
:101FF00026DC80B3082829D0102825D12CE0DAF877
:1020000000008007E2D5D4F8B010C1F30120032806
:1020100058460DD0016821F47C510160B4F8B0201D
:10202000DAF80010C2F30B021143CAF80010D7E728
:10203000F94A036802EA111223F47C511143ECE7D8
:1020400020280ED028280CD001250BE00121201DCE
:1020500002F0A8F804E004E00098012102F032F94F
:1020600005465DB12E46207880071ED5606F062894
:1020700019D2DFE800F0160C11161616A26FDAF866
:10208000001021F038011143CAF80010EBE70121DC
:10209000201D02F087F803E00098012102F012F9F8
:1020A000054675B100E001252E46207840071FD572
:1020B000D4F89000062819D2DFE800F0160C1116AB
:1020C0001616626FDAF8001021F007011143CAF802
:1020D0000010EAE70121201D02F064F803E00098F7
:1020E000012102F0EFF805469DB100E001252E46E2
:1020F000207880062BD5D4F88C00B0F1405F24D036
:1021000011DC10B3B0F1805F15D0B0F1005F10D1D9
:1021100016E0D4F89020D9F8001021F007011143FF
:10212000C9F80010E4E7B0F1804F0ED0B0F1A04F35
:102130000BD001250AE00021201D02F033F803E056
:102140000098022102F0BEF805468DB12E46207897
:1021500040062BD5D4F89800B0F5406F24D011DCA0
:1021600010B3B0F5806F15D0B0F5006F10D116E048
:10217000D4F88C20DAF8001021F0E0411143CAF8BD
:102180000010E4E7B0F5805F0ED0B0F5A05F0BD093
:1021900001250AE00021201D02F004F803E0009868
:1021A000022102F08FF805468DB12E4620780006F8
:1021B0002BD5D4F89C00B0F5C04F24D011DC10B35F
:1021C000B0F5005F15D0B0F5804F10D116E0D4F80F
:1021D0009820D9F8001021F4E0511143C9F80010FB
:1021E000E4E7B0F5004F0ED0B0F5204F0BD001253D
:1021F0000AE00021201D01F0D5FF03E00098022134
:1022000002F060F805464DB12E46207800071ED535
:10221000D4F88000B0F5805F0AD00FE0D4F89C209D
:10222000D9F8001021F460411143C9F80010ECE71F
:102230000098022102F046F800B10126D4F880206F
:10224000DAF8001021F440511143CAF80010207848
:10225000C00613D5D4F89400B0F5807F05D100985E
:10226000022102F02FF800B10126D4F89420D9F809
:10227000001021F440711143C9F8001020680003D8
:1022800016D5D4F8A00038B1B0F5803F09D0B0F52C
:10229000003F0BD001250AE00021201D01F082FF44
:1022A00003E00098022102F00DF8054685B12E46A4
:1022B0002068400322D5D4F88400B0F5801F11D0E7
:1022C000B0F5001F13D0B0F5401F15D0012514E064
:1022D000D4F8A020D9F8001021F440311143C9F8F6
:1022E0000010E5E7386840F40030386004E00098FA
:1022F000012101F0E7FF054655B12E462068C003D5
:102300001CD5E06C70B1B0F5803F10D0012514E011
:10231000D4F88420DAF8001021F440111143CAF8EF
:102320000010EBE7386840F40030386004E0022128
:10233000201D01F037FF0546CDB12E4620688000F4
:1023400005D50098022101F0BDFF00B101262068EB
:1023500080031BD5E06FB8B1B0F5807F10D0B0F529
:10236000007F11D0B0F5407F0ED001250DE0294847
:10237000E26C0838016821F4803111430160DDE727
:10238000386840F400303860F5B32E462068C0024B
:1023900007D5226FD8F8001021F000411143C8F88A
:1023A00000102068C00008D5D4F8B420DBF8001075
:1023B00021F480411143CBF800102068800207D53A
:1023C000A26ED8F8001021F080711143C8F80010F7
:1023D000206840000CD5DBF8001021F40041CBF858
:1023E0000010DBF80010D4F8B8201143CBF800102F
:1023F0002068002807DA0748226D0838016821F0B4
:1024000040511143016000E008E086B10120BDE8C1
:10241000FC9F000054440258CFFFFF00E26FDAF83F
:10242000001021F440711143CAF80010AEE70020FB
:10243000EDE700002DE9F05F04000F467ED0DFF8E5
:102440003882D8F8000000F00F00B8420CD2D8F85B
:10245000001021F00F013943C8F80010D8F800002F
:1024600000F00F00B84269D12078844D40070AD5AA
:102470002069296801F07001884204D9296821F097
:1024800070010143296020787C4E361D00070AD573
:102490006069316801F07001884204D9316821F027
:1024A0007001014331602078C0060AD5A069316807
:1024B00001F4E061884204D9316821F4E06101430C
:1024C00031602078DFF8B4B180060BF1080B0CD531
:1024D000E1695846DBF8002002F07002914204D90D
:1024E000026822F070020A430260207880070AD551
:1024F000E068296801F00F01884204D9296821F0B9
:102500000F01014329602078C0073ED05B49A268D3
:102510002868183920F47060104328606068022829
:1025200018D0032819D00968012819D049070029B3
:102530004ADADFF848A1AAF1080A00E044E0DAF834
:10254000002022F007020243CAF80020FFF7CAF871
:10255000814612E009688903E9E709688901E6E72D
:10256000C905E4E7FFF7BEF8A0EB090141F28830A6
:10257000814202D90320BDE8F09F6168DAF80000CB
:1025800000F03800B0EBC10FECD1207880070AD5FD
:10259000E068296801F00F01884204D2296821F01F
:1025A0000F0101432960D8F80010404601F00F01E7
:1025B000B9420BD9016821F00F013943016000686D
:1025C00000F00F00B84201D00120D4E72078400786
:1025D0000AD52069296801F07001884204D229686F
:1025E00021F0700101432960207800070AD5606955
:1025F000316801F07001884204D2316821F0700125
:10260000014331602078C0060AD5A069316801F421
:10261000E061884204D2316821F4E0610143316015
:10262000207880060CD5E1695846DBF8002002F0DE
:102630007002914204D2026822F070020A430260E2
:1026400000F06CF80E492A682B68C2F3032203F0ED
:102650000F038A5CC95C02F01F0201F01F01D04029
:10266000084A20FA01F1116007490860074800682C
:10267000BDE8F05FFFF776B800200052184402581A
:10268000CCE4000804000024000000240C00002416
:1026900030B500F043F80B4A0B490C4B1568146831
:1026A000C5F3032204F00F048A5C095D02F01F02E7
:1026B00001F01F01D040064A20FA01F119601060B4
:1026C000084630BD18440258CCE400080400002439
:1026D0000000002400B5FFF7DBFF05490968054A43
:1026E000C1F30211515C01F01F01C84000BD0000A0
:1026F0001C440258CCE4000800B5FFF7C9FF0549A7
:102700000968054AC1F30221515C01F01F01C8406C
:1027100000BD00001C440258CCE40008454970B5D7
:1027200045480968434B103B11F0380208D00111AD
:10273000082A03D0102A0BD0182A0BD0084670BDE7
:1027400019688906FBD51968C1F3C101C84070BD7D
:102750003A4870BD3749374D18310C1D24350A6889
:10276000096826682D6802F0030406F00102C1F32F
:102770000511C5F3CC0515FB02F200EE102AB8EEE8
:10278000400AE9B32F4ADFED2E0AB7EE001A6CB10A
:10279000DFED2D1A012C01D0022C43D002EE101ACD
:1027A0001068F8EE422A81EEA22A1EE01C68A406F8
:1027B00011D51B6801EE901A1168C3F3C103F8EE3E
:1027C000612AD84001EE900AC1F30800F8EE611AC0
:1027D00081EEA22A0BE001EE901ADFED1C2A00BF69
:1027E000F8EE611A106882EEA12AC0F3080001EE2B
:1027F000900AF8EE611A40EE201A31EE810A00E0EC
:1028000015E022EE000A1068C0F34620401C00EEDE
:10281000900AF8EE600A80EE201ABCEEC10A10EEB3
:10282000100A70BD01EE901ADFED092AD8E70020EA
:1028300070BD0000104402580090D00340787D0124
:1028400000000039304402580024744A0024744CBB
:1028500020BCBE4B2DE9F05F04007CD0FF4F2078F8
:10286000FE4D1837DFF8F493103DC00748D0D9F873
:102870000000396800F03800102815D0182803D15E
:1028800001F0030002280FD06068B0F5803F12D03D
:1028900010B1B0F5A02F18D0286820F4803028603F
:1028A000286820F4802009E02868800328D5606823
:1028B0000028D2D024E0286840F480302860606886
:1028C00088B1FEF70FFF064609E0286840F4802033
:1028D0002860F0E7FEF706FF801B64287ED8286892
:1028E0008003F7D50CE0FEF7FDFE064605E000BFCD
:1028F000FEF7F8FE801B6428F0D828688003F7D420
:10290000207841F20308D54E0C3E800753D5D9F804
:102910000000396810F038000ED0182801D188075F
:102920000AD0E068A8B3296821F0190101432960A1
:10293000FEF7D8FE82461BE02868400702D5E06813
:1029400000288AD0FEF7C8FE40451BD820694028E1
:1029500012D0316800E0CCE021F47C3141EA003053
:10296000306028E0FEF7BEFEA0EB0A000228B5D8D2
:1029700028684007F6D5E5E7306820F47C3040F45D
:102980000030EDE7207C316821F0FE4141EA006033
:10299000E6E7FFE7286820F001002860FEF7A2FEC6
:1029A000824605E0FEF79EFEA0EB0A00022895D8BD
:1029B00028684007F6D42078C0065FD5D9F8000013
:1029C000DFF898B2396800F03800ABF1040B082842
:1029D00012D0182805D101F0030000E0EAE0012838
:1029E0000AD0E0690028286838D040F080002860CC
:1029F000FEF778FE824623E02868C00523D5E0690B
:102A0000802876D11FE0206A202821D0316821F06B
:102A1000F84141EA8060306030E000BF94F8201057
:102A2000DBF8002022F07C5242EA0161CBF8001072
:102A300024E000BFFEF756FEA0EB0A00022896D85D
:102A40002868C005F6D5FEF747FE4045E6D8DAE728
:102A5000306820F0F84040F08040DCE720F0800053
:102A60002860FEF73FFE064605E000BFFEF73AFE8F
:102A7000801B02289BD82868C005F7D4207800075F
:102A800029D576486169643000298046016811D0F3
:102A900041F001010160FEF725FE064605E000BF9A
:102AA000FEF720FE801B0228C9D8D8F80000800756
:102AB000F6D510E021F001010160FEF713FE064695
:102AC00005E000BFFEF70EFE801B022872D8D8F882
:102AD00000008007F6D42078800623D5A06900285E
:102AE000286810D040F480502860FEF7FBFD0646B1
:102AF00005E02CE1FEF7F6FD801B02285AD8286875
:102B00008004F7D50EE020F480502860FEF7EAFD3F
:102B1000064604E0FEF7E6FD801B02284AD8286836
:102B20008004F7D4207840074FD5DFF83481D8F8F7
:102B3000001041F48071C8F80010FEF7D3FD06467E
:102B400005E000BFFEF7CEFD801B642832D8D8F820
:102B50000000C005F6D5414EA068603601280AD0B5
:102B600008B1052813D0306820F0010030603068CB
:102B700020F0040002E0306840F001003060A068FE
:102B800041F2883A90B1FEF7ADFD80460AE0306828
:102B900040F004003060EEE7FEF7A4FDA0EB080172
:102BA000514507D830688007F6D50EE0FEF79AFD4C
:102BB000804607E084E000BFFEF794FDA0EB08012B
:102BC00051457DD830688007F6D4606AF0B3DFF8ED
:102BD0008C80D9F8001008F12008C1F3C201032944
:102BE0006FD00228286820F08070286003D0FEF79C
:102BF00079FD044680E0FEF775FD064605E000BF5E
:102C0000FEF770FD801B022873D828688001F7D476
:102C1000E26A40F2F331386854F8283F884340EACA
:102C2000021018433860217B4FF4FE0C22894FF0CC
:102C3000FE47208A4902267D521E401EA1F50071E2
:102C400089B20CEA0040C2F3080200E081E01143BF
:102C5000761E0143014807EA066203E01044025869
:102C6000004802581C3011433B4AC8F80010016864
:102C700021F00101016011684FF6F876236AB14333
:102C800041EAC30111600168A26921F00C011143FE
:102C900001600168E26921F00201114301600168ED
:102CA00041F480310160016841F400310160016844
:102CB00041F480210160016841F00101016001E0FF
:102CC00017E01DE0286840F080702860FEF70AFDDC
:102CD000044604E0FEF706FD001B022809D8286818
:102CE0008001F7D535E000BFFEF7FCFC001B022891
:102CF00002D90320BDE8F09F28688001F4D428E0C1
:102D000039680128D8F8000021D0A26A01F0030335
:102D100093421CD1E26AC1F305118A4217D1216B9B
:102D2000C0F30802491E8A4211D1616BC0F34622EA
:102D3000491E91420BD1A16BC0F30642491E91423C
:102D400005D1E16BC0F30660491E814201D001202C
:102D5000D0E70020CEE7000034440258006850302D
:102D600050F8210070470068503040F8212070472B
:102D700010B50B4601680F48002A496801EA0001B6
:102D800001F03F044FEA1140D870C1F304225A7099
:102D90009C70C1F3423119700AD101F023FBD87045
:102DA000587801F01FFB5870987801F01BFB987061
:102DB000002010BD3FFFFF0010B50B460168134C0B
:102DC000002A896A596001680969C1F30E01996096
:102DD0000068016801EA040101F07F04C1F30540C5
:102DE0001870C1F306225A709C704FEA9151D97045
:102DF0000AD101F0F7FA1870587801F0F3FA587018
:102E0000987801F0EFFA9870002010BD7F7F7F0066
:102E100070B504004FF0010041D094F8210028B9AA
:102E2000002084F82000204600F03CF8022184F8BD
:102E30002110CA2022685321506220684162204636
:102E400001F0E6FA18BB2068154A816811408160DC
:102E5000D4E90013A569226988682A4318431043FE
:102E6000886022682189E06840EA014010612046BC
:102E700001F0F0FA58B92168CA6C22F00302CA6462
:102E800022686369E169D56C19432943D1642268DA
:102E9000FF215162002802D1012184F8211070BD68
:102EA000BFFF8FFF7047000070B5044690F8200008
:102EB0000B4601281BD0012684F82060022084F8EC
:102EC00021005878AAB1DA78000299781B7841EA93
:102ED000024540EA433005432268CA21532051622B
:102EE00021684862204601F093FAC8B11FE0022031
:102EF00070BDC10603D500F0EF000A305870D878D5
:102F000001F079FA0204587801F075FA42EA0022D9
:102F1000987801F070FA1978024342EA4135DBE70C
:102F20002168084805404D60204601F093FA226868
:102F3000FF21516208B984F82160002184F8201033
:102F400070BD00003FFFFF002DE9F041044690F8FE
:102F5000200090460D46012812D0012784F82070E9
:102F6000022184F82110CA2022685321506220686F
:102F70004162204601F04CFA4FF0000618B12AE0F9
:102F80000220BDE8F0812068B8F1000F80684FEAA8
:102F9000406025D0002800DBEE7068782A78A97898
:102FA000EB784FEA002C41EA02404CEA8351084397
:102FB00022681849084010602068816821F4802147
:102FC00081602168D5E903028B681043184388604B
:102FD000204601F03FFA2268FF215162A0B115E0BE
:102FE000002800DBEE70287801F005FA020468780A
:102FF00001F001FA42EA0022A87801F0FCF9E97830
:10300000024342EA8150D3E784F8217084F82060BB
:10301000B7E700007F7F7F0070B504460068C16895
:1030200021F0A001C160FEF75DFB4FF47A76054602
:1030300007E000BFFEF756FB401BB04201D903205A
:1030400070BD2068C0688006F4D5002070BD704750
:1030500090F88100704700002DE9F047040029D066
:103060004A4A4FF000092068494B4A4D9042C4F843
:10307000289006D0984204D0A84202D0E1680F29D7
:1030800018D8E1684FF0010AE76B0831C9080AEB6C
:1030900057167143904205D0984203D0A84201D000
:1030A000082907D8904203D0984201D0A84204D101
:1030B000102902D90120BDE8F08794F8810020B9D9
:1030C000204684F8809000F067F8022084F88100A0
:1030D0002068016821F001010160A069B0F1806FF2
:1030E0000AD16068B0F5800F06D1A06B20B92068C6
:1030F000016841F480510160A56AE0692368E16BD1
:103100002843E268084310439860D4E90D02D4E9EB
:1031100005C1636A25691843D4F820800A432668EC
:1031200010432843A56DD4E90172D4E9123140EA75
:103130000C0040EA08003843084310431843284372
:10314000F060606868B92068816821F4C05141F47A
:10315000006181602068816821F4C06141F4806170
:1031600081602068016D21F0010101656068400205
:1031700006D52068626DC16821F000411143C1602D
:10318000C4F8849084F881A0002094E700300140C6
:1031900000380040003C00402DE9F04186B0044674
:1031A00014216846FDF780F92849206888424AD1F1
:1031B0002748016841F480510160006800F48050A4
:1031C000059023481038016841F001010160016851
:1031D00001F001010591016841F0020101600168FF
:1031E00001F002010591016841F0080101600168E8
:1031F00001F008010591016841F04001016000689B
:10320000052701AA4FF0200800F04000CDF800800B
:10321000022469460125CDE9047003260D4882E8A1
:103220007000FEF737F901AACDF800800A48694618
:1032300082E8F000FEF72EF9200269468DE8F100E1
:103240000648FEF727F906B0BDE8F08100300140DE
:10325000F0440258000002580004025800180258B6
:103260002DE9F84F0F46416804461D4600201646DA
:10327000B1F5800F4FF0040B009001D1A06888B128
:1032800094F88000012818D04FF0010984F880904C
:10329000FEF728FA94F881108246002001290ED00A
:1032A000022125E084F881B02046009313463A4677
:1032B000114600F0C5FABDE8F88F0220FBE7B7B170
:1032C000AEB1A26880466766A4F8686084F881B0F1
:1032D000C4F88400A4F86A60E065A4F86000A4F86B
:1032E0006200B2F5C02F2067606705D009E00121B8
:1032F00084F880000846DEE72068016821F4006158
:103300000160206841686FF30F013143416020681C
:10331000016841F0010101606068B0F5800F04D1DF
:103320002068016841F400710160E0680F282ED91F
:1033300048F20806B4F86A00002858D020684169AD
:1033400031420BD0006B616E0860606E001D6066DC
:10335000B4F86A00401EA4F86A00EBE7FEF7C2F971
:10336000A0EB0A00A84202D3681CE3D001E0002DC4
:10337000E0D1204601F098F8D4F8842084F88080C9
:1033800042F48071C4F8841084F8819078E00728B2
:1033900029D867E02068416911F4604F18D041696D
:1033A000090409D5006B616E0860606E001D6066DF
:1033B000B4F86A00801E08E0008E616E0880606EBE
:1033C000801C6066B4F86A00401EA4F86A000AE037
:1033D000FEF788F9A0EB0A00A84202D3681C02D0CD
:1033E000C7E7002DC5D0B4F86A000028D2D13DE06F
:1033F0002068416911F4604F29D04169090409D559
:10340000006B616E0860606E001D6066B4F86A0053
:10341000001F19E0416901F4C041B1F5005F09D90D
:10342000008E616E0880606E801C6066B4F86A0071
:10343000801E09E090F83000616E0870606E401CDC
:103440006066B4F86A00401EA4F86A000AE0FEF75D
:1034500049F9A0EB0A00A84202D3681C02D088E711
:10346000002D86D0B4F86A000028C1D1204601F0B2
:103470001BF884F88190D4F8841084F8808009B116
:10348000012018E7009816E72DE9F041044616469A
:1034900004204FF48008A2685AB96368434508D1F4
:1034A00084F88100334620460A46BDE8F04100F02A
:1034B00059BB94F88030012B09D094F88130012752
:1034C000002584F88070012B04D002202DE002201A
:1034D000BDE8F08141B33EB361666034B2F5C02F00
:1034E00084F82100656225616561258026816681F9
:1034F0006580A4F1600404D12068016821F40061B2
:103500000160E0684FF480410F2803D9E26F9269AF
:103510008A4209D107284FF4005209D9E06F806927
:10352000904205D0884203D0012084F88050CFE734
:103530002068836823F480438360E068072811D8FB
:10354000E06F8369934205D1B4F86A20521C520897
:10355000A4F86A208069884210D1B4F86A00C01CBF
:10356000800809E00F2809D8E06F8069884205D1FA
:10357000B4F86A00401C4008A4F86A00E06F2149D2
:103580000164E16F2048C863E16F2048C864E06FC0
:103590000565B4F86A302168626EE06F3031FDF77E
:1035A00055FD48B1D4F88410384641F01001C4F8F4
:1035B000841084F881708BE7E06FC069B0F5807F7C
:1035C000206841686FF30F0100D0314341602068EB
:1035D000816841F4804181602068016941F4507143
:1035E00001612068016841F00101016060684045A7
:1035F00004D12068016841F400710160284684F814
:10360000805065E791450008AF4500086545000812
:10361000704770472DE9F84F8A4690F880101D4694
:103620001746012904464FF0000B0DD04FF001085A
:1036300084F88080FEF756F8814694F881000026D1
:10364000012804D002201EE00220BDE8F88FBAF164
:10365000000F17D0B7B1A1680320C4F85CA0A4F88C
:10366000607084F88100C4F88460A4F862706666B3
:10367000A4F86860A4F86A60B1F5C02F6667266791
:1036800004D008E0012084F88060DEE7206801684B
:1036900041F400610160206841686FF30F01394314
:1036A00041602068016841F0010101606068B0F587
:1036B000800F04D12068016841F400710160E06866
:1036C0000F281AD82CE02068416989070BD5E16DD5
:1036D00009680162E06D001DE065B4F86200401EFB
:1036E000A4F8620009E0FDF7FDFFA0EB0900A84285
:1036F00002D3681C01D005E025B1B4F862000028AF
:10370000E1D181E0204600F0CFFED4F8841084F8A7
:10371000806041F48071C4F8841084F881808BE06B
:1037200007282BD86CE02068416989071BD5B4F8BD
:10373000621001290BD9E16B49B1E16D09680162A1
:10374000E06D001DE065B4F86200801E08E0E16DE8
:1037500009880184E06D801CE065B4F86200401EB9
:10376000A4F862000AE0FDF7BDFFA0EB0900A84243
:1037700002D3681C02D0C5E7002DC3D0B4F86200A4
:103780000028D0D140E02068416989072DD5B4F8E0
:10379000621003290CD9E16B402909D9E16D096850
:1037A0000162E06D001DE065B4F86200001F19E0E1
:1037B000B4F8621001290BD9E16B49B1E16D0988B8
:1037C0000184E06D801CE065B4F86200801E09E0B1
:1037D000E16D097880F82010E06D401CE065B4F8D8
:1037E0006200401EA4F862000AE0FDF77BFFA0EB38
:1037F0000900A84202D3681C02D083E7002D81D0C3
:10380000B4F862000028BED100224B4608212046B1
:10381000009500F008FF28B1D4F8840040F02000A3
:10382000C4F88400204600F03FFE84F88180D4F87C
:10383000840084F8806008B1012006E7584604E758
:103840002DE9FF4F83B090F8801004461D460020FC
:103850009346109F0129019014D04FF0010A84F87B
:1038600080A0FDF73FFF804694F881006368002147
:1038700001282E464FF480020CD0934208D1A36851
:1038800033B903E0022007B0BDE8F08F042801D06F
:10389000022037E0049898B3BBF1000F31D07DB31C
:1038A00094F88100042802D0052084F8810089461C
:1038B0000846C4F88410C4F864B0A4F86A50A4F8A8
:1038C00068500499E165A4F86250A4F8605020673C
:1038D0006067206841686FF30F01294341602068E9
:1038E000016841F0010101606068904204D12068E4
:1038F000016841F400710160E0680F2835D846E0A6
:10390000FFE7012084F88010BDE72068416989073E
:103910000DD565B1E16D09680162E06D001DE065DE
:10392000B4F86200401EA4F86200B4F8625048F295
:1039300008022068416911420DD066B1006B616ECA
:103940000860606E001D6066B4F86A00401EA4F84E
:103950006A00B4F86A60FDF7C5FEA0EB0800B84243
:1039600002D3781C01D004E01FB155EA0600CCD187
:10397000DBE0204600F098FDD4F8842084F88090A5
:1039800042F48071C4F8841084F881A0E5E007282F
:103990004AD8C7E02068416989071BD5D5B1012DF8
:1039A0000BD9E16B49B1E16D09680162E06D001D61
:1039B000E065B4F86200801E08E0E16D09880184CA
:1039C000E06D801CE065B4F86200401EA4F862005F
:1039D000B4F862502068416911F4604F1AD0CEB13A
:1039E0004169090409D5006B616E0860606E001DB5
:1039F0006066B4F86A00801E08E0008E616E088080
:103A0000606E801C6066B4F86A00401EA4F86A000C
:103A1000B4F86A60FDF766FEA0EB0800B84202D376
:103A2000781C01D004E01FB155EA0600B2D17CE059
:103A3000204600F039FDD4F8842084F8809042F4C8
:103A40008070C4F8840084F881A086E02068416911
:103A500089072BD555B3032D0CD9E16B40290BD920
:103A6000E16D09680162E06D001DE065B4F8620077
:103A7000001F17E0012D0BD9E16B49B1E16D0988F9
:103A80000184E06D801CE065B4F86200801E09E0EE
:103A9000E16D097880F82010E06D401CE065B4F815
:103AA0006200401EA4F86200B4F8625020684169C8
:103AB00011F4604F2BD056B34169090409D5006B4E
:103AC000616E0860606E001D6066B4F86A00001FD9
:103AD00019E0416901F4C041B1F5005F09D9008ED8
:103AE000616E0880606E801C6066B4F86A00801E9B
:103AF00009E090F83000616E0870606E401C6066EE
:103B0000B4F86A00401EA4F86A00B4F86A60FDF7D1
:103B1000E9FDA0EB0800B84202D3781C02D028E7E8
:103B2000002FFCD055EA060090D100224346082120
:103B30002046009700F077FD28B1D4F8840040F0CB
:103B40002000C4F88400204600F0AEFC84F881A078
:103B5000D4F8841084F8809009B1012093E601988C
:103B600091E600002DE9F041044690F880001E46E1
:103B700001280DD094F88100012763684FF4800874
:103B8000002584F88070434507D1A3682BB902E073
:103B90000220BDE8F081042803D0012801D00220D2
:103BA00030E071B36AB366B394F88100042802D0A0
:103BB000052084F881004FF48040C4F88450E1650A
:103BC000A4F86060A4F862606266A4F86860A4F873
:103BD0006A602567656721688A6822F440428A60C6
:103BE000E1680F2903D9E26F9269824209D107295E
:103BF0004FF4005C09D9E36F9A6962452AD082428A
:103C000028D0012084F88050C3E7A16F8A696245FB
:103C100005D1B4F86220521C5208A4F862208969C8
:103C2000814205D1B4F86210C91C8908A4F8621059
:103C3000E16F8A69624505D1B4F86A20521C5208C6
:103C4000A4F86A208969814219D1B4F86A00C01CBD
:103C5000800812E00F2912D8A16F8969814205D12D
:103C6000B4F86210491C4908A4F8621099698142AD
:103C700005D1B4F86A00401C4008A4F86A0094F822
:103C80008100E16F042813D02F4808642F48E16FAA
:103C9000C863E06F2E49C164E06F0565B4F86A300F
:103CA0002168626EE06F3031FDF7D0F9D8B904E0D9
:103CB000284808642848E16FEAE72068816841F4F1
:103CC00080418160A06F0564A06FC563A06FC5646B
:103CD000A06F0565B4F862302268E16DA06F2032F4
:103CE000FDF7B4F948B1D4F88410384641F010011A
:103CF000C4F8841084F881704BE7A06FC069B0F5F8
:103D0000807F206841686FF30F0100D0314341602C
:103D10002068816841F4004181602068016941F4B4
:103D2000587101612068016841F00101016060681B
:103D3000404504D12068016841F4007101602846C3
:103D400084F8805025E70000A5450008FF450008DD
:103D50006545000891450008AF4500082DE9F04190
:103D6000044690F880001646012809D094F8810096
:103D70000127002584F88070012804D0022032E059
:103D80000220BDE8F08169B366B3A2680320E16553
:103D9000A4F8606084F88100C4F88450A4F86260DC
:103DA000656665672567A4F86850A4F86A50B2F59F
:103DB000C02F04D12068016841F400610160E1680E
:103DC0004FF480420F2903D9A06F8069904209D136
:103DD000A06F07294FF4005308D98069984216D084
:103DE000904214D0012084F88050CAE7816999423A
:103DF00005D1B4F86210491C4908A4F86210806922
:103E000090420ED1B4F86200C01C800807E00F2970
:103E100007D8904205D1B4F86200401C4008A4F8CD
:103E20006200A06F24490164A16F2448C863A16F98
:103E30002348C864A06F05652068816821F40041AB
:103E40008160B4F862302268E16DA06F2032FDF726
:103E5000FDF848B1D4F88410384641F01001C4F898
:103E6000841084F881708CE7A06FC069B0F5807F02
:103E7000206841686FF30F0100D031434160206832
:103E8000816841F4004181602068016941F4487112
:103E900001612068016841F0010101606068B0F5CE
:103EA000800F04D12068016841F400710160284648
:103EB00084F8805065E700009B450008D74500085E
:103EC00065450008704770477047704704284FF0F9
:103ED000E020016903D021F004010161704741F045
:103EE0000401FAE7401EB0F1807F10B501D3012034
:103EF00010BD4FF0E02460610F21601700F0C3FF98
:103F00000020A0610721216110BD70B504001BD005
:103F10002420C4F8800000252068016821F00101F8
:103F20000160206805602068456020688560204643
:103F300000F042F8C4F88850C4F88050C4F88450A7
:103F4000002084F87C5070BD012070BD704710B512
:103F5000040003D0D4F8800010B107E0012010BDA8
:103F6000002084F87C00204600F052F82420C4F899
:103F700080002068016821F001010160204600F006
:103F800057FD0128EBD0A06A10B1204600F058FC84
:103F90002068416821F4904141602068816821F0E7
:103FA0002A0181602068016841F00101016020461A
:103FB000BDE8104000F0A8BC10B5104A01681048D8
:103FC000914206D10F490A6822F008020A60C02116
:103FD0000EE00D4A91420FD10A490C390A6822F4C9
:103FE00000220A604FF48071FDF77EF90748012135
:103FF000BDE81040FDF778B910BD0000000C005876
:1040000000040258F4440258004C004000000258DA
:104010002DE9F04186B0044614216846FCF744FAC5
:10402000206802262C4A01252A490324DFF8AC80A7
:1040300090421AD127481430026842F00802026008
:10404000006800F008000590086840F00100086072
:1040500008686946CDE9025400F00100059060024D
:104060000494CDE9000640462EE01D4A90422DD131
:1040700018480830026842F400220260006800F428
:1040800000200590086840F480700860086800F41B
:1040900080700590086840F00100086008680827F3
:1040A000CDE9025400F001000590B8016946CDE960
:1040B00000060C480497FDF7EDF9CDE90056CDE96F
:1040C0000254694640460497FDF7E4F906B0BDE89E
:1040D000F0810000E0440258000C00580000025833
:1040E000004C00400020025870B50446D0F8800013
:1040F00020283FD181B37AB394F87C00012839D0CD
:10410000A4F85420A4F856200025606F01232165EF
:10411000212184F87C30C4F88850C4F88010E8B1BC
:1041200015491346C163616F14480864616F1448F0
:10413000C864606F05652068666F00F12802216D14
:104140003046FCF783FF48B11021C4F888102020C6
:1041500084F87C50C4F88000012070BD21684020A4
:10416000086284F87C502068816841F08001816099
:10417000002070BD022070BDB5490008E349000869
:10418000674900087047704710B505F00DF90348FE
:104190000AF08EF8BDE8104005F024B9340A002476
:1041A000704700002DE9F047454D044689464FF021
:1041B000000A2868C04380070AD0414E283E306874
:1041C00020F080603060FDF78DFA0746B04608E0C9
:1041D0000120BDE8F08700BFFDF784FAC01B02286C
:1041E00067D8D8F800000001F6D4206829684FF499
:1041F000FE0721F47C313E0241EA00302860207A3B
:10420000A389B4F804C040022D4D2D495B1E227CC9
:10421000ACF1010C1035091DA0F5007080B2521EE2
:10422000CCF3080C07EA034340EA0C00184306EA03
:104230000262104328600868626920F0C0001043E1
:1042400008600A68A06922F0200202430A60281D63
:104250000A6822F010020A6002684FF6F873E469F7
:104260009A4342EAC40202600868B9F1000F40F0C4
:1042700010020A6011D00868B9F1010F11D040F4A2
:1042800000100860D8F80000444640F08060C8F88C
:104290000000FDF727FA05460DE0086840F400200D
:1042A000EFE740F48010ECE7FDF71CFA401B022812
:1042B00001D903208DE720680001F5D5504688E735
:1042C000284402582DE9F047454D044689464FF0F1
:1042D000000A2868C04380070AD0414E283E306853
:1042E00020F080503060FDF7FDF90746B04608E049
:1042F0000120BDE8F08700BFFDF7F4F9C01B0228DC
:1043000067D8D8F800008000F6D4208829684FF4D8
:10431000FE0721F07C713E0241EA00502860207ABD
:10432000A389B4F804C040022D4D2D495B1E227CA8
:10433000ACF1010C1835091DA0F5007080B2521EB9
:10434000CCF3080C07EA034340EA0C00184306EAE2
:104350000262104328600868626920F440601043DC
:1043600008600A68A06922F4007202430A60281DEE
:104370000A6822F480720A6002684FF6F873E469F2
:104380009A4342EAC40202600868B9F1000F40F49F
:1043900080720A6011D00868B9F1010F11D040F0A5
:1043A00080700860D8F80000444640F08050C8F89B
:1043B0000000FDF797F905460DE0086840F480001D
:1043C000EFE740F40000ECE7FDF78CF9401B022812
:1043D00001D903208DE720688000F5D5504688E795
:1043E00028440258020900F00F0102EB820001EBA1
:1043F0004000C0B270470146002002E00A39401C6C
:10440000C9B20A29FAD2000741EA106070470000D9
:104410002DE9F041044600680025C168490615D41D
:10442000691EC160FDF75EF9032706464FF47A78EE
:1044300008E000BFFDF756F9801B404502D903256F
:1044400084F821702068C0684006F3D52846BDE88E
:10445000F08100002DE9F041124C032706460025AB
:10446000E06820F04000E060A068800607D4304695
:10447000FEF7D2FD90B1032586F821700EE0A0680A
:1044800020F02000A0603046FEF7C6FD10B10325E5
:1044900086F82170A06840F02000A0602846BDE8A2
:1044A000F08100000040005810B5026840F26F3300
:1044B0005169946944F0080494610268946944F075
:1044C000100494610268146824F001041460026806
:1044D00014699C4314610268936823F44043936019
:1044E00090F88120042A0CD08A060AD5D0F88420BE
:1044F00042F08002C0F884200268936943F02003F0
:10450000936190F88120032A0CD04A060AD5D0F88E
:10451000842042F00402C0F884200268936943F0CA
:10452000400393618A050AD5D0F8842042F0010245
:10453000C0F884200268936943F400739361C9054D
:104540000AD5D0F8841041F00801C0F88410016841
:104550008A6942F480728A610021A0F86210A0F892
:104560006A1010BD10B5846BFCF78CFB02280ED0CE
:104570002046FFF799FFD4F88410012041F0100184
:10458000C4F8841084F881002046FEF760FD10BD59
:1045900010B5806BFFF73DF810BD10B5806BFFF7CD
:1045A00092FC10BD10B5806BFFF78FFC10BD10B5ED
:1045B000806B90F88110072909D0C16FC969B1F5E6
:1045C000807F05D00068016941F00801016110BDDC
:1045D000FFF71EF810BD10B5806B90F88110072909
:1045E00009D0816FC969B1F5807F05D00068016984
:1045F00041F00801016110BDFFF764FC10BD10B56A
:10460000806B90F88110072909D0816FC969B1F5D5
:10461000807F05D00068016941F00801016110BD8B
:10462000FFF752FC10BD2DE9F041984616460D46A5
:104630000746069C09E0FDF755F8A0EB0800A042EC
:1046400002D3601C01D00BE054B13868406935EAF0
:10465000000007D00020B042EDD00020BDE8F0817E
:104660000320FBE70120F6E7704710B504F09CFE3D
:10467000FDF742F807F022FBBDE8104004F0B2BE9F
:10468000F0B5CBB04C212FA8FBF70EFF202142A89C
:10469000FBF70AFFBC216846FBF706FF0220FDF787
:1046A000C1F8254800242549026842F440420260CE
:1046B00002680A6842F001020A60096801F001011B
:1046C0004A9101688904FCD5FDF7D6F8FDF704F896
:1046D0001B4A0521022013680825C60323F018078A
:1046E0001760012331933890C022CDE92F1639AEDF
:1046F00086E807003C903D903E902FA8CDE93F54BE
:104700004194FEF7A7F840203F210301CDE9455031
:104710000322CDE9470342AB499042A883E8160043
:104720000421FDF787FEE8040090811368462C9170
:10473000FDF722FA4BB0F0BD184802582C0400587F
:10474000704402582E48F0B52E4A016841F47001B9
:104750000160106800F00F00072804D2106820F0F4
:104760000F00C01D106028490020274C10340B6832
:10477000264D43F001030B6020600B682B400B605B
:10478000136803F00F03072B04D9136823F00F03FA
:10479000DB1D13601C4C1E4A18341E4B261D371D92
:1047A0002060194C1C4D28343060261D3860371DA0
:1047B00023603B1D35601C1D3A60251D2E1D1860B1
:1047C000331D22602860326018600A680E4B134C5B
:1047D00022F4802260330A60186020686FF30F00B3
:1047E000B0F1005F03D20E490120C1F8080143F285
:1047F000D2000C49024B4A03803B08601A60F0BDAE
:1048000088ED00E000200052004402587FEDF6EAF7
:1048100080020101000202020000FF010010005CA2
:10482000008000510040005210B504F0BDFD034867
:1048300009F03EFDBDE8104004F0D4BD4C09002451
:1048400090F82810C90706D00168C36A4A6822F4A4
:1048500000321A434A6090F82810890706D501688B
:10486000036B4A6822F480321A434A6090F8281099
:10487000490706D50168436B4A6822F480221A432F
:104880004A6090F82810090706D50168836B4A68CA
:1048900022F400421A434A6090F82810C90606D54F
:1048A0000168C36B8A6822F480521A438A6090F8C8
:1048B0002810890606D50168036C8A6822F4005224
:1048C0001A438A6090F82810490611D50168436C94
:1048D0004A6822F480121A434A60416CB1F5801F85
:1048E00006D10168836C4A6822F4C0021A434A6008
:1048F00090F82810090606D50168C26C486820F4B3
:104900000020104348607047F8B500260446C0F800
:104910008860FCF7E7FE054620686FF07E47006878
:10492000000708D500222B464FF4001120460097BF
:1049300000F056FA60B92068006840070AD50022E6
:104940002B464FF480012046009700F049FA08B149
:104950000320F8BD2020C4F8800084F87C60C4F8EF
:1049600084000020F8BD70B5846B00252168D4F860
:104970008000D4F884608968090606D5212804D10E
:10498000A4F85650204600F045F82068806840069C
:1049900006D5222E04D1A4F85E50204600F026F859
:1049A000D4F8880040F01000C4F888002046FFF7D3
:1049B000CDFA70BD10B5C169806BB1F5807F0DD0A7
:1049C0000021A0F8561001688A6822F080028A60EF
:1049D0000068016841F04001016010BDFFF7D2FBA3
:1049E00010BD10B5806BFFF7CEFB10BD30B5016870
:1049F0002023074D00240A6822F490720A6001689F
:104A00008A682A408A60C0F88430C46630BD0000DD
:104A1000FEFFFFEF016820220B6823F0C0030B604C
:104A200001688B6823F400038B60C0F88020704716
:104A30002DE9F04304468068D94F87B02268D4E955
:104A40000465E369616E304316681D432843D54B06
:104A5000002501433E400E4316602068E26841682D
:104A600021F44051114341602268A1699A4201D06A
:104A7000206A01439668DFF830C3CC4FCC4806EA81
:104A80000C060E4396602168666ACA6A22F00F021D
:104A90003243CA622268BA420ED1006800F0380080
:104AA000182873D047DCB8B3082879D010286FD104
:104AB00078E028287ED17BE0BE498A4209D100688F
:104AC00000F00700062875D2DFE800F0546A6C6E2B
:104AD0007072B9498A4209D1006800F007000628BF
:104AE00068D2DFE800F0475D5F616365B3498A42E1
:104AF00009D1006800F0070006285BD2DFE800F06B
:104B00003A5052545658AE498A420BD1006800F0D0
:104B1000070006284ED200E010E0DFE800F02B414D
:104B200043454749A7498A420AD1006800F0380046
:104B3000182839D0B7DD2028BBD13CE001203AE06D
:104B4000A1498A4209D1006800F00700062831D245
:104B5000DFE800F01026282A2C2E9C498A420BD12F
:104B6000006800F00700062824D2DFE800F00319EF
:104B70001B1D1F2100201EE09A421BD18C48001DE6
:104B8000006800F00700062814D202E00CE007E0FD
:104B900010E0DFE800F0030507090B0D02200AE032
:104BA000042008E0082006E0102004E0202002E0B5
:104BB000402000E080208649DFF818829A42864A29
:104BC0004FF400434FEA21174FF000064ED1102852
:104BD0001AD006DC022809D004280BD008287DD181
:104BE0000DE020283ED0402878D13DE0FCF76EFE55
:104BF000014610E06846FCF77BFE01990BE003A834
:104C0000FCF718FF049906E01068800604D51068C8
:104C1000C0F3C100C140C1B3606A676838F81020B2
:104C200007EB4703B1FBF2F0834257D8B0EB073FE5
:104C300054D8002308461946FBF7ECFB0902020290
:104C400041EA106170084FEA370010183A46714186
:104C50000023FBF7DFFB614AA0F5407191423DD88C
:104C600021684CE03946D7E71946D5E7D4F81CC08F
:104C70004FF6EF799C4552D108281AD006DC60B176
:104C800001280DD0042829D10EE039E0102815D0D4
:104C9000202840D040287CD13FE0FDF71BFD01E0FB
:104CA000FDF72AFD014610E06846FCF721FE019958
:104CB0000BE003A8FCF7BEFE049906E0106880062E
:104CC00004D51068C0F3C100C140C9B1636A60680F
:104CD00038F81330B1FBF3F1490000E059E001EB83
:104CE0005001B1FBF0F080B2A0F11001494550D85D
:104CF0004FF6F0732168C0F3420218401043C860B9
:104D00000120A4F86A00A4F868002846E666266731
:104D100007B0BDE8F0833946D8E71946D6E708283A
:104D200019D005DC58B101280CD0042831D10DE090
:104D3000102815D020282ED040282AD12DE0FDF7AC
:104D4000C9FC01E0FDF7D8FC014610E06846FCF71D
:104D5000CFFD01990BE003A8FCF76CFE049906E077
:104D60001068800605D51068C0F3C100C140002955
:104D7000C6D0636A606838F81330B1FBF3F101EB19
:104D80005001B1FBF0F080B2A0F1100149457FF66F
:104D900067AF0125B4E73946EBE71946E9E70000BC
:104DA000F369FFCF000C0058FFF4FF110010014021
:104DB000544402580044004000480040004C004069
:104DC000005000400014014000780040007C00408A
:104DD0000090D003ECE4000800440258FFFC0F00F0
:104DE0002DE9F0479A4617460E460446089D4FF0B7
:104DF00000094FF0200839E0681C37D0FCF772FC3E
:104E0000A0EB0A00A84222D80DB320680168490728
:104E10002CD5C069C043000528D423684FF4006135
:104E2000196221680B6823F4D0730B6021688B68CA
:104E300023F001038B60C4F88080C4F88480C4F838
:104E4000888000BF032084F87C90BDE8F08721684B
:104E50000B6823F4D0730B6021688B6823F0010387
:104E60008B60C4F88080C4F88480EBE72068C06958
:104E700036EA000004D00020B842BDD00020E4E7AC
:104E80000120F9E7FEE7090700284FEA116104DB7A
:104E900000F1E02080F80014704700F00F0000F1EE
:104EA000E02080F8141D7047004870476402002419
:104EB00081070CD1642190FBF1F201FB120141B991
:104EC0004FF4C87190FBF1F201FB120008B1002011
:104ED00070470120704702E008C8121F08C1002A6D
:104EE000FAD170477047002001E001C1121F002A6B
:104EF000FBD1704710B5044605484068FBF7D6F96A
:104F00000449401E51F830102060A1F1140010BD7A
:104F1000F40000249804002403480168814201D071
:104F20000120704700207047040100242DE9F04F54
:104F3000060017468BB08B464FF0000405D126497A
:104F400026A04FF49B7203F013F83FB9224924A026
:104F500040F2371203F00CF800E0641C305D2028AA
:104F600003D0092801D05C45F7D34FF0FF3984B353
:104F70001E4804F1060ADFF87080056811E0286811
:104F800006221BA1FBF7DEFA50B9286822463146FB
:104F9000801DFBF7D7FA18B9296811F80A0028B163
:104FA0000C35D8F800008542E9D313E0AC6884B131
:104FB00028216846FBF778FA6A465946304602F0DF
:104FC000D3FA30B16946A047386000200BB0BDE885
:104FD000F08FFFE74846F9E7A4EA0008636D640034
:104FE0007265747000000000400100243C01002440
:104FF0005F5F636D645F000070B50500144604D107
:105000000849372208A002F0B3FF3CB1286C62883F
:105010002188036828469847002070BD4FF0FF3074
:1050200070BD000012EC000870696E20213D205216
:10503000545F4E554C4C000070B504001E4615469A
:1050400004D10949182209A002F092FF0DB1042EE3
:1050500001D0002070BD206C2988826820469047CE
:105060006880304670BD0000FDEB000870696E205E
:10507000213D2052545F4E554C4C000070B5040049
:105080001E46154604D10949272209A002F070FFE7
:105090000DB1042E01D0002070BD206C6A882988D3
:1050A000436820469847304670BD000007EC000872
:1050B00070696E20213D2052545F4E554C4C0000CB
:1050C00010B5040004D112494F2212A002F050FF83
:1050D000A06A0178232906D1E169814203D9E26AF5
:1050E00002448A420AD210A0214604F0D5F901F008
:1050F000A3FEFBF7F5F80028FDD110BD203081425A
:10510000FBD82146BDE810400EA004F0C5B9000050
:10511000D1E8000874687265616420213D20525412
:105120005F4E554C4C0000007468726561643A250E
:105130007320737461636B206F766572666C6F7732
:105140000A0000007761726E696E673A202573204D
:10515000737461636B20697320636C6F7365207473
:105160006F20656E64206F6620737461636B2061CD
:105170006464726573732E0A000000002DE9FC411F
:105180001F4604461430DDE90831DDE90A65406058
:1051900000601846C4E90827C4E90A310A462321F9
:1051A00004F0EDFA04F120000FC81A44144B121F4A
:1051B00004F07CF8202EE06104D31249952212A05D
:1051C00002F0D6FE84F83660002084F8356023466D
:1051D00065641946A063A564206384F83400A06761
:1051E000E067124A0090019004F14C0006F09EFE28
:1051F0000F48816809B1204688470020BDE8FC813E
:1052000015B700081FE900087072696F7269747938
:10521000203C2052545F5448524541445F5052490B
:105220004F524954595F4D4158000000C9BB000816
:105230000C01002430B50025039C24F001044472C5
:105240001C3080E82E0008384060006030BDD0E996
:1052500005124A60F0E90512116040600060704775
:105260002DE9F047060015460F4605D11E494FF4BB
:1052700084721E4802F07CFEF46CA8464FF0000ACF
:1052800064BB19494FF4867219A002F071FE25E043
:10529000FBF726F8A2880146E088904201D1A26877
:1052A00082B12368421C92B213F80090E280B06C85
:1052B000C0F38F20824201D3A4F806A0A068012881
:1052C00004D005E00846FBF70FF809E0C4F808A091
:1052D0000846FBF709F86D1E07F8019B002DD7D192
:1052E000A8EB0500BDE8F08759EB000858A90008B5
:1052F00072785F6669666F20213D2052545F4E557B
:105300004C4C00002DE9F047050014460E4605D12F
:105310001A494FF49C721A4802F02AFED5F85080C0
:1053200027464FF0FF395FEA08001CD113494FF4BC
:105330009E7214A002F01CFE15E030780A2809D1F4
:10534000287E400606D5286C0D21826828469047A5
:10535000401C0DD0286C3178826828469047401C4C
:1053600006D0641E761C002CE7D13846BDE8F087D5
:105370004946404602F092FEF5E7000068EB00085F
:1053800058A90008747820213D2052545F4E554C96
:105390004C0000000020704770B504001D46164602
:1053A00004D10A4916220AA002F0E2FDE06E20B9FB
:1053B000064917220AA002F0DBFDE06E2B463246BA
:1053C000BDE87040002105F0B5BE000061ED0008A9
:1053D00062757320213D2052545F4E554C4C0000A5
:1053E0006275732D3E6F776E657220213D20525499
:1053F0005F4E554C4C00000070B504001E4615462B
:1054000004D10A4924220AA002F0B2FDE06E20B9BC
:10541000064925220AA002F0ABFDE06E334629467C
:10542000BDE87040002205F085BE000076ED000862
:1054300062757320213D2052545F4E554C4C000044
:105440006275732D3E6F776E657220213D20525438
:105450005F4E554C4C0000000020704770B50400B2
:105460001D46164604D10A4968220AA002F080FDB2
:10547000206C20B9064969220BA002F079FD2B4669
:1054800032462046BDE87040002105F053BE0000C2
:10549000A3ED000864657669636520213D205254C0
:1054A0005F4E554C4C0000006465766963652D3E87
:1054B00062757320213D2052545F4E554C4C0000C4
:1054C00070B504001E46154604D10A4976220AA08A
:1054D00002F04EFD206C20B9064977220BA002F0A5
:1054E00047FD334629462046BDE87040002205F0BE
:1054F00021BE0000B7ED0008646576696365202170
:105500003D2052545F4E554C4C0000006465766956
:1055100063652D3E62757320213D2052545F4E55C8
:105520004C4C00002DE9FE4F17460E460169F2195A
:1055300000F120081D468A4281464FF0010A0BD92E
:1055400042A003F0A9FF44A003F0A6FF4CA003F083
:10555000A3FF0520BDE8FE8FD8F80810404601B132
:105560008847F0070CD0012328466D1C3146761C75
:105570001A460090484602F079F804005AD17F1E7E
:105580004846012107F04CF8040053D1AD208DF8B6
:1055900004000DF1040B3AE0BAF1000F13D05C46A1
:1055A0003146621C484601F0F5FD99F8350008B116
:1055B000052200E0042228784FF0000AA054A01829
:1055C0006978417006E0287801228DF80500687836
:1055D0008DF80600002000900023D8F80440921CAB
:1055E00001A94046A047040009D018A003F054FFC9
:1055F00024A003F051FF22A003F04EFF1AE048461A
:1056000008F022FF040015D1AD1CB61CBF1E022FEE
:10561000C2D20021484607F003F804000AD1012F46
:105620000CD1012331461A464846009502F01EF877
:10563000040003D00021484606F0F2FFD8F80C1011
:10564000404601B18847204684E700005B492F535C
:105650004655445D200000004572726F723A204644
:105660006C61736820616464726573732069732070
:105670006F7574206F6620626F756E642E00000077
:105680000A0000004572726F723A20466C617368BE
:105690002077726974652053504920636F6D6D7572
:1056A0006E6963617465206572726F722E0000000E
:1056B000014900F003B80000E00A00242DE9F041A0
:1056C0000C4621490546806951F820001D312060B3
:1056D000286951F82000606004F10800E96801F0D1
:1056E000ABFF207A2026302800D1267204F10B006F
:1056F000A672A96801F0A0FF3A276773696804F1F0
:105700000E0001F099FF277404F11100296801F0DF
:1057100093FFE6746426686900F26C7090FBF6F102
:1057200004F1140001F088FF686900F26C7090FBCE
:10573000F6F106FB110104F1160001F07DFF0A20CD
:1057400020762046BDE8F08104F0000801220146E1
:105750005FF0000002FA00F38B4204D0401C2028C6
:10576000F8DB4FF0FF3070471BA010B503F094FE3C
:105770001C4C21781CA003F08FFE2078C00702D0BB
:105780001FA003F089FE2078800702D51FA003F038
:1057900083FE2078400702D51FA003F07DFE20780D
:1057A000000702D520A003F077FE2078C00602D5BE
:1057B00020A003F071FE2078000607D509480F30BD
:1057C00001681EA0BDE8104003F066BEBDE81040B1
:1057D0001EA003F061BE0000627573206661756CE7
:1057E000743A0A0029ED00E05343425F43465352A6
:1057F0005F424653523A307825303258200000003C
:105800004942555345525220000000005052454332
:105810004953455252200000494D50524543495387
:105820004552522000000000554E53544B455252F1
:105830002000000053544B45525220005343422D48
:105840003E424641523A253038580A000A000000CC
:1058500002A010B503F020FE002010BD1B5B324AF1
:105860001B5B480010B501F06BF8002010BD10B5AF
:1058700001F0E2FA002010BD10B501F05BFCBDE8BC
:105880001040FFF715BF00002DE9F84301280C4632
:1058900021D0072852D36068FAF79BFE1FFA80F9DF
:1058A000A068FAF796FEC6B2E068FAF792FEC5B2B3
:1058B0002069FAF78EFE00F0FF086069FAF789FEAA
:1058C000C7B2A069FAF785FEA9F5FA616429C2B2E8
:1058D0000FD31DA024E0002008F0C8FC009068460B
:1058E000FFF7CAFF1921024620A003F0D5FDBDE84D
:1058F000F8830EB10C2E01D91EA011E00DB11F2DA1
:1059000001D924A00CE0B8F1170F404601D928A016
:1059100006E03B2F01D92EA002E03B2A04D934A097
:10592000BDE8F84303F0B8BD394606F04DFE2A46FF
:1059300031464846BDE8F84306F0D4BD34A003F034
:10594000ABFD42A0ECE7000079656172206973202D
:105950006F7574206F662072616E6765205B3230F0
:1059600030302D323039395D0A000000252E2A737F
:10597000000000006D6F6E7468206973206F75748D
:10598000206F662072616E6765205B312D31325D5C
:105990000A000000646179206973206F7574206FBC
:1059A000662072616E6765205B312D33315D0A00C0
:1059B000686F7572206973206F7574206F6620722E
:1059C000616E6765205B302D32335D0A0000000098
:1059D0006D696E757465206973206F7574206F66CC
:1059E0002072616E6765205B302D35395D0A0000DD
:1059F0007365636F6E64206973206F7574206F66C2
:105A00002072616E6765205B302D35395D0A0000BC
:105A1000706C6561736520696E7075743A2064619D
:105A20007465205B79656172206D6F6E74682064A7
:105A3000617920686F7572206D696E207365635D92
:105A4000206F7220646174650A000000652E673A59
:105A5000206461746520323031382030312030319B
:105A6000203233203539203539206F72206461743B
:105A7000650A00000EB51049D1E90001CDE9000129
:105A80000E48016841F001010160006810230C4AD2
:105A90000CA100F0010002900CA003F057FB0023C2
:105AA0006A4608A10BA005F035F8002802D10BA02A
:105AB00003F0F2FC0EBD0000DCE40008E0440258F4
:105AC0000000025873706931300000007370693152
:105AD00000000000573235515858000053504920FB
