:020000040800F2
:1000000018040024AD0200081F1800081918000881
:100010001D18000819030008091C00080000000052
:100020000000000000000000000000003B1A000873
:100030001B03000800000000211800083D1A0008FA
:10004000C7020008C7020008C7020008C70200086C
:10005000C7020008C7020008C7020008C70200085C
:10006000C7020008C7020008C7020008C70200084C
:10007000C7020008C7020008C7020008C70200083C
:10008000C7020008C7020008C7020008C70200082C
:10009000C7020008C7020008C7020008C70200081C
:1000A000C7020008C7020008C7020008C70200080C
:1000B000C7020008C7020008C7020008C7020008FC
:1000C000C7020008C7020008C7020008C7020008EC
:1000D000C7020008C7020008C7020008C7020008DC
:1000E000C7020008C702000800000000C70200089D
:1000F000C7020008C7020008C7020008C7020008BC
:10010000C7020008C7020008C7020008C7020008AB
:10011000C7020008C7020008C7020008C70200089B
:10012000C7020008C7020008C7020008C70200088B
:10013000C7020008C7020008C7020008C70200087B
:1001400000000000000000000000000000000000AF
:10015000C7020008C7020008C7020008C70200085B
:10016000C7020008C7020008C7020008C70200084B
:10017000C7020008C7020008C7020008000000000C
:10018000C7020008C7020008C7020008C70200082B
:10019000C7020008C7020008C7020008C70200081B
:1001A000C7020008C7020008C7020008C70200080B
:1001B000C7020008C7020008C7020008C7020008FB
:1001C000C7020008C7020008C7020008C7020008EB
:1001D000C7020008C7020008C7020008C7020008DB
:1001E000C7020008C7020008C7020008C7020008CB
:1001F000C7020008C7020008C7020008C7020008BB
:10020000C7020008C7020008C7020008C7020008AA
:10021000C7020008C7020008C7020008C70200089A
:10022000C7020008C7020008C7020008000000005B
:10023000C7020008C702000800000000C70200084B
:10024000C7020008C7020008C7020008C70200086A
:10025000C7020008C7020008C7020008C70200085A
:10026000C7020008C7020008C7020008C70200084A
:10027000C7020008C7020008C7020008000000000B
:10028000C7020008C7020008C702000800000000FB
:1002900000000000C7020008DFF80CD000F02AF8C8
:1002A000004800470D1C0008180400240648804739
:1002B00006480047FEE7FEE7FEE7FEE7FEE7FEE74B
:1002C000FEE7FEE7FEE7FEE72D1B000899020008A7
:1002D000D2B201E000F8012B491EFBD27047002288
:1002E000F6E710B513460A4604461946FFF7F0FF35
:1002F000204610BD064C074D06E0E06840F00103C3
:1003000094E8070098471034AC42F6D3FFF7C8FFD3
:100310008C1C0008AC1C0008FEE77047B0B5044612
:1003200000F00FF940F208010546C2F20041621CDC
:10033000097818BF0C4400BF00F003F9401BA0422D
:10034000FAD3B0BD2DE9F04F86B00F680290002FB0
:1003500000F0E68002988C4600F126420A2102F164
:10036000FF7342F20042C5F602024FF000099042CC
:100370004FEAB32208BF0921092A4FF0010238BF12
:100380004FEAB32101264FF0000A4FF00008009118
:10039000CDF804C0701E02FA00FE17EA0E0100F04C
:1003A000A980DCF804B00491BBF1120F00F2B18017
:1003B00002FA0BF717F0061F00F0AB80029C032136
:1003C00001FA0AF2A368DCF80C709343D14307FAF0
:1003D0000AF21A43A26062684FEA1B134FEA48050B
:1003E00022EA0E0283401A4362604BF01003E26877
:1003F000122BDCF8083002EA010203FA05F303913C
:1004000042EA0302E26014D16FF0030109F01C0715
:1004100001EA50020F212244B940D2F820E0DCF872
:1004200010302EEA0101BB40029C19431162DCF836
:1004300004B00BF003012268039BA9401A405FEA55
:10044000CB0341EA02012160DDF804C04FF0010254
:10045000049C4FD544F2F44240F2084EC5F6020225
:10046000C5F6000E0F27116841F0020111601168F6
:1004700001F00201059120F00301059A09F00C0238
:100480004FF0B04051F80E309740BB43009F07FA41
:1004900002F21A4341F80E2040F2040EC5F6000E97
:1004A000DEF87C10DCF8042041EA0403D70358BFCF
:1004B00021EA04039703CEF87C30DEF8801041EA8D
:1004C000040358BF21EA0403D702CEF88030016844
:1004D00041EA040358BF21EA040392024FF00102EB
:1004E0000360DEF8001041EA040358BF21EA040368
:1004F000CEF80030DCF8007008F1010837FA06F198
:100500000AF1020A06F1010609F104097FF442AF7B
:1005100006E00321554601FA0AF7029CF94364E715
:1005200006B0BDE8F08F42690A408A4208BF09045C
:100530008161704741F20000C5F600400068000C80
:10054000704740F21000C2F200400068704740F26D
:10055000080040F21001C2F20040C2F200410078EF
:100560000A6810440860704780B5032000F096F8D0
:1005700000F056FE44F2184141F67C43C5F60201F4
:10058000C0F600030A68C2F30322096801F00F01F4
:100590009A5C595C02F01F02D04040F20402C2F2A1
:1005A000004201F01F0120FA01F1116040F2000148
:1005B000C2F200410860002000F007F808B10120F5
:1005C00080BD00F02CF8002080BDB0B540F20801DD
:1005D000C2F200410978F9B1044640F20000C2F2CB
:1005E00000404FF47A72B2FBF1F10068B0FBF1F019
:1005F00001F0FCF80F2C4FF001050ED868B94FF050
:10060000FF3000222146002500F019F840F20C00CE
:10061000C2F20040046000E001252846B0BD81B070
:1006200044F2F440C5F60200016841F002010160A5
:10063000006800F002000090009801B0704770B5AB
:100640004EF60C5C4FF0FF36CEF2000C00F1604528
:10065000DCF80030C3F3022E8EF00703042B28BF12
:100660000423BEF1030406FA03F321EA030100F0B8
:100670000F0338BF0024043BB0F1FF3F634406FA88
:1006800004F003F10C0301FA04F1C8BF05F564435B
:1006900022EA000008430001187070BD4EF60C51AC
:1006A0004FF6FF03CEF200010A681A4060F30A22F7
:1006B00042F0806040F0FD7008607047B0B544F6CD
:1006C0000C05C5F6020529684907296805D401F01B
:1006D0000701081A18BF0120B0BD21F00701084327
:1006E0002860FFF72EFF044655F8080C800407D455
:1006F000FFF727FF001BB0F57A7FF5D90120B0BDC9
:100700000020B0BD44F60000C5F60200016841F4C7
:1007100080710160704744F27040C5F602000168C4
:1007200041F02001016070472DE9F0470446C07890
:1007300044F210480007C5F6020825D5606E4FEA5E
:10074000305103290AD8DFE801F0020B1018D8F85D
:100750001C1041F40031C8F81C100EE0012614E012
:10076000201D022101F05EF804E004F124000221C2
:1007700001F0DEF8064640B9606ED8F8401021F46A
:1007800040110843C8F8400000266078C00701D136
:10079000354629E0606D04280DD83546DFE800F0C5
:1007A000030E13191900D8F81C00354640F4003028
:1007B000C8F81C000DE00125012716E0201D0021CE
:1007C00001F030F804E004F12400002101F0B0F859
:1007D00005462F464DB9D8F84000616D20F007005E
:1007E00000250843C8F8400037466078800729D5BF
:1007F000A06D4FEAB01004280BD8DFE800F0030D1D
:1008000012181800D8F81C0040F40030C8F81C007A
:100810000DE00125012616E0201D002101F002F85F
:1008200004E004F12400002101F082F805462E4680
:100830004DB9D8F84000A16D20F4E07000250843C0
:10084000C8F840003E46607840072CD5D4F8A40094
:100850004FEA705004280BD8DFE800F0030E13199C
:100860001900D8F81C0040F40030C8F81C000EE055
:1008700001254FF0010917E0201D002100F0D2FFF3
:1008800004E004F12400002101F052F80546A946D5
:1008900055B9D8F84800D4F8A41020F46000002519
:1008A0000843C8F84800B146607800072BD5D4F853
:1008B000A8004FEA306004280BD8DFE800F0030DF1
:1008C00012181800D8F81C0040F40030C8F81C00BA
:1008D0000DE00125012717E0201D002100F0A2FFF7
:1008E00004E004F12400002101F022F805462F461F
:1008F00055B9D8F84800D4F8A81020F0E0600025D9
:100900000843C8F848004F46E078800722D5A06C1D
:100910004FEA301003280AD8DFE800F011020C116A
:10092000D8F81C0040F40030C8F81C0007E001258E
:10093000012610E0201D022100F074FF05462E461E
:100940004DB9D8F83C00A16C20F0300000250843D8
:10095000C8F83C003E466078C00629D5E06D4FEAF5
:10096000303004280BD8DFE800F0030D121818000F
:10097000D8F81C0040F40030C8F81C000DE0012538
:10098000012716E0201D002100F04CFF04E004F1D7
:100990002400002100F0CCFF05462F464DB9D8F8C1
:1009A0004000E16D20F4E04000250843C8F8400015
:1009B00037466078800622D5206E4FEA3040052801
:1009C00009D8DFE800F011030B111111201D0121DE
:1009D00000F028FF07E00125012611E004F12400C2
:1009E000012100F0A5FF05462E464DB9D8F840007C
:1009F000216E20F4E02000250843C8F840003E4660
:100A00006078400624D5D4F8AC004FEA3070052851
:100A100009D8DFE800F011030B111111201D01218D
:100A200000F000FF07E00125012712E004F1240097
:100A3000012100F07DFF05462F4655B9D8F8480042
:100A4000D4F8AC1020F0E04000250843C8F8480076
:100A50003746607800061ED5E06E88B1B0F1005FC1
:100A600009D0B0F1805F28D1D8F81C0040F40030E4
:100A7000C8F81C0004E0201D012100F0D3FE05464B
:100A80002E464DB9D8F84000E16E20F040500025C8
:100A90000843C8F840003E46E078C00724D0606CA8
:100AA00003280DD8DFE800F015021015D8F81C0057
:100AB00040F40030C8F81C000BE001250126EBE7EC
:100AC00001254FF0010910E0201D022100F0AAFECF
:100AD0000546A9464DB9D8F83C00616C20F00300EA
:100AE00000250843C8F83C00B146A078400601D470
:100AF0004F4617E0D8F8F00340F48070C8F8F003D0
:100B0000FFF71FFD064600BFD8F8F003C00507D465
:100B1000FFF717FD801B6428F6D90325032701E0A2
:100B20002F468DB12078C00753D0A06F4FEAF00058
:100B300005283AD8DFE800F042033C424242201D3B
:100B4000012100F06FFE38E0D8F86010D4F8B00052
:100B5000414011F4407F11D0D8F86010D8F86020DF
:100B600042F48032C8F86020D8F8602021F4407147
:100B700022F48032C8F86020C8F86010B0F5807F99
:100B800040F00382FFF7DDFC064641F2883A032578
:100B9000032700BFD8F86000800700F1F481FFF759
:100BA000D0FC801B5045F5D9BCE70125012611E09A
:100BB00004F12400012100F0BBFE05462E464DB98C
:100BC000D8F84400A16F20F0380000250843C8F889
:100BD00044003E462078800720D5606F052809D85C
:100BE000DFE800F011030B111111201D012100F0AD
:100BF00019FE07E00125012711E004F1240001217D
:100C000000F096FE05462F464DB9D8F84400616FB6
:100C100020F0070000250843C8F844003746207834
:100C2000400722D5D4F89000052809D8DFE800F065
:100C300011030B111111201D012100F0F3FD07E03C
:100C40000126012512E004F12400012100F070FECC
:100C500005462E4655B9D8F84800D4F8901020F033
:100C6000070000250843C8F848003E462078800663
:100C700024D5D4F88C004FEA3070052809D8DFE875
:100C800000F011030B111111201D002100F0CAFD0D
:100C900007E00127012512E004F12400022100F001
:100CA00047FE05462F4655B9D8F84400D4F88C10B5
:100CB00020F0E04000250843C8F84400374620787B
:100CC000400624D5D4F898004FEAB020052809D86A
:100CD000DFE800F011030B111111201D002100F0BD
:100CE000A1FD07E00126012512E004F12400022104
:100CF00000F01EFE05462E4655B9D8F84800D4F837
:100D0000981020F4E05000250843C8F848003E46FB
:100D10002078000624D5D4F89C004FEA70300528CE
:100D200009D8DFE800F011030B111111201D00217B
:100D300000F078FD07E00127012512E004F124000E
:100D4000022100F0F5FD05462F4655B9D8F84800B8
:100D5000D4F89C1020F4604000250843C8F84800EF
:100D600037462068010716D5D4F88010B1F5805FAA
:100D70000AD104F12400022100F0DAFD002818BF96
:100D800001272068D4F88010D8F8442022F440527B
:100D90001143C8F84410C10616D5D4F89410B1F523
:100DA000807F0AD104F12400022100F0C1FD002857
:100DB00018BF01272068D4F89410D8F8482022F4EE
:100DC00040721143C8F8481000031FD5D4F8A000A2
:100DD000B0F5003F0ED0B0F5803F05D068BB201DB8
:100DE000002100F01FFD04E004F12400022100F0C6
:100DF0009FFD05462E4655B9D8F84800D4F8A010F6
:100E000020F4403000250843C8F848003E46A0784A
:100E1000400727D5D4F88400B0F5401F16D0B0F5B0
:100E2000001F0DD0B0F5801F40F0AA80D8F81C003C
:100E300040F40030C8F81C0008E001260125E6E770
:100E400004F12400012100F073FD05462F4655B939
:100E5000D8F84400D4F8841020F44010002508434A
:100E6000C8F844003746A078C00701D13E461EE0CE
:100E7000E06CB0F5803F07D0B8B9D8F81C0040F45A
:100E80000030C8F81C0004E0201D022100F0CAFC5C
:100E900005462E465DB9D8F83C00E16C20F4803060
:100EA00000250843C8F83C00E0E70126012520683A
:100EB000810008D504F12400022100F039FD00284A
:100EC00018BF0126206881031BD5E16F6FF0010276
:100ED00002EB3122022A0AD34FEA31223AB1012A27
:100EE00006D1D8F81C2042F40032C8F81C200DB1FD
:100EF000012606E0D8F8442022F440721143C8F8D5
:100F00004410C10207D5D8F84010226F21F00041EB
:100F10001143C8F84010C10008D5D8F80010D4F823
:100F2000B42021F480411143C8F80010810207D594
:100F3000D8F84010A26E21F080711143C8F840101B
:100F400041000CD5D8F8001021F40041C8F8001079
:100F5000D4F8B810D8F800201143C8F80010B0F148
:100F6000FF3F07DCD8F83C00216D20F040500843DB
:100F7000C8F83C00002E18BF01263046BDE8F087B7
:100F8000012701256FE7D4F8B0004FF6CF73D8F8EA
:100F90000020C0F2FF0300F4407122F47C5203EA07
:100FA0001013B1F5407F4FF0000508BF1A436FF3EF
:100FB0001F30C8F80020D8F860100843C8F8600057
:100FC00096E500002DE9F04381B0002800F01B8178
:100FD00042F200080446C5F200288946D8F800000D
:100FE00000F00F0088420ED2D8F8000020F00F0069
:100FF00040EA0900C8F80000D8F8000000F00F002F
:10100000484540F00081206844F200474107C5F69A
:1010100002070AD52169BA6902F07002914204D927
:10102000BA6922F070021143B96101070AD56169FA
:10103000FA6902F07002914204D9FA6922F0700252
:101040001143F961C1060AD5A169FA6902F4E062A7
:10105000914204D9FA6922F4E0621143F9618106F0
:101060000AD5E1693A6A02F07002914204D93A6AFB
:1010700022F070021143396210F002010AD0E268D6
:10108000BB6903F00F039A4204D9BB6923F00F0335
:101090001A43BA61C20738D0B86920F47061D4E944
:1010A0000102032841EA0201B96105D0022807D1F3
:1010B000396889030DD4A6E03968890109D4A2E012
:1010C0000128396802D1C90503D49CE0490740F1E1
:1010D0009A80396921F0070108433861FFF731FA36
:1010E000064641F2883500BF3869616800F0380073
:1010F000B0EBC10F06D0FFF724FA801BA842F3D94A
:10110000032081E0206800F0020151B1E168BA6972
:1011100002F00F02914204D2BA6922F00F02114389
:10112000B961D8F8001001F00F0149450DD9D8F880
:10113000001021F00F0141EA0901C8F80010D8F8A9
:10114000001001F00F0149455DD141070AD5216921
:10115000BA6902F07002914204D2BA6922F07002B8
:101160001143B96101070AD56169FA6902F0700299
:10117000914204D2FA6922F070021143F961C1066A
:101180000AD5A169FA6902F4E062914204D2FA69CF
:1011900022F4E0621143F96180060AD5E069396AF8
:1011A00001F07001884204D2396A21F070010843CD
:1011B000386200F035F8B96941F67C43C0F60003A7
:1011C000C1F30321BA6902F00F02595C9A5C01F085
:1011D0001F0120FA01F102F01F0040F2040221FA7F
:1011E00000F0C2F20042106040F20C0040F2000237
:1011F000C2F20040C2F200420068116001B0BDE8D6
:10120000F043FFF7E2B9012001B0BDE8F08344F2FA
:101210000040C5F60200016841F4002101607047FA
:1012200044F20041C5F602010869C0F3C200032878
:101230000FD002282BD078BB0868800649F2000046
:10124000C0F2D03058BF70470968C1F3C101C8402F
:1012500070478A6A886AC0F3051CCB6A486B03F042
:101260000103BCF1000FC0F3CC0003FB00F000EE63
:10127000100AB8EE400A14D002F00302022A12D07B
:10128000A2B90868800614D49FED251A1EE047F61F
:101290004000C0F27D10704740F60010C0F23D00E3
:1012A0007047002070479FED1D1A0FE09FED1A1A3E
:1012B0000CE0086849F20002C0F2D032C0F3C1006D
:1012C00022FA00F001EE100AB8EE411A02EE10CA3E
:1012D0009FED144AB8EE422A086B6FF35F2003EECD
:1012E000100A81EE021AB8EE433A086B00EE043A97
:1012F000B7EE000AC0F34620013033EE000A21EEBB
:10130000000A01EE100AB8EE411A80EE010ABCEEA6
:10131000C00A10EE100A70470024744A20BCBE4B6D
:101320000024744C00000039F0B581B0002800F0B2
:1013300025810446007844F20046C007C5F602063F
:1013400012D0306900F03801B06A102905D0182990
:101350002BD100F00300022827D13068800303D589
:101360006068002800F00A812078800777D530690E
:1013700010F03801B06A29D0182908BF5FEA8070E0
:1013800024D0E068316800283DD021F019010843DD
:101390003060FFF7D6F80546306840071DD4FFF7E8
:1013A000D0F8401B0228F7D98BE16068E8B3B0F5AC
:1013B000803F07D0B0F5A02F306840F06F8140F437
:1013C00080203060306840F480306DE13068400744
:1013D00003D5E068002800F0D180FFF7ABF841F2B8
:1013E0000301884208D820697168402821F47C31C3
:1013F00032D141F4003031E07068216920F0FE40C4
:1014000040EA01602AE021F001003060FFF799F81E
:10141000054600BF3068400721D5FFF792F8401B12
:1014200002284FF00300F5D94CE1306820F48030F9
:101430003060306820F480203060FFF782F8054685
:10144000306880037FF590AFFFF77BF8401B64287E
:101450004FF00300F4D935E141EA003070602078A4
:10146000C00651D5306900F03801B06A082905D0AE
:10147000182918D100F00300012814D13068C005E4
:1014800002D5E069802879D1FFF754F841F20301D1
:1014900088421CD8206A7168202821F0F84130D198
:1014A00041F080402FE0E0690028306817D040F01C
:1014B00080003060FFF745F8054600BF3068C00582
:1014C000E2D4FFF73EF8401B0228F7D9F9E0F068B4
:1014D000216A20F07C5040EA0160F06014E020F0C6
:1014E00080003060FFF72DF8054600BF3068C0056A
:1014F0000AD5FFF726F8401B02284FF00300F5D964
:10150000E0E041EA806070602078000738D42078FD
:10151000800648D42078400759D4656A65B330699D
:1015200000F03800182840F09780012DB16A306B28
:1015300024D001F00302A36A9A421FD1C1F305111E
:10154000E26A91421AD10146226B6FF35F21013AA0
:10155000914213D1C0F34621626B013A91420DD101
:10156000C0F30641A26B013A914207D1C0F3066075
:10157000E16B0139884201D10020A3E00120A1E004
:1015800060690028706F35D040F001007067FEF789
:10159000D8FF0546706F8007B9D4FEF7D2FF401B15
:1015A0000228F7D98DE0A0690028306842D040F4C5
:1015B00080503060FEF7C5FF054600BF30688004EC
:1015C000A8D4FEF7BEFF401B0228F7D979E0D6F871
:1015D000000440F48070C6F80004FEF7B2FF054630
:1015E000D6F80004C00515D4FEF7ABFF401B6428F5
:1015F000F6D966E020F001007067FEF7A2FF05460D
:10160000706F80077FF583AFFEF79BFF401B0228BA
:10161000F6D956E0A068002856D0012806D0052843
:10162000306F40F0CB8040F004003067306F40F006
:101630000100C9E020F480503060FEF782FF0546CB
:10164000306880047FF566AFFEF77BFF401B022801
:101650004FF00300F4D935E0306820F0807030603E
:10166000FEF76FFF022D05460CD100BF30688001E8
:1016700044D5FEF766FF401B02284FF00300F5D962
:1016800020E000BF306880017FF576AFFEF759FF9C
:10169000401B02284FF00300F4D913E020F48030FF
:1016A0003060306820F480203060FEF74AFF054645
:1016B000306880033FF558AEFEF743FF401B6428B7
:1016C000F6D9032001B0F0BD306F20F00100306783
:1016D000306F20F004003067FEF733FF054641F21B
:1016E000883700BF306F80077FF517AFFEF729FFFF
:1016F000401BB8424FF00300F4D9E3E704F1280798
:10170000B06A40F2F33188438ECF0843591E40EA55
:1017100002104FF47E42B06202EB47206FF35F216C
:101720004FF4FE0280B2E36B0844A16B02EB01416F
:101730004FF0FE4201F4FE0102EB0362084402F0A6
:10174000FE4108443063F06A4FF6F87120F0010062
:10175000F062706BA26C884340EAC2007063F06A6A
:10176000216C20F00C000843F062F06A616C20F0FC
:1017700002000843F062F06A40F48030F062F06AE0
:1017800040F40030F062F06A40F48020F062F06AC9
:1017900040F00100F062306840F080703060FEF789
:1017A000D0FE0446306880013FF5E6AEFEF7C9FE84
:1017B000001B02284FF00300F4D983E720F001005A
:1017C0003067306F20F004003067FEF7BAFE054640
:1017D00041F28837306F80073FF59FAEFEF7B1FECC
:1017E000401BB8424FF00300F4D96BE7411E0020C4
:1017F000B0EB116F01D0012070474EF21002F023C0
:10180000CEF2000251604EF62351CEF200010B7071
:101810000721906011607047FEE70000FEE7704707
:1018200070470000F0B581B044F20047C5F60207EA
:10183000BA6A02F00302032A01D1012075E00546CD
:1018400038680C4620F080603860FEF77AFE064665
:101850003868000105D5FEF774FE801B0228F7D911
:1018600060E0B86AEE6895E80E0020F47C3040EA4B
:101870000130A2F101014FF47E42B86202EB432233
:101880004FF0FE436FF35F2192B202EB01004FF481
:10189000FE012A6901EB064101F4FE0103EB02623D
:1018A000084402F0FE410844B863F86A696920F010
:1018B000C00040EA0100F862F86AA96920F020003F
:1018C00040EA0100F862F86A4FF6F87120F0100063
:1018D000F862F86BEA6920EA010040EAC200F863A6
:1018E000F86A40F01000F8622CB1012CF86A06D1B9
:1018F00040F4801005E0F86A40F4002001E040F474
:101900000010F862386840F080603860FEF719FE19
:10191000044600BF3868000106D4FEF712FE001B23
:101920000328F7D3032000E0002001B0F0BD000041
:10193000F0B581B044F20047C5F60207BA6A02F07A
:101940000302032A01D1012075E0054638680C46E0
:1019500020F080503860FEF7F4FD064638688000BD
:1019600005D5FEF7EEFD801B0228F7D960E0B86AC6
:10197000EE6895E80E0020F07C7040EA0150A2F17C
:1019800001014FF47E42B86202EB43224FF0FE4366
:101990006FF35F2192B202EB01004FF4FE012A695E
:1019A00001EB064101F4FE0103EB0262084402F080
:1019B000FE4108443864F86A696920F4406040EAEE
:1019C0000100F862F86AA96920F4007040EA010099
:1019D000F862F86A4FF6F87120F48070F862786C5B
:1019E000EA6920EA010040EAC2007864F86A40F43B
:1019F0008070F8622CB1012CF86A06D140F4000026
:101A000005E0F86A40F4800001E040F08070F86280
:101A1000386840F080503860FEF793FD044600BF00
:101A20003868800006D4FEF78CFD001B0328F7D32E
:101A3000032000E0002001B0F0BD7047FEF787BD35
:101A4000B0B5CCB044F6180439A84C21C5F6020450
:101A5000FEF745FC31A82021FEF741FC02A8BC217D
:101A6000FEF73DFC0220FEF729FE002001902068D1
:101A700040F440402060206800F44040019040F273
:101A80002C40C5F60000016841F0010101600068CA
:101A900000F001000190019820688004FCD5FEF759
:101AA00031FEFEF747FD4FF658400825CFF6FF7090
:101AB000215821F018012150052039904FF4803130
:101AC0003A9101213B9102210024CDE94211449039
:101AD000C020CDE9450139A8CDE947114995CDE9A7
:101AE0004A44FFF721FC32A93F203190032031C145
:101AF00040204FF48061CDE93500CDE9371031A8A1
:101B00000421FFF75FFA41F200001494C0F2402074
:101B100002904FF480702E9002A81994FEF704FEF4
:101B2000FFF775FBFEF7F7FD4CB0B0BD80B54EF684
:101B3000085C42F2000ECEF2000CC5F2002EDCF87A
:101B4000801041F47001CCF88010DEF8001001F034
:101B50000F01062906D8DEF80010072262F3030100
:101B6000CEF8001044F200414EF67F53C5F6020154
:101B7000CEF6F6230A6842F001020A6000220A61EA
:101B8000086818400860DEF80000000706D5DEF897
:101B90000000072363F30300CEF8000040F20020AA
:101BA0008A61CA61C0F202200A6288620020C0F223
:101BB000FF10C86240F28020C0F2011008634A633F
:101BC0008863CA6308644A64086820F48020086057
:101BD00041F200000A66C5F600400068B2EB507F93
:101BE00005D148F208100121C5F20010016044F24D
:101BF000000043F2D201C5F2002001604FF0006006
:101C0000CCF8000080BD0000FEE7000086B041F285
:101C10000004C5F60204FEF7A7FCFFF711FF44F22B
:101C2000E040C5F60200016841F010010160006863
:101C3000082100F01000019001980120029001910C
:101C400001A903902046FEF77DFB00BF0821204636
:101C5000FEF769FC4FF4FA70FEF760FBF6E702E06E
:101C600008C8121F08C1002AFAD170477047002027
:101C700001E001C1121F002AFBD1704700000000E3
:101C8000010203040102030406070809B01C00084E
:101C900000000024100000005E1C0008C01C0008AA
:101CA00010000024080400006E1C00080000000062
:101CB0000090D0030090D00301000000100000004D
:040000050800029954
:00000001FF
